{
  "contracts/RideShare.sol": {
    "Rideshare": {
      "abi": [
        {
          "inputs": [
            {
              "internalType": "address",
              "name": "_tokenAddress",
              "type": "address"
            }
          ],
          "stateMutability": "nonpayable",
          "type": "constructor"
        },
        {
          "anonymous": false,
          "inputs": [
            {
              "indexed": true,
              "internalType": "address",
              "name": "passenger",
              "type": "address"
            },
            {
              "indexed": true,
              "internalType": "address",
              "name": "driver",
              "type": "address"
            },
            {
              "indexed": false,
              "internalType": "uint256",
              "name": "drivingCost",
              "type": "uint256"
            }
          ],
          "name": "RideAccepted",
          "type": "event"
        },
        {
          "anonymous": false,
          "inputs": [
            {
              "indexed": true,
              "internalType": "address",
              "name": "passenger",
              "type": "address"
            },
            {
              "indexed": true,
              "internalType": "address",
              "name": "driver",
              "type": "address"
            }
          ],
          "name": "RideCompletedByDriver",
          "type": "event"
        },
        {
          "anonymous": false,
          "inputs": [
            {
              "indexed": true,
              "internalType": "address",
              "name": "passenger",
              "type": "address"
            },
            {
              "indexed": true,
              "internalType": "address",
              "name": "driver",
              "type": "address"
            },
            {
              "indexed": false,
              "internalType": "uint256",
              "name": "drivingCost",
              "type": "uint256"
            }
          ],
          "name": "RideConfirmed",
          "type": "event"
        },
        {
          "anonymous": false,
          "inputs": [
            {
              "indexed": true,
              "internalType": "address",
              "name": "passenger",
              "type": "address"
            },
            {
              "indexed": true,
              "internalType": "address",
              "name": "driver",
              "type": "address"
            },
            {
              "indexed": false,
              "internalType": "uint256",
              "name": "drivingCost",
              "type": "uint256"
            }
          ],
          "name": "RideConfirmedByPassenger",
          "type": "event"
        },
        {
          "anonymous": false,
          "inputs": [
            {
              "indexed": true,
              "internalType": "address",
              "name": "driver",
              "type": "address"
            },
            {
              "indexed": true,
              "internalType": "address",
              "name": "passenger",
              "type": "address"
            },
            {
              "components": [
                {
                  "internalType": "uint256",
                  "name": "latitude",
                  "type": "uint256"
                },
                {
                  "internalType": "uint256",
                  "name": "longitude",
                  "type": "uint256"
                }
              ],
              "indexed": false,
              "internalType": "struct Rideshare.Coordinate[]",
              "name": "coordinates",
              "type": "tuple[]"
            }
          ],
          "name": "RideCoordinatesSubmitted",
          "type": "event"
        },
        {
          "anonymous": false,
          "inputs": [
            {
              "indexed": true,
              "internalType": "address",
              "name": "passenger",
              "type": "address"
            },
            {
              "indexed": false,
              "internalType": "string",
              "name": "origin",
              "type": "string"
            },
            {
              "indexed": false,
              "internalType": "string",
              "name": "destination",
              "type": "string"
            },
            {
              "indexed": false,
              "internalType": "uint64",
              "name": "capacity",
              "type": "uint64"
            }
          ],
          "name": "RideRequested",
          "type": "event"
        },
        {
          "inputs": [
            {
              "internalType": "address",
              "name": "_passenger",
              "type": "address"
            },
            {
              "internalType": "uint256",
              "name": "_drivingCost",
              "type": "uint256"
            }
          ],
          "name": "acceptRide",
          "outputs": [],
          "stateMutability": "nonpayable",
          "type": "function"
        },
        {
          "inputs": [
            {
              "internalType": "address",
              "name": "_passenger",
              "type": "address"
            }
          ],
          "name": "completeRide",
          "outputs": [],
          "stateMutability": "nonpayable",
          "type": "function"
        },
        {
          "inputs": [],
          "name": "confirmRide",
          "outputs": [],
          "stateMutability": "nonpayable",
          "type": "function"
        },
        {
          "inputs": [],
          "name": "confirmRideCompletion",
          "outputs": [],
          "stateMutability": "nonpayable",
          "type": "function"
        },
        {
          "inputs": [
            {
              "internalType": "address",
              "name": "_passenger",
              "type": "address"
            }
          ],
          "name": "getRideCoordinates",
          "outputs": [
            {
              "components": [
                {
                  "internalType": "uint256",
                  "name": "latitude",
                  "type": "uint256"
                },
                {
                  "internalType": "uint256",
                  "name": "longitude",
                  "type": "uint256"
                }
              ],
              "internalType": "struct Rideshare.Coordinate[]",
              "name": "",
              "type": "tuple[]"
            }
          ],
          "stateMutability": "view",
          "type": "function"
        },
        {
          "inputs": [
            {
              "internalType": "address",
              "name": "_passenger",
              "type": "address"
            }
          ],
          "name": "getRideStatus",
          "outputs": [
            {
              "internalType": "uint256",
              "name": "",
              "type": "uint256"
            },
            {
              "internalType": "uint64",
              "name": "",
              "type": "uint64"
            },
            {
              "internalType": "string",
              "name": "",
              "type": "string"
            },
            {
              "internalType": "string",
              "name": "",
              "type": "string"
            },
            {
              "internalType": "bool",
              "name": "",
              "type": "bool"
            },
            {
              "internalType": "address",
              "name": "",
              "type": "address"
            },
            {
              "internalType": "bool",
              "name": "",
              "type": "bool"
            },
            {
              "internalType": "bool",
              "name": "",
              "type": "bool"
            }
          ],
          "stateMutability": "view",
          "type": "function"
        },
        {
          "inputs": [
            {
              "internalType": "string",
              "name": "_origin",
              "type": "string"
            },
            {
              "internalType": "string",
              "name": "_destination",
              "type": "string"
            },
            {
              "internalType": "uint64",
              "name": "_capacity",
              "type": "uint64"
            }
          ],
          "name": "requestRide",
          "outputs": [],
          "stateMutability": "nonpayable",
          "type": "function"
        },
        {
          "inputs": [
            {
              "internalType": "address",
              "name": "",
              "type": "address"
            }
          ],
          "name": "rideRequests",
          "outputs": [
            {
              "internalType": "address",
              "name": "passenger",
              "type": "address"
            },
            {
              "internalType": "uint256",
              "name": "drivingCost",
              "type": "uint256"
            },
            {
              "internalType": "uint64",
              "name": "capacity",
              "type": "uint64"
            },
            {
              "internalType": "string",
              "name": "origin",
              "type": "string"
            },
            {
              "internalType": "string",
              "name": "destination",
              "type": "string"
            },
            {
              "internalType": "bool",
              "name": "isAccepted",
              "type": "bool"
            },
            {
              "internalType": "bool",
              "name": "isConfirmed",
              "type": "bool"
            },
            {
              "internalType": "address",
              "name": "driver",
              "type": "address"
            },
            {
              "internalType": "bool",
              "name": "isCompletedByDriver",
              "type": "bool"
            },
            {
              "internalType": "bool",
              "name": "isConfirmedByPassenger",
              "type": "bool"
            }
          ],
          "stateMutability": "view",
          "type": "function"
        },
        {
          "inputs": [
            {
              "internalType": "address",
              "name": "_passenger",
              "type": "address"
            },
            {
              "components": [
                {
                  "internalType": "uint256",
                  "name": "latitude",
                  "type": "uint256"
                },
                {
                  "internalType": "uint256",
                  "name": "longitude",
                  "type": "uint256"
                }
              ],
              "internalType": "struct Rideshare.Coordinate[]",
              "name": "_coordinates",
              "type": "tuple[]"
            }
          ],
          "name": "submitRideCoordinates",
          "outputs": [],
          "stateMutability": "nonpayable",
          "type": "function"
        },
        {
          "inputs": [],
          "name": "token",
          "outputs": [
            {
              "internalType": "contract IERC20",
              "name": "",
              "type": "address"
            }
          ],
          "stateMutability": "view",
          "type": "function"
        }
      ],
      "evm": {
        "bytecode": {
          "linkReferences": {},
          "object": "60806040523480156200001157600080fd5b506040516200383b3803806200383b8339818101604052810190620000379190620000e8565b806000806101000a81548173ffffffffffffffffffffffffffffffffffffffff021916908373ffffffffffffffffffffffffffffffffffffffff160217905550506200011a565b600080fd5b600073ffffffffffffffffffffffffffffffffffffffff82169050919050565b6000620000b08262000083565b9050919050565b620000c281620000a3565b8114620000ce57600080fd5b50565b600081519050620000e281620000b7565b92915050565b6000602082840312156200010157620001006200007e565b5b60006200011184828501620000d1565b91505092915050565b613711806200012a6000396000f3fe608060405234801561001057600080fd5b506004361061009e5760003560e01c8063ade6359c11610066578063ade6359c1461014c578063b08ae97014610168578063c2d8b28f14610172578063e99d18e4146101ab578063fc0c546a146101c75761009e565b80630e0c7aa2146100a35780631f892445146100bf5780639547b4ea146100f65780639a0eb968146101125780639a45058a1461011c575b600080fd5b6100bd60048036038101906100b891906123f1565b6101e5565b005b6100d960048036038101906100d4919061244d565b610520565b6040516100ed989796959493929190612555565b60405180910390f35b610110600480360381019061010b91906125e1565b6108ac565b005b61011a610e37565b005b6101366004803603810190610131919061244d565b611150565b604051610143919061270e565b60405180910390f35b61016660048036038101906101619190612811565b61149a565b005b610170611941565b005b61018c6004803603810190610187919061244d565b611cf1565b6040516101a29a9998979695949392919061289c565b60405180910390f35b6101c560048036038101906101c0919061244d565b611edd565b005b6101cf6120cf565b6040516101dc91906129a5565b60405180910390f35b6000600160008473ffffffffffffffffffffffffffffffffffffffff1673ffffffffffffffffffffffffffffffffffffffff16815260200190815260200160002090503373ffffffffffffffffffffffffffffffffffffffff168160050160029054906101000a900473ffffffffffffffffffffffffffffffffffffffff1673ffffffffffffffffffffffffffffffffffffffff16146102ba576040517f08c379a00000000000000000000000000000000000000000000000000000000081526004016102b190612a32565b60405180910390fd5b8060050160179054906101000a900460ff1661030b576040517f08c379a000000000000000000000000000000000000000000000000000000000815260040161030290612ac4565b60405180910390fd5b60005b8251811015610382578160060183828151811061032e5761032d612ae4565b5b6020026020010151908060018154018082558091505060019003906000526020600020906002020160009091909190915060008201518160000155602082015181600101555050808060010191505061030e565b50600160008473ffffffffffffffffffffffffffffffffffffffff1673ffffffffffffffffffffffffffffffffffffffff168152602001908152602001600020600080820160006101000a81549073ffffffffffffffffffffffffffffffffffffffff021916905560018201600090556002820160006101000a81549067ffffffffffffffff021916905560038201600061041d91906120f3565b60048201600061042d91906120f3565b6005820160006101000a81549060ff02191690556005820160016101000a81549060ff02191690556005820160026101000a81549073ffffffffffffffffffffffffffffffffffffffff02191690556005820160166101000a81549060ff02191690556005820160176101000a81549060ff02191690556006820160006104b49190612133565b50508273ffffffffffffffffffffffffffffffffffffffff163373ffffffffffffffffffffffffffffffffffffffff167f4f1843614db1d3cfc53f3d01fa1fdc40b6c7defc63b3f57aa0a68aedb41678e784604051610513919061270e565b60405180910390a3505050565b6000806060806000806000806000600160008b73ffffffffffffffffffffffffffffffffffffffff1673ffffffffffffffffffffffffffffffffffffffff168152602001908152602001600020604051806101600160405290816000820160009054906101000a900473ffffffffffffffffffffffffffffffffffffffff1673ffffffffffffffffffffffffffffffffffffffff1673ffffffffffffffffffffffffffffffffffffffff168152602001600182015481526020016002820160009054906101000a900467ffffffffffffffff1667ffffffffffffffff1667ffffffffffffffff16815260200160038201805461061b90612b42565b80601f016020809104026020016040519081016040528092919081815260200182805461064790612b42565b80156106945780601f1061066957610100808354040283529160200191610694565b820191906000526020600020905b81548152906001019060200180831161067757829003601f168201915b505050505081526020016004820180546106ad90612b42565b80601f01602080910402602001604051908101604052809291908181526020018280546106d990612b42565b80156107265780601f106106fb57610100808354040283529160200191610726565b820191906000526020600020905b81548152906001019060200180831161070957829003601f168201915b505050505081526020016005820160009054906101000a900460ff161515151581526020016005820160019054906101000a900460ff161515151581526020016005820160029054906101000a900473ffffffffffffffffffffffffffffffffffffffff1673ffffffffffffffffffffffffffffffffffffffff1673ffffffffffffffffffffffffffffffffffffffff1681526020016005820160169054906101000a900460ff161515151581526020016005820160179054906101000a900460ff1615151515815260200160068201805480602002602001604051908101604052809291908181526020016000905b8282101561085c57838290600052602060002090600202016040518060400160405290816000820154815260200160018201548152505081526020019060010190610816565b5050505081525050905080602001518160400151826060015183608001518460a001518560e001518661010001518761012001519850985098509850985098509850985050919395975091939597565b8173ffffffffffffffffffffffffffffffffffffffff16600160008473ffffffffffffffffffffffffffffffffffffffff1673ffffffffffffffffffffffffffffffffffffffff16815260200190815260200160002060000160009054906101000a900473ffffffffffffffffffffffffffffffffffffffff1673ffffffffffffffffffffffffffffffffffffffff161461097c576040517f08c379a000000000000000000000000000000000000000000000000000000000815260040161097390612bbf565b60405180910390fd5b600160008373ffffffffffffffffffffffffffffffffffffffff1673ffffffffffffffffffffffffffffffffffffffff16815260200190815260200160002060050160009054906101000a900460ff1615610a0c576040517f08c379a0000000000000000000000000000000000000000000000000000000008152600401610a0390612c51565b60405180910390fd5b60008060009054906101000a900473ffffffffffffffffffffffffffffffffffffffff1673ffffffffffffffffffffffffffffffffffffffff1663dd62ed3e33306040518363ffffffff1660e01b8152600401610a6a929190612c71565b602060405180830381865afa158015610a87573d6000803e3d6000fd5b505050506040513d601f19601f82011682018060405250810190610aab9190612caf565b905081811015610af0576040517f08c379a0000000000000000000000000000000000000000000000000000000008152600401610ae790612d28565b60405180910390fd5b8160008054906101000a900473ffffffffffffffffffffffffffffffffffffffff1673ffffffffffffffffffffffffffffffffffffffff166370a08231336040518263ffffffff1660e01b8152600401610b4a9190612d48565b602060405180830381865afa158015610b67573d6000803e3d6000fd5b505050506040513d601f19601f82011682018060405250810190610b8b9190612caf565b1015610bcc576040517f08c379a0000000000000000000000000000000000000000000000000000000008152600401610bc390612daf565b60405180910390fd5b60008054906101000a900473ffffffffffffffffffffffffffffffffffffffff1673ffffffffffffffffffffffffffffffffffffffff166323b872dd3330856040518463ffffffff1660e01b8152600401610c2993929190612dcf565b6020604051808303816000875af1158015610c48573d6000803e3d6000fd5b505050506040513d601f19601f82011682018060405250810190610c6c9190612e32565b610cab576040517f08c379a0000000000000000000000000000000000000000000000000000000008152600401610ca290612eab565b60405180910390fd5b81600160008573ffffffffffffffffffffffffffffffffffffffff1673ffffffffffffffffffffffffffffffffffffffff1681526020019081526020016000206001018190555060018060008573ffffffffffffffffffffffffffffffffffffffff1673ffffffffffffffffffffffffffffffffffffffff16815260200190815260200160002060050160006101000a81548160ff02191690831515021790555033600160008573ffffffffffffffffffffffffffffffffffffffff1673ffffffffffffffffffffffffffffffffffffffff16815260200190815260200160002060050160026101000a81548173ffffffffffffffffffffffffffffffffffffffff021916908373ffffffffffffffffffffffffffffffffffffffff1602179055503373ffffffffffffffffffffffffffffffffffffffff168373ffffffffffffffffffffffffffffffffffffffff167f9edae0ae38afbd7159145bf329e42869146fca525ae3069d6a7aa9f17fd06c3484604051610e2a9190612ecb565b60405180910390a3505050565b6000600160003373ffffffffffffffffffffffffffffffffffffffff1673ffffffffffffffffffffffffffffffffffffffff16815260200190815260200160002090503373ffffffffffffffffffffffffffffffffffffffff168160000160009054906101000a900473ffffffffffffffffffffffffffffffffffffffff1673ffffffffffffffffffffffffffffffffffffffff1614610f0c576040517f08c379a0000000000000000000000000000000000000000000000000000000008152600401610f0390612f58565b60405180910390fd5b8060050160169054906101000a900460ff16610f5d576040517f08c379a0000000000000000000000000000000000000000000000000000000008152600401610f5490612fea565b60405180910390fd5b8060050160179054906101000a900460ff1615610faf576040517f08c379a0000000000000000000000000000000000000000000000000000000008152600401610fa69061307c565b60405180910390fd5b60018160050160176101000a81548160ff02191690831515021790555060008160010154905060008260050160029054906101000a900473ffffffffffffffffffffffffffffffffffffffff16905060008054906101000a900473ffffffffffffffffffffffffffffffffffffffff1673ffffffffffffffffffffffffffffffffffffffff1663a9059cbb82848561104791906130cb565b6040518363ffffffff1660e01b81526004016110649291906130ff565b6020604051808303816000875af1158015611083573d6000803e3d6000fd5b505050506040513d601f19601f820116820180604052508101906110a79190612e32565b6110e6576040517f08c379a00000000000000000000000000000000000000000000000000000000081526004016110dd90613174565b60405180910390fd5b8073ffffffffffffffffffffffffffffffffffffffff163373ffffffffffffffffffffffffffffffffffffffff167f7dbb33532b179f60dc70cf4f2386349d2c10448f15bb64a859ba889daf53817c846040516111439190612ecb565b60405180910390a3505050565b60606000600160008473ffffffffffffffffffffffffffffffffffffffff1673ffffffffffffffffffffffffffffffffffffffff168152602001908152602001600020604051806101600160405290816000820160009054906101000a900473ffffffffffffffffffffffffffffffffffffffff1673ffffffffffffffffffffffffffffffffffffffff1673ffffffffffffffffffffffffffffffffffffffff168152602001600182015481526020016002820160009054906101000a900467ffffffffffffffff1667ffffffffffffffff1667ffffffffffffffff16815260200160038201805461124190612b42565b80601f016020809104026020016040519081016040528092919081815260200182805461126d90612b42565b80156112ba5780601f1061128f576101008083540402835291602001916112ba565b820191906000526020600020905b81548152906001019060200180831161129d57829003601f168201915b505050505081526020016004820180546112d390612b42565b80601f01602080910402602001604051908101604052809291908181526020018280546112ff90612b42565b801561134c5780601f106113215761010080835404028352916020019161134c565b820191906000526020600020905b81548152906001019060200180831161132f57829003601f168201915b505050505081526020016005820160009054906101000a900460ff161515151581526020016005820160019054906101000a900460ff161515151581526020016005820160029054906101000a900473ffffffffffffffffffffffffffffffffffffffff1673ffffffffffffffffffffffffffffffffffffffff1673ffffffffffffffffffffffffffffffffffffffff1681526020016005820160169054906101000a900460ff161515151581526020016005820160179054906101000a900460ff1615151515815260200160068201805480602002602001604051908101604052809291908181526020016000905b828210156114825783829060005260206000209060020201604051806040016040529081600082015481526020016001820154815250508152602001906001019061143c565b50505050815250509050806101400151915050919050565b600160003373ffffffffffffffffffffffffffffffffffffffff1673ffffffffffffffffffffffffffffffffffffffff16815260200190815260200160002060050160009054906101000a900460ff161561152a576040517f08c379a000000000000000000000000000000000000000000000000000000000815260040161152190613206565b60405180910390fd5b33600160003373ffffffffffffffffffffffffffffffffffffffff1673ffffffffffffffffffffffffffffffffffffffff16815260200190815260200160002060000160006101000a81548173ffffffffffffffffffffffffffffffffffffffff021916908373ffffffffffffffffffffffffffffffffffffffff1602179055506000600160003373ffffffffffffffffffffffffffffffffffffffff1673ffffffffffffffffffffffffffffffffffffffff1681526020019081526020016000206001018190555080600160003373ffffffffffffffffffffffffffffffffffffffff1673ffffffffffffffffffffffffffffffffffffffff16815260200190815260200160002060020160006101000a81548167ffffffffffffffff021916908367ffffffffffffffff16021790555082600160003373ffffffffffffffffffffffffffffffffffffffff1673ffffffffffffffffffffffffffffffffffffffff16815260200190815260200160002060030190816116ab91906133c8565b5081600160003373ffffffffffffffffffffffffffffffffffffffff1673ffffffffffffffffffffffffffffffffffffffff16815260200190815260200160002060040190816116fb91906133c8565b506000600160003373ffffffffffffffffffffffffffffffffffffffff1673ffffffffffffffffffffffffffffffffffffffff16815260200190815260200160002060050160026101000a81548173ffffffffffffffffffffffffffffffffffffffff021916908373ffffffffffffffffffffffffffffffffffffffff1602179055506000600160003373ffffffffffffffffffffffffffffffffffffffff1673ffffffffffffffffffffffffffffffffffffffff16815260200190815260200160002060050160006101000a81548160ff0219169083151502179055506000600160003373ffffffffffffffffffffffffffffffffffffffff1673ffffffffffffffffffffffffffffffffffffffff16815260200190815260200160002060050160016101000a81548160ff0219169083151502179055506000600160003373ffffffffffffffffffffffffffffffffffffffff1673ffffffffffffffffffffffffffffffffffffffff16815260200190815260200160002060050160166101000a81548160ff0219169083151502179055506000600160003373ffffffffffffffffffffffffffffffffffffffff1673ffffffffffffffffffffffffffffffffffffffff16815260200190815260200160002060050160176101000a81548160ff0219169083151502179055503373ffffffffffffffffffffffffffffffffffffffff167f7cd5f5bdf90185204d23a6f481b9f592183d8c914f6ec3062ff2826d977e547b8484846040516119349392919061349a565b60405180910390a2505050565b3373ffffffffffffffffffffffffffffffffffffffff16600160003373ffffffffffffffffffffffffffffffffffffffff1673ffffffffffffffffffffffffffffffffffffffff16815260200190815260200160002060000160009054906101000a900473ffffffffffffffffffffffffffffffffffffffff1673ffffffffffffffffffffffffffffffffffffffff1614611a11576040517f08c379a0000000000000000000000000000000000000000000000000000000008152600401611a0890612bbf565b60405180910390fd5b600160003373ffffffffffffffffffffffffffffffffffffffff1673ffffffffffffffffffffffffffffffffffffffff16815260200190815260200160002060050160019054906101000a900460ff1615611aa1576040517f08c379a0000000000000000000000000000000000000000000000000000000008152600401611a9890613551565b60405180910390fd5b6000600160003373ffffffffffffffffffffffffffffffffffffffff1673ffffffffffffffffffffffffffffffffffffffff16815260200190815260200160002060010154905060008054906101000a900473ffffffffffffffffffffffffffffffffffffffff1673ffffffffffffffffffffffffffffffffffffffff166323b872dd3330846040518463ffffffff1660e01b8152600401611b4593929190612dcf565b6020604051808303816000875af1158015611b64573d6000803e3d6000fd5b505050506040513d601f19601f82011682018060405250810190611b889190612e32565b611bc7576040517f08c379a0000000000000000000000000000000000000000000000000000000008152600401611bbe90612eab565b60405180910390fd5b6000600160003373ffffffffffffffffffffffffffffffffffffffff1673ffffffffffffffffffffffffffffffffffffffff16815260200190815260200160002060050160029054906101000a900473ffffffffffffffffffffffffffffffffffffffff16905060018060003373ffffffffffffffffffffffffffffffffffffffff1673ffffffffffffffffffffffffffffffffffffffff16815260200190815260200160002060050160016101000a81548160ff0219169083151502179055508073ffffffffffffffffffffffffffffffffffffffff163373ffffffffffffffffffffffffffffffffffffffff167f69dcba2f646658c0164e487534906889dba6b08cb84e50745d18ac1d31c7236484604051611ce59190612ecb565b60405180910390a35050565b60016020528060005260406000206000915090508060000160009054906101000a900473ffffffffffffffffffffffffffffffffffffffff16908060010154908060020160009054906101000a900467ffffffffffffffff1690806003018054611d5a90612b42565b80601f0160208091040260200160405190810160405280929190818152602001828054611d8690612b42565b8015611dd35780601f10611da857610100808354040283529160200191611dd3565b820191906000526020600020905b815481529060010190602001808311611db657829003601f168201915b505050505090806004018054611de890612b42565b80601f0160208091040260200160405190810160405280929190818152602001828054611e1490612b42565b8015611e615780601f10611e3657610100808354040283529160200191611e61565b820191906000526020600020905b815481529060010190602001808311611e4457829003601f168201915b5050505050908060050160009054906101000a900460ff16908060050160019054906101000a900460ff16908060050160029054906101000a900473ffffffffffffffffffffffffffffffffffffffff16908060050160169054906101000a900460ff16908060050160179054906101000a900460ff1690508a565b6000600160008373ffffffffffffffffffffffffffffffffffffffff1673ffffffffffffffffffffffffffffffffffffffff16815260200190815260200160002090508060050160009054906101000a900460ff16611f71576040517f08c379a0000000000000000000000000000000000000000000000000000000008152600401611f68906135bd565b60405180910390fd5b8060050160019054906101000a900460ff16611fc2576040517f08c379a0000000000000000000000000000000000000000000000000000000008152600401611fb990613629565b60405180910390fd5b3373ffffffffffffffffffffffffffffffffffffffff168160050160029054906101000a900473ffffffffffffffffffffffffffffffffffffffff1673ffffffffffffffffffffffffffffffffffffffff1614612054576040517f08c379a000000000000000000000000000000000000000000000000000000000815260040161204b906136bb565b60405180910390fd5b60018160050160166101000a81548160ff0219169083151502179055503373ffffffffffffffffffffffffffffffffffffffff168273ffffffffffffffffffffffffffffffffffffffff167f8189072d42595b0e174118838ddd5bad006e2dcfc78da629d234971e2f1fa15560405160405180910390a35050565b60008054906101000a900473ffffffffffffffffffffffffffffffffffffffff1681565b5080546120ff90612b42565b6000825580601f106121115750612130565b601f01602090049060005260206000209081019061212f9190612157565b5b50565b50805460008255600202906000526020600020908101906121549190612174565b50565b5b80821115612170576000816000905550600101612158565b5090565b5b8082111561219757600080820160009055600182016000905550600201612175565b5090565b6000604051905090565b600080fd5b600080fd5b600073ffffffffffffffffffffffffffffffffffffffff82169050919050565b60006121da826121af565b9050919050565b6121ea816121cf565b81146121f557600080fd5b50565b600081359050612207816121e1565b92915050565b600080fd5b6000601f19601f8301169050919050565b7f4e487b7100000000000000000000000000000000000000000000000000000000600052604160045260246000fd5b61225b82612212565b810181811067ffffffffffffffff8211171561227a57612279612223565b5b80604052505050565b600061228d61219b565b90506122998282612252565b919050565b600067ffffffffffffffff8211156122b9576122b8612223565b5b602082029050602081019050919050565b600080fd5b600080fd5b6000819050919050565b6122e7816122d4565b81146122f257600080fd5b50565b600081359050612304816122de565b92915050565b6000604082840312156123205761231f6122cf565b5b61232a6040612283565b9050600061233a848285016122f5565b600083015250602061234e848285016122f5565b60208301525092915050565b600061236d6123688461229e565b612283565b905080838252602082019050604084028301858111156123905761238f6122ca565b5b835b818110156123b957806123a5888261230a565b845260208401935050604081019050612392565b5050509392505050565b600082601f8301126123d8576123d761220d565b5b81356123e884826020860161235a565b91505092915050565b60008060408385031215612408576124076121a5565b5b6000612416858286016121f8565b925050602083013567ffffffffffffffff811115612437576124366121aa565b5b612443858286016123c3565b9150509250929050565b600060208284031215612463576124626121a5565b5b6000612471848285016121f8565b91505092915050565b612483816122d4565b82525050565b600067ffffffffffffffff82169050919050565b6124a681612489565b82525050565b600081519050919050565b600082825260208201905092915050565b60005b838110156124e65780820151818401526020810190506124cb565b60008484015250505050565b60006124fd826124ac565b61250781856124b7565b93506125178185602086016124c8565b61252081612212565b840191505092915050565b60008115159050919050565b6125408161252b565b82525050565b61254f816121cf565b82525050565b60006101008201905061256b600083018b61247a565b612578602083018a61249d565b818103604083015261258a81896124f2565b9050818103606083015261259e81886124f2565b90506125ad6080830187612537565b6125ba60a0830186612546565b6125c760c0830185612537565b6125d460e0830184612537565b9998505050505050505050565b600080604083850312156125f8576125f76121a5565b5b6000612606858286016121f8565b9250506020612617858286016122f5565b9150509250929050565b600081519050919050565b600082825260208201905092915050565b6000819050602082019050919050565b612656816122d4565b82525050565b604082016000820151612672600085018261264d565b506020820151612685602085018261264d565b50505050565b6000612697838361265c565b60408301905092915050565b6000602082019050919050565b60006126bb82612621565b6126c5818561262c565b93506126d08361263d565b8060005b838110156127015781516126e8888261268b565b97506126f3836126a3565b9250506001810190506126d4565b5085935050505092915050565b6000602082019050818103600083015261272881846126b0565b905092915050565b600080fd5b600067ffffffffffffffff8211156127505761274f612223565b5b61275982612212565b9050602081019050919050565b82818337600083830152505050565b600061278861278384612735565b612283565b9050828152602081018484840111156127a4576127a3612730565b5b6127af848285612766565b509392505050565b600082601f8301126127cc576127cb61220d565b5b81356127dc848260208601612775565b91505092915050565b6127ee81612489565b81146127f957600080fd5b50565b60008135905061280b816127e5565b92915050565b60008060006060848603121561282a576128296121a5565b5b600084013567ffffffffffffffff811115612848576128476121aa565b5b612854868287016127b7565b935050602084013567ffffffffffffffff811115612875576128746121aa565b5b612881868287016127b7565b9250506040612892868287016127fc565b9150509250925092565b6000610140820190506128b2600083018d612546565b6128bf602083018c61247a565b6128cc604083018b61249d565b81810360608301526128de818a6124f2565b905081810360808301526128f281896124f2565b905061290160a0830188612537565b61290e60c0830187612537565b61291b60e0830186612546565b612929610100830185612537565b612937610120830184612537565b9b9a5050505050505050505050565b6000819050919050565b600061296b612966612961846121af565b612946565b6121af565b9050919050565b600061297d82612950565b9050919050565b600061298f82612972565b9050919050565b61299f81612984565b82525050565b60006020820190506129ba6000830184612996565b92915050565b7f4f6e6c7920746865206472697665722063616e207375626d697420726964652060008201527f636f6f7264696e617465732e0000000000000000000000000000000000000000602082015250565b6000612a1c602c836124b7565b9150612a27826129c0565b604082019050919050565b60006020820190508181036000830152612a4b81612a0f565b9050919050565b7f52696465206d757374206265206d61726b656420617320636f6d706c6574656460008201527f206279207468652070617373656e6765722066697273742e0000000000000000602082015250565b6000612aae6038836124b7565b9150612ab982612a52565b604082019050919050565b60006020820190508181036000830152612add81612aa1565b9050919050565b7f4e487b7100000000000000000000000000000000000000000000000000000000600052603260045260246000fd5b7f4e487b7100000000000000000000000000000000000000000000000000000000600052602260045260246000fd5b60006002820490506001821680612b5a57607f821691505b602082108103612b6d57612b6c612b13565b5b50919050565b7f52696465207265717565737420646f6573206e6f742065786973742e00000000600082015250565b6000612ba9601c836124b7565b9150612bb482612b73565b602082019050919050565b60006020820190508181036000830152612bd881612b9c565b9050919050565b7f5269646520726571756573742068617320616c7265616479206265656e20616360008201527f6365707465642e00000000000000000000000000000000000000000000000000602082015250565b6000612c3b6027836124b7565b9150612c4682612bdf565b604082019050919050565b60006020820190508181036000830152612c6a81612c2e565b9050919050565b6000604082019050612c866000830185612546565b612c936020830184612546565b9392505050565b600081519050612ca9816122de565b92915050565b600060208284031215612cc557612cc46121a5565b5b6000612cd384828501612c9a565b91505092915050565b7f436865636b2074686520746f6b656e20616c6c6f77616e63652e000000000000600082015250565b6000612d12601a836124b7565b9150612d1d82612cdc565b602082019050919050565b60006020820190508181036000830152612d4181612d05565b9050919050565b6000602082019050612d5d6000830184612546565b92915050565b7f496e73756666696369656e742062616c616e63652e0000000000000000000000600082015250565b6000612d996015836124b7565b9150612da482612d63565b602082019050919050565b60006020820190508181036000830152612dc881612d8c565b9050919050565b6000606082019050612de46000830186612546565b612df16020830185612546565b612dfe604083018461247a565b949350505050565b612e0f8161252b565b8114612e1a57600080fd5b50565b600081519050612e2c81612e06565b92915050565b600060208284031215612e4857612e476121a5565b5b6000612e5684828501612e1d565b91505092915050565b7f546f6b656e207472616e73666572206661696c65642e00000000000000000000600082015250565b6000612e956016836124b7565b9150612ea082612e5f565b602082019050919050565b60006020820190508181036000830152612ec481612e88565b9050919050565b6000602082019050612ee0600083018461247a565b92915050565b7f4f6e6c79207468652070617373656e6765722063616e20636f6e6669726d207460008201527f6865207269646520636f6d706c6574696f6e2e00000000000000000000000000602082015250565b6000612f426033836124b7565b9150612f4d82612ee6565b604082019050919050565b60006020820190508181036000830152612f7181612f35565b9050919050565b7f5269646520686173206e6f74206265656e206d61726b656420617320636f6d7060008201527f6c6574656420627920746865206472697665722e000000000000000000000000602082015250565b6000612fd46034836124b7565b9150612fdf82612f78565b604082019050919050565b6000602082019050818103600083015261300381612fc7565b9050919050565b7f526964652068617320616c7265616479206265656e20636f6e6669726d65642060008201527f6279207468652070617373656e6765722e000000000000000000000000000000602082015250565b60006130666031836124b7565b91506130718261300a565b604082019050919050565b6000602082019050818103600083015261309581613059565b9050919050565b7f4e487b7100000000000000000000000000000000000000000000000000000000600052601160045260246000fd5b60006130d6826122d4565b91506130e1836122d4565b92508282019050808211156130f9576130f861309c565b5b92915050565b60006040820190506131146000830185612546565b613121602083018461247a565b9392505050565b7f546f6b656e207472616e7366657220746f20647269766572206661696c65642e600082015250565b600061315e6020836124b7565b915061316982613128565b602082019050919050565b6000602082019050818103600083015261318d81613151565b9050919050565b7f596f7520616c7265616479206861766520612070656e64696e6720726964652060008201527f726571756573742e000000000000000000000000000000000000000000000000602082015250565b60006131f06028836124b7565b91506131fb82613194565b604082019050919050565b6000602082019050818103600083015261321f816131e3565b9050919050565b60008190508160005260206000209050919050565b60006020601f8301049050919050565b600082821b905092915050565b6000600883026132887fffffffffffffffffffffffffffffffffffffffffffffffffffffffffffffffff8261324b565b613292868361324b565b95508019841693508086168417925050509392505050565b60006132c56132c06132bb846122d4565b612946565b6122d4565b9050919050565b6000819050919050565b6132df836132aa565b6132f36132eb826132cc565b848454613258565b825550505050565b600090565b6133086132fb565b6133138184846132d6565b505050565b5b818110156133375761332c600082613300565b600181019050613319565b5050565b601f82111561337c5761334d81613226565b6133568461323b565b81016020851015613365578190505b6133796133718561323b565b830182613318565b50505b505050565b600082821c905092915050565b600061339f60001984600802613381565b1980831691505092915050565b60006133b8838361338e565b9150826002028217905092915050565b6133d1826124ac565b67ffffffffffffffff8111156133ea576133e9612223565b5b6133f48254612b42565b6133ff82828561333b565b600060209050601f8311600181146134325760008415613420578287015190505b61342a85826133ac565b865550613492565b601f19841661344086613226565b60005b8281101561346857848901518255600182019150602085019450602081019050613443565b868310156134855784890151613481601f89168261338e565b8355505b6001600288020188555050505b505050505050565b600060608201905081810360008301526134b481866124f2565b905081810360208301526134c881856124f2565b90506134d7604083018461249d565b949350505050565b7f5269646520726571756573742068617320616c7265616479206265656e20636f60008201527f6e6669726d65642e000000000000000000000000000000000000000000000000602082015250565b600061353b6028836124b7565b9150613546826134df565b604082019050919050565b6000602082019050818103600083015261356a8161352e565b9050919050565b7f526964652072657175657374206973206e6f742061636365707465642e000000600082015250565b60006135a7601d836124b7565b91506135b282613571565b602082019050919050565b600060208201905081810360008301526135d68161359a565b9050919050565b7f526964652072657175657374206973206e6f7420636f6e6669726d65642e0000600082015250565b6000613613601e836124b7565b915061361e826135dd565b602082019050919050565b6000602082019050818103600083015261364281613606565b9050919050565b7f4f6e6c7920746865206472697665722063616e20636f6d706c6574652074686560008201527f20726964652e0000000000000000000000000000000000000000000000000000602082015250565b60006136a56026836124b7565b91506136b082613649565b604082019050919050565b600060208201905081810360008301526136d481613698565b905091905056fea2646970667358221220e495a4ee05c024c7a56ce1bb6f6f9146e6437058d945f857f777ea7dd45cb2d964736f6c63430008180033",
          "opcodes": "PUSH1 0x80 PUSH1 0x40 MSTORE CALLVALUE DUP1 ISZERO PUSH3 0x11 JUMPI PUSH1 0x0 DUP1 REVERT JUMPDEST POP PUSH1 0x40 MLOAD PUSH3 0x383B CODESIZE SUB DUP1 PUSH3 0x383B DUP4 CODECOPY DUP2 DUP2 ADD PUSH1 0x40 MSTORE DUP2 ADD SWAP1 PUSH3 0x37 SWAP2 SWAP1 PUSH3 0xE8 JUMP JUMPDEST DUP1 PUSH1 0x0 DUP1 PUSH2 0x100 EXP DUP2 SLOAD DUP2 PUSH20 0xFFFFFFFFFFFFFFFFFFFFFFFFFFFFFFFFFFFFFFFF MUL NOT AND SWAP1 DUP4 PUSH20 0xFFFFFFFFFFFFFFFFFFFFFFFFFFFFFFFFFFFFFFFF AND MUL OR SWAP1 SSTORE POP POP PUSH3 0x11A JUMP JUMPDEST PUSH1 0x0 DUP1 REVERT JUMPDEST PUSH1 0x0 PUSH20 0xFFFFFFFFFFFFFFFFFFFFFFFFFFFFFFFFFFFFFFFF DUP3 AND SWAP1 POP SWAP2 SWAP1 POP JUMP JUMPDEST PUSH1 0x0 PUSH3 0xB0 DUP3 PUSH3 0x83 JUMP JUMPDEST SWAP1 POP SWAP2 SWAP1 POP JUMP JUMPDEST PUSH3 0xC2 DUP2 PUSH3 0xA3 JUMP JUMPDEST DUP2 EQ PUSH3 0xCE JUMPI PUSH1 0x0 DUP1 REVERT JUMPDEST POP JUMP JUMPDEST PUSH1 0x0 DUP2 MLOAD SWAP1 POP PUSH3 0xE2 DUP2 PUSH3 0xB7 JUMP JUMPDEST SWAP3 SWAP2 POP POP JUMP JUMPDEST PUSH1 0x0 PUSH1 0x20 DUP3 DUP5 SUB SLT ISZERO PUSH3 0x101 JUMPI PUSH3 0x100 PUSH3 0x7E JUMP JUMPDEST JUMPDEST PUSH1 0x0 PUSH3 0x111 DUP5 DUP3 DUP6 ADD PUSH3 0xD1 JUMP JUMPDEST SWAP2 POP POP SWAP3 SWAP2 POP POP JUMP JUMPDEST PUSH2 0x3711 DUP1 PUSH3 0x12A PUSH1 0x0 CODECOPY PUSH1 0x0 RETURN INVALID PUSH1 0x80 PUSH1 0x40 MSTORE CALLVALUE DUP1 ISZERO PUSH2 0x10 JUMPI PUSH1 0x0 DUP1 REVERT JUMPDEST POP PUSH1 0x4 CALLDATASIZE LT PUSH2 0x9E JUMPI PUSH1 0x0 CALLDATALOAD PUSH1 0xE0 SHR DUP1 PUSH4 0xADE6359C GT PUSH2 0x66 JUMPI DUP1 PUSH4 0xADE6359C EQ PUSH2 0x14C JUMPI DUP1 PUSH4 0xB08AE970 EQ PUSH2 0x168 JUMPI DUP1 PUSH4 0xC2D8B28F EQ PUSH2 0x172 JUMPI DUP1 PUSH4 0xE99D18E4 EQ PUSH2 0x1AB JUMPI DUP1 PUSH4 0xFC0C546A EQ PUSH2 0x1C7 JUMPI PUSH2 0x9E JUMP JUMPDEST DUP1 PUSH4 0xE0C7AA2 EQ PUSH2 0xA3 JUMPI DUP1 PUSH4 0x1F892445 EQ PUSH2 0xBF JUMPI DUP1 PUSH4 0x9547B4EA EQ PUSH2 0xF6 JUMPI DUP1 PUSH4 0x9A0EB968 EQ PUSH2 0x112 JUMPI DUP1 PUSH4 0x9A45058A EQ PUSH2 0x11C JUMPI JUMPDEST PUSH1 0x0 DUP1 REVERT JUMPDEST PUSH2 0xBD PUSH1 0x4 DUP1 CALLDATASIZE SUB DUP2 ADD SWAP1 PUSH2 0xB8 SWAP2 SWAP1 PUSH2 0x23F1 JUMP JUMPDEST PUSH2 0x1E5 JUMP JUMPDEST STOP JUMPDEST PUSH2 0xD9 PUSH1 0x4 DUP1 CALLDATASIZE SUB DUP2 ADD SWAP1 PUSH2 0xD4 SWAP2 SWAP1 PUSH2 0x244D JUMP JUMPDEST PUSH2 0x520 JUMP JUMPDEST PUSH1 0x40 MLOAD PUSH2 0xED SWAP9 SWAP8 SWAP7 SWAP6 SWAP5 SWAP4 SWAP3 SWAP2 SWAP1 PUSH2 0x2555 JUMP JUMPDEST PUSH1 0x40 MLOAD DUP1 SWAP2 SUB SWAP1 RETURN JUMPDEST PUSH2 0x110 PUSH1 0x4 DUP1 CALLDATASIZE SUB DUP2 ADD SWAP1 PUSH2 0x10B SWAP2 SWAP1 PUSH2 0x25E1 JUMP JUMPDEST PUSH2 0x8AC JUMP JUMPDEST STOP JUMPDEST PUSH2 0x11A PUSH2 0xE37 JUMP JUMPDEST STOP JUMPDEST PUSH2 0x136 PUSH1 0x4 DUP1 CALLDATASIZE SUB DUP2 ADD SWAP1 PUSH2 0x131 SWAP2 SWAP1 PUSH2 0x244D JUMP JUMPDEST PUSH2 0x1150 JUMP JUMPDEST PUSH1 0x40 MLOAD PUSH2 0x143 SWAP2 SWAP1 PUSH2 0x270E JUMP JUMPDEST PUSH1 0x40 MLOAD DUP1 SWAP2 SUB SWAP1 RETURN JUMPDEST PUSH2 0x166 PUSH1 0x4 DUP1 CALLDATASIZE SUB DUP2 ADD SWAP1 PUSH2 0x161 SWAP2 SWAP1 PUSH2 0x2811 JUMP JUMPDEST PUSH2 0x149A JUMP JUMPDEST STOP JUMPDEST PUSH2 0x170 PUSH2 0x1941 JUMP JUMPDEST STOP JUMPDEST PUSH2 0x18C PUSH1 0x4 DUP1 CALLDATASIZE SUB DUP2 ADD SWAP1 PUSH2 0x187 SWAP2 SWAP1 PUSH2 0x244D JUMP JUMPDEST PUSH2 0x1CF1 JUMP JUMPDEST PUSH1 0x40 MLOAD PUSH2 0x1A2 SWAP11 SWAP10 SWAP9 SWAP8 SWAP7 SWAP6 SWAP5 SWAP4 SWAP3 SWAP2 SWAP1 PUSH2 0x289C JUMP JUMPDEST PUSH1 0x40 MLOAD DUP1 SWAP2 SUB SWAP1 RETURN JUMPDEST PUSH2 0x1C5 PUSH1 0x4 DUP1 CALLDATASIZE SUB DUP2 ADD SWAP1 PUSH2 0x1C0 SWAP2 SWAP1 PUSH2 0x244D JUMP JUMPDEST PUSH2 0x1EDD JUMP JUMPDEST STOP JUMPDEST PUSH2 0x1CF PUSH2 0x20CF JUMP JUMPDEST PUSH1 0x40 MLOAD PUSH2 0x1DC SWAP2 SWAP1 PUSH2 0x29A5 JUMP JUMPDEST PUSH1 0x40 MLOAD DUP1 SWAP2 SUB SWAP1 RETURN JUMPDEST PUSH1 0x0 PUSH1 0x1 PUSH1 0x0 DUP5 PUSH20 0xFFFFFFFFFFFFFFFFFFFFFFFFFFFFFFFFFFFFFFFF AND PUSH20 0xFFFFFFFFFFFFFFFFFFFFFFFFFFFFFFFFFFFFFFFF AND DUP2 MSTORE PUSH1 0x20 ADD SWAP1 DUP2 MSTORE PUSH1 0x20 ADD PUSH1 0x0 KECCAK256 SWAP1 POP CALLER PUSH20 0xFFFFFFFFFFFFFFFFFFFFFFFFFFFFFFFFFFFFFFFF AND DUP2 PUSH1 0x5 ADD PUSH1 0x2 SWAP1 SLOAD SWAP1 PUSH2 0x100 EXP SWAP1 DIV PUSH20 0xFFFFFFFFFFFFFFFFFFFFFFFFFFFFFFFFFFFFFFFF AND PUSH20 0xFFFFFFFFFFFFFFFFFFFFFFFFFFFFFFFFFFFFFFFF AND EQ PUSH2 0x2BA JUMPI PUSH1 0x40 MLOAD PUSH32 0x8C379A000000000000000000000000000000000000000000000000000000000 DUP2 MSTORE PUSH1 0x4 ADD PUSH2 0x2B1 SWAP1 PUSH2 0x2A32 JUMP JUMPDEST PUSH1 0x40 MLOAD DUP1 SWAP2 SUB SWAP1 REVERT JUMPDEST DUP1 PUSH1 0x5 ADD PUSH1 0x17 SWAP1 SLOAD SWAP1 PUSH2 0x100 EXP SWAP1 DIV PUSH1 0xFF AND PUSH2 0x30B JUMPI PUSH1 0x40 MLOAD PUSH32 0x8C379A000000000000000000000000000000000000000000000000000000000 DUP2 MSTORE PUSH1 0x4 ADD PUSH2 0x302 SWAP1 PUSH2 0x2AC4 JUMP JUMPDEST PUSH1 0x40 MLOAD DUP1 SWAP2 SUB SWAP1 REVERT JUMPDEST PUSH1 0x0 JUMPDEST DUP3 MLOAD DUP2 LT ISZERO PUSH2 0x382 JUMPI DUP2 PUSH1 0x6 ADD DUP4 DUP3 DUP2 MLOAD DUP2 LT PUSH2 0x32E JUMPI PUSH2 0x32D PUSH2 0x2AE4 JUMP JUMPDEST JUMPDEST PUSH1 0x20 MUL PUSH1 0x20 ADD ADD MLOAD SWAP1 DUP1 PUSH1 0x1 DUP2 SLOAD ADD DUP1 DUP3 SSTORE DUP1 SWAP2 POP POP PUSH1 0x1 SWAP1 SUB SWAP1 PUSH1 0x0 MSTORE PUSH1 0x20 PUSH1 0x0 KECCAK256 SWAP1 PUSH1 0x2 MUL ADD PUSH1 0x0 SWAP1 SWAP2 SWAP1 SWAP2 SWAP1 SWAP2 POP PUSH1 0x0 DUP3 ADD MLOAD DUP2 PUSH1 0x0 ADD SSTORE PUSH1 0x20 DUP3 ADD MLOAD DUP2 PUSH1 0x1 ADD SSTORE POP POP DUP1 DUP1 PUSH1 0x1 ADD SWAP2 POP POP PUSH2 0x30E JUMP JUMPDEST POP PUSH1 0x1 PUSH1 0x0 DUP5 PUSH20 0xFFFFFFFFFFFFFFFFFFFFFFFFFFFFFFFFFFFFFFFF AND PUSH20 0xFFFFFFFFFFFFFFFFFFFFFFFFFFFFFFFFFFFFFFFF AND DUP2 MSTORE PUSH1 0x20 ADD SWAP1 DUP2 MSTORE PUSH1 0x20 ADD PUSH1 0x0 KECCAK256 PUSH1 0x0 DUP1 DUP3 ADD PUSH1 0x0 PUSH2 0x100 EXP DUP2 SLOAD SWAP1 PUSH20 0xFFFFFFFFFFFFFFFFFFFFFFFFFFFFFFFFFFFFFFFF MUL NOT AND SWAP1 SSTORE PUSH1 0x1 DUP3 ADD PUSH1 0x0 SWAP1 SSTORE PUSH1 0x2 DUP3 ADD PUSH1 0x0 PUSH2 0x100 EXP DUP2 SLOAD SWAP1 PUSH8 0xFFFFFFFFFFFFFFFF MUL NOT AND SWAP1 SSTORE PUSH1 0x3 DUP3 ADD PUSH1 0x0 PUSH2 0x41D SWAP2 SWAP1 PUSH2 0x20F3 JUMP JUMPDEST PUSH1 0x4 DUP3 ADD PUSH1 0x0 PUSH2 0x42D SWAP2 SWAP1 PUSH2 0x20F3 JUMP JUMPDEST PUSH1 0x5 DUP3 ADD PUSH1 0x0 PUSH2 0x100 EXP DUP2 SLOAD SWAP1 PUSH1 0xFF MUL NOT AND SWAP1 SSTORE PUSH1 0x5 DUP3 ADD PUSH1 0x1 PUSH2 0x100 EXP DUP2 SLOAD SWAP1 PUSH1 0xFF MUL NOT AND SWAP1 SSTORE PUSH1 0x5 DUP3 ADD PUSH1 0x2 PUSH2 0x100 EXP DUP2 SLOAD SWAP1 PUSH20 0xFFFFFFFFFFFFFFFFFFFFFFFFFFFFFFFFFFFFFFFF MUL NOT AND SWAP1 SSTORE PUSH1 0x5 DUP3 ADD PUSH1 0x16 PUSH2 0x100 EXP DUP2 SLOAD SWAP1 PUSH1 0xFF MUL NOT AND SWAP1 SSTORE PUSH1 0x5 DUP3 ADD PUSH1 0x17 PUSH2 0x100 EXP DUP2 SLOAD SWAP1 PUSH1 0xFF MUL NOT AND SWAP1 SSTORE PUSH1 0x6 DUP3 ADD PUSH1 0x0 PUSH2 0x4B4 SWAP2 SWAP1 PUSH2 0x2133 JUMP JUMPDEST POP POP DUP3 PUSH20 0xFFFFFFFFFFFFFFFFFFFFFFFFFFFFFFFFFFFFFFFF AND CALLER PUSH20 0xFFFFFFFFFFFFFFFFFFFFFFFFFFFFFFFFFFFFFFFF AND PUSH32 0x4F1843614DB1D3CFC53F3D01FA1FDC40B6C7DEFC63B3F57AA0A68AEDB41678E7 DUP5 PUSH1 0x40 MLOAD PUSH2 0x513 SWAP2 SWAP1 PUSH2 0x270E JUMP JUMPDEST PUSH1 0x40 MLOAD DUP1 SWAP2 SUB SWAP1 LOG3 POP POP POP JUMP JUMPDEST PUSH1 0x0 DUP1 PUSH1 0x60 DUP1 PUSH1 0x0 DUP1 PUSH1 0x0 DUP1 PUSH1 0x0 PUSH1 0x1 PUSH1 0x0 DUP12 PUSH20 0xFFFFFFFFFFFFFFFFFFFFFFFFFFFFFFFFFFFFFFFF AND PUSH20 0xFFFFFFFFFFFFFFFFFFFFFFFFFFFFFFFFFFFFFFFF AND DUP2 MSTORE PUSH1 0x20 ADD SWAP1 DUP2 MSTORE PUSH1 0x20 ADD PUSH1 0x0 KECCAK256 PUSH1 0x40 MLOAD DUP1 PUSH2 0x160 ADD PUSH1 0x40 MSTORE SWAP1 DUP2 PUSH1 0x0 DUP3 ADD PUSH1 0x0 SWAP1 SLOAD SWAP1 PUSH2 0x100 EXP SWAP1 DIV PUSH20 0xFFFFFFFFFFFFFFFFFFFFFFFFFFFFFFFFFFFFFFFF AND PUSH20 0xFFFFFFFFFFFFFFFFFFFFFFFFFFFFFFFFFFFFFFFF AND PUSH20 0xFFFFFFFFFFFFFFFFFFFFFFFFFFFFFFFFFFFFFFFF AND DUP2 MSTORE PUSH1 0x20 ADD PUSH1 0x1 DUP3 ADD SLOAD DUP2 MSTORE PUSH1 0x20 ADD PUSH1 0x2 DUP3 ADD PUSH1 0x0 SWAP1 SLOAD SWAP1 PUSH2 0x100 EXP SWAP1 DIV PUSH8 0xFFFFFFFFFFFFFFFF AND PUSH8 0xFFFFFFFFFFFFFFFF AND PUSH8 0xFFFFFFFFFFFFFFFF AND DUP2 MSTORE PUSH1 0x20 ADD PUSH1 0x3 DUP3 ADD DUP1 SLOAD PUSH2 0x61B SWAP1 PUSH2 0x2B42 JUMP JUMPDEST DUP1 PUSH1 0x1F ADD PUSH1 0x20 DUP1 SWAP2 DIV MUL PUSH1 0x20 ADD PUSH1 0x40 MLOAD SWAP1 DUP2 ADD PUSH1 0x40 MSTORE DUP1 SWAP3 SWAP2 SWAP1 DUP2 DUP2 MSTORE PUSH1 0x20 ADD DUP3 DUP1 SLOAD PUSH2 0x647 SWAP1 PUSH2 0x2B42 JUMP JUMPDEST DUP1 ISZERO PUSH2 0x694 JUMPI DUP1 PUSH1 0x1F LT PUSH2 0x669 JUMPI PUSH2 0x100 DUP1 DUP4 SLOAD DIV MUL DUP4 MSTORE SWAP2 PUSH1 0x20 ADD SWAP2 PUSH2 0x694 JUMP JUMPDEST DUP3 ADD SWAP2 SWAP1 PUSH1 0x0 MSTORE PUSH1 0x20 PUSH1 0x0 KECCAK256 SWAP1 JUMPDEST DUP2 SLOAD DUP2 MSTORE SWAP1 PUSH1 0x1 ADD SWAP1 PUSH1 0x20 ADD DUP1 DUP4 GT PUSH2 0x677 JUMPI DUP3 SWAP1 SUB PUSH1 0x1F AND DUP3 ADD SWAP2 JUMPDEST POP POP POP POP POP DUP2 MSTORE PUSH1 0x20 ADD PUSH1 0x4 DUP3 ADD DUP1 SLOAD PUSH2 0x6AD SWAP1 PUSH2 0x2B42 JUMP JUMPDEST DUP1 PUSH1 0x1F ADD PUSH1 0x20 DUP1 SWAP2 DIV MUL PUSH1 0x20 ADD PUSH1 0x40 MLOAD SWAP1 DUP2 ADD PUSH1 0x40 MSTORE DUP1 SWAP3 SWAP2 SWAP1 DUP2 DUP2 MSTORE PUSH1 0x20 ADD DUP3 DUP1 SLOAD PUSH2 0x6D9 SWAP1 PUSH2 0x2B42 JUMP JUMPDEST DUP1 ISZERO PUSH2 0x726 JUMPI DUP1 PUSH1 0x1F LT PUSH2 0x6FB JUMPI PUSH2 0x100 DUP1 DUP4 SLOAD DIV MUL DUP4 MSTORE SWAP2 PUSH1 0x20 ADD SWAP2 PUSH2 0x726 JUMP JUMPDEST DUP3 ADD SWAP2 SWAP1 PUSH1 0x0 MSTORE PUSH1 0x20 PUSH1 0x0 KECCAK256 SWAP1 JUMPDEST DUP2 SLOAD DUP2 MSTORE SWAP1 PUSH1 0x1 ADD SWAP1 PUSH1 0x20 ADD DUP1 DUP4 GT PUSH2 0x709 JUMPI DUP3 SWAP1 SUB PUSH1 0x1F AND DUP3 ADD SWAP2 JUMPDEST POP POP POP POP POP DUP2 MSTORE PUSH1 0x20 ADD PUSH1 0x5 DUP3 ADD PUSH1 0x0 SWAP1 SLOAD SWAP1 PUSH2 0x100 EXP SWAP1 DIV PUSH1 0xFF AND ISZERO ISZERO ISZERO ISZERO DUP2 MSTORE PUSH1 0x20 ADD PUSH1 0x5 DUP3 ADD PUSH1 0x1 SWAP1 SLOAD SWAP1 PUSH2 0x100 EXP SWAP1 DIV PUSH1 0xFF AND ISZERO ISZERO ISZERO ISZERO DUP2 MSTORE PUSH1 0x20 ADD PUSH1 0x5 DUP3 ADD PUSH1 0x2 SWAP1 SLOAD SWAP1 PUSH2 0x100 EXP SWAP1 DIV PUSH20 0xFFFFFFFFFFFFFFFFFFFFFFFFFFFFFFFFFFFFFFFF AND PUSH20 0xFFFFFFFFFFFFFFFFFFFFFFFFFFFFFFFFFFFFFFFF AND PUSH20 0xFFFFFFFFFFFFFFFFFFFFFFFFFFFFFFFFFFFFFFFF AND DUP2 MSTORE PUSH1 0x20 ADD PUSH1 0x5 DUP3 ADD PUSH1 0x16 SWAP1 SLOAD SWAP1 PUSH2 0x100 EXP SWAP1 DIV PUSH1 0xFF AND ISZERO ISZERO ISZERO ISZERO DUP2 MSTORE PUSH1 0x20 ADD PUSH1 0x5 DUP3 ADD PUSH1 0x17 SWAP1 SLOAD SWAP1 PUSH2 0x100 EXP SWAP1 DIV PUSH1 0xFF AND ISZERO ISZERO ISZERO ISZERO DUP2 MSTORE PUSH1 0x20 ADD PUSH1 0x6 DUP3 ADD DUP1 SLOAD DUP1 PUSH1 0x20 MUL PUSH1 0x20 ADD PUSH1 0x40 MLOAD SWAP1 DUP2 ADD PUSH1 0x40 MSTORE DUP1 SWAP3 SWAP2 SWAP1 DUP2 DUP2 MSTORE PUSH1 0x20 ADD PUSH1 0x0 SWAP1 JUMPDEST DUP3 DUP3 LT ISZERO PUSH2 0x85C JUMPI DUP4 DUP3 SWAP1 PUSH1 0x0 MSTORE PUSH1 0x20 PUSH1 0x0 KECCAK256 SWAP1 PUSH1 0x2 MUL ADD PUSH1 0x40 MLOAD DUP1 PUSH1 0x40 ADD PUSH1 0x40 MSTORE SWAP1 DUP2 PUSH1 0x0 DUP3 ADD SLOAD DUP2 MSTORE PUSH1 0x20 ADD PUSH1 0x1 DUP3 ADD SLOAD DUP2 MSTORE POP POP DUP2 MSTORE PUSH1 0x20 ADD SWAP1 PUSH1 0x1 ADD SWAP1 PUSH2 0x816 JUMP JUMPDEST POP POP POP POP DUP2 MSTORE POP POP SWAP1 POP DUP1 PUSH1 0x20 ADD MLOAD DUP2 PUSH1 0x40 ADD MLOAD DUP3 PUSH1 0x60 ADD MLOAD DUP4 PUSH1 0x80 ADD MLOAD DUP5 PUSH1 0xA0 ADD MLOAD DUP6 PUSH1 0xE0 ADD MLOAD DUP7 PUSH2 0x100 ADD MLOAD DUP8 PUSH2 0x120 ADD MLOAD SWAP9 POP SWAP9 POP SWAP9 POP SWAP9 POP SWAP9 POP SWAP9 POP SWAP9 POP SWAP9 POP POP SWAP2 SWAP4 SWAP6 SWAP8 POP SWAP2 SWAP4 SWAP6 SWAP8 JUMP JUMPDEST DUP2 PUSH20 0xFFFFFFFFFFFFFFFFFFFFFFFFFFFFFFFFFFFFFFFF AND PUSH1 0x1 PUSH1 0x0 DUP5 PUSH20 0xFFFFFFFFFFFFFFFFFFFFFFFFFFFFFFFFFFFFFFFF AND PUSH20 0xFFFFFFFFFFFFFFFFFFFFFFFFFFFFFFFFFFFFFFFF AND DUP2 MSTORE PUSH1 0x20 ADD SWAP1 DUP2 MSTORE PUSH1 0x20 ADD PUSH1 0x0 KECCAK256 PUSH1 0x0 ADD PUSH1 0x0 SWAP1 SLOAD SWAP1 PUSH2 0x100 EXP SWAP1 DIV PUSH20 0xFFFFFFFFFFFFFFFFFFFFFFFFFFFFFFFFFFFFFFFF AND PUSH20 0xFFFFFFFFFFFFFFFFFFFFFFFFFFFFFFFFFFFFFFFF AND EQ PUSH2 0x97C JUMPI PUSH1 0x40 MLOAD PUSH32 0x8C379A000000000000000000000000000000000000000000000000000000000 DUP2 MSTORE PUSH1 0x4 ADD PUSH2 0x973 SWAP1 PUSH2 0x2BBF JUMP JUMPDEST PUSH1 0x40 MLOAD DUP1 SWAP2 SUB SWAP1 REVERT JUMPDEST PUSH1 0x1 PUSH1 0x0 DUP4 PUSH20 0xFFFFFFFFFFFFFFFFFFFFFFFFFFFFFFFFFFFFFFFF AND PUSH20 0xFFFFFFFFFFFFFFFFFFFFFFFFFFFFFFFFFFFFFFFF AND DUP2 MSTORE PUSH1 0x20 ADD SWAP1 DUP2 MSTORE PUSH1 0x20 ADD PUSH1 0x0 KECCAK256 PUSH1 0x5 ADD PUSH1 0x0 SWAP1 SLOAD SWAP1 PUSH2 0x100 EXP SWAP1 DIV PUSH1 0xFF AND ISZERO PUSH2 0xA0C JUMPI PUSH1 0x40 MLOAD PUSH32 0x8C379A000000000000000000000000000000000000000000000000000000000 DUP2 MSTORE PUSH1 0x4 ADD PUSH2 0xA03 SWAP1 PUSH2 0x2C51 JUMP JUMPDEST PUSH1 0x40 MLOAD DUP1 SWAP2 SUB SWAP1 REVERT JUMPDEST PUSH1 0x0 DUP1 PUSH1 0x0 SWAP1 SLOAD SWAP1 PUSH2 0x100 EXP SWAP1 DIV PUSH20 0xFFFFFFFFFFFFFFFFFFFFFFFFFFFFFFFFFFFFFFFF AND PUSH20 0xFFFFFFFFFFFFFFFFFFFFFFFFFFFFFFFFFFFFFFFF AND PUSH4 0xDD62ED3E CALLER ADDRESS PUSH1 0x40 MLOAD DUP4 PUSH4 0xFFFFFFFF AND PUSH1 0xE0 SHL DUP2 MSTORE PUSH1 0x4 ADD PUSH2 0xA6A SWAP3 SWAP2 SWAP1 PUSH2 0x2C71 JUMP JUMPDEST PUSH1 0x20 PUSH1 0x40 MLOAD DUP1 DUP4 SUB DUP2 DUP7 GAS STATICCALL ISZERO DUP1 ISZERO PUSH2 0xA87 JUMPI RETURNDATASIZE PUSH1 0x0 DUP1 RETURNDATACOPY RETURNDATASIZE PUSH1 0x0 REVERT JUMPDEST POP POP POP POP PUSH1 0x40 MLOAD RETURNDATASIZE PUSH1 0x1F NOT PUSH1 0x1F DUP3 ADD AND DUP3 ADD DUP1 PUSH1 0x40 MSTORE POP DUP2 ADD SWAP1 PUSH2 0xAAB SWAP2 SWAP1 PUSH2 0x2CAF JUMP JUMPDEST SWAP1 POP DUP2 DUP2 LT ISZERO PUSH2 0xAF0 JUMPI PUSH1 0x40 MLOAD PUSH32 0x8C379A000000000000000000000000000000000000000000000000000000000 DUP2 MSTORE PUSH1 0x4 ADD PUSH2 0xAE7 SWAP1 PUSH2 0x2D28 JUMP JUMPDEST PUSH1 0x40 MLOAD DUP1 SWAP2 SUB SWAP1 REVERT JUMPDEST DUP2 PUSH1 0x0 DUP1 SLOAD SWAP1 PUSH2 0x100 EXP SWAP1 DIV PUSH20 0xFFFFFFFFFFFFFFFFFFFFFFFFFFFFFFFFFFFFFFFF AND PUSH20 0xFFFFFFFFFFFFFFFFFFFFFFFFFFFFFFFFFFFFFFFF AND PUSH4 0x70A08231 CALLER PUSH1 0x40 MLOAD DUP3 PUSH4 0xFFFFFFFF AND PUSH1 0xE0 SHL DUP2 MSTORE PUSH1 0x4 ADD PUSH2 0xB4A SWAP2 SWAP1 PUSH2 0x2D48 JUMP JUMPDEST PUSH1 0x20 PUSH1 0x40 MLOAD DUP1 DUP4 SUB DUP2 DUP7 GAS STATICCALL ISZERO DUP1 ISZERO PUSH2 0xB67 JUMPI RETURNDATASIZE PUSH1 0x0 DUP1 RETURNDATACOPY RETURNDATASIZE PUSH1 0x0 REVERT JUMPDEST POP POP POP POP PUSH1 0x40 MLOAD RETURNDATASIZE PUSH1 0x1F NOT PUSH1 0x1F DUP3 ADD AND DUP3 ADD DUP1 PUSH1 0x40 MSTORE POP DUP2 ADD SWAP1 PUSH2 0xB8B SWAP2 SWAP1 PUSH2 0x2CAF JUMP JUMPDEST LT ISZERO PUSH2 0xBCC JUMPI PUSH1 0x40 MLOAD PUSH32 0x8C379A000000000000000000000000000000000000000000000000000000000 DUP2 MSTORE PUSH1 0x4 ADD PUSH2 0xBC3 SWAP1 PUSH2 0x2DAF JUMP JUMPDEST PUSH1 0x40 MLOAD DUP1 SWAP2 SUB SWAP1 REVERT JUMPDEST PUSH1 0x0 DUP1 SLOAD SWAP1 PUSH2 0x100 EXP SWAP1 DIV PUSH20 0xFFFFFFFFFFFFFFFFFFFFFFFFFFFFFFFFFFFFFFFF AND PUSH20 0xFFFFFFFFFFFFFFFFFFFFFFFFFFFFFFFFFFFFFFFF AND PUSH4 0x23B872DD CALLER ADDRESS DUP6 PUSH1 0x40 MLOAD DUP5 PUSH4 0xFFFFFFFF AND PUSH1 0xE0 SHL DUP2 MSTORE PUSH1 0x4 ADD PUSH2 0xC29 SWAP4 SWAP3 SWAP2 SWAP1 PUSH2 0x2DCF JUMP JUMPDEST PUSH1 0x20 PUSH1 0x40 MLOAD DUP1 DUP4 SUB DUP2 PUSH1 0x0 DUP8 GAS CALL ISZERO DUP1 ISZERO PUSH2 0xC48 JUMPI RETURNDATASIZE PUSH1 0x0 DUP1 RETURNDATACOPY RETURNDATASIZE PUSH1 0x0 REVERT JUMPDEST POP POP POP POP PUSH1 0x40 MLOAD RETURNDATASIZE PUSH1 0x1F NOT PUSH1 0x1F DUP3 ADD AND DUP3 ADD DUP1 PUSH1 0x40 MSTORE POP DUP2 ADD SWAP1 PUSH2 0xC6C SWAP2 SWAP1 PUSH2 0x2E32 JUMP JUMPDEST PUSH2 0xCAB JUMPI PUSH1 0x40 MLOAD PUSH32 0x8C379A000000000000000000000000000000000000000000000000000000000 DUP2 MSTORE PUSH1 0x4 ADD PUSH2 0xCA2 SWAP1 PUSH2 0x2EAB JUMP JUMPDEST PUSH1 0x40 MLOAD DUP1 SWAP2 SUB SWAP1 REVERT JUMPDEST DUP2 PUSH1 0x1 PUSH1 0x0 DUP6 PUSH20 0xFFFFFFFFFFFFFFFFFFFFFFFFFFFFFFFFFFFFFFFF AND PUSH20 0xFFFFFFFFFFFFFFFFFFFFFFFFFFFFFFFFFFFFFFFF AND DUP2 MSTORE PUSH1 0x20 ADD SWAP1 DUP2 MSTORE PUSH1 0x20 ADD PUSH1 0x0 KECCAK256 PUSH1 0x1 ADD DUP2 SWAP1 SSTORE POP PUSH1 0x1 DUP1 PUSH1 0x0 DUP6 PUSH20 0xFFFFFFFFFFFFFFFFFFFFFFFFFFFFFFFFFFFFFFFF AND PUSH20 0xFFFFFFFFFFFFFFFFFFFFFFFFFFFFFFFFFFFFFFFF AND DUP2 MSTORE PUSH1 0x20 ADD SWAP1 DUP2 MSTORE PUSH1 0x20 ADD PUSH1 0x0 KECCAK256 PUSH1 0x5 ADD PUSH1 0x0 PUSH2 0x100 EXP DUP2 SLOAD DUP2 PUSH1 0xFF MUL NOT AND SWAP1 DUP4 ISZERO ISZERO MUL OR SWAP1 SSTORE POP CALLER PUSH1 0x1 PUSH1 0x0 DUP6 PUSH20 0xFFFFFFFFFFFFFFFFFFFFFFFFFFFFFFFFFFFFFFFF AND PUSH20 0xFFFFFFFFFFFFFFFFFFFFFFFFFFFFFFFFFFFFFFFF AND DUP2 MSTORE PUSH1 0x20 ADD SWAP1 DUP2 MSTORE PUSH1 0x20 ADD PUSH1 0x0 KECCAK256 PUSH1 0x5 ADD PUSH1 0x2 PUSH2 0x100 EXP DUP2 SLOAD DUP2 PUSH20 0xFFFFFFFFFFFFFFFFFFFFFFFFFFFFFFFFFFFFFFFF MUL NOT AND SWAP1 DUP4 PUSH20 0xFFFFFFFFFFFFFFFFFFFFFFFFFFFFFFFFFFFFFFFF AND MUL OR SWAP1 SSTORE POP CALLER PUSH20 0xFFFFFFFFFFFFFFFFFFFFFFFFFFFFFFFFFFFFFFFF AND DUP4 PUSH20 0xFFFFFFFFFFFFFFFFFFFFFFFFFFFFFFFFFFFFFFFF AND PUSH32 0x9EDAE0AE38AFBD7159145BF329E42869146FCA525AE3069D6A7AA9F17FD06C34 DUP5 PUSH1 0x40 MLOAD PUSH2 0xE2A SWAP2 SWAP1 PUSH2 0x2ECB JUMP JUMPDEST PUSH1 0x40 MLOAD DUP1 SWAP2 SUB SWAP1 LOG3 POP POP POP JUMP JUMPDEST PUSH1 0x0 PUSH1 0x1 PUSH1 0x0 CALLER PUSH20 0xFFFFFFFFFFFFFFFFFFFFFFFFFFFFFFFFFFFFFFFF AND PUSH20 0xFFFFFFFFFFFFFFFFFFFFFFFFFFFFFFFFFFFFFFFF AND DUP2 MSTORE PUSH1 0x20 ADD SWAP1 DUP2 MSTORE PUSH1 0x20 ADD PUSH1 0x0 KECCAK256 SWAP1 POP CALLER PUSH20 0xFFFFFFFFFFFFFFFFFFFFFFFFFFFFFFFFFFFFFFFF AND DUP2 PUSH1 0x0 ADD PUSH1 0x0 SWAP1 SLOAD SWAP1 PUSH2 0x100 EXP SWAP1 DIV PUSH20 0xFFFFFFFFFFFFFFFFFFFFFFFFFFFFFFFFFFFFFFFF AND PUSH20 0xFFFFFFFFFFFFFFFFFFFFFFFFFFFFFFFFFFFFFFFF AND EQ PUSH2 0xF0C JUMPI PUSH1 0x40 MLOAD PUSH32 0x8C379A000000000000000000000000000000000000000000000000000000000 DUP2 MSTORE PUSH1 0x4 ADD PUSH2 0xF03 SWAP1 PUSH2 0x2F58 JUMP JUMPDEST PUSH1 0x40 MLOAD DUP1 SWAP2 SUB SWAP1 REVERT JUMPDEST DUP1 PUSH1 0x5 ADD PUSH1 0x16 SWAP1 SLOAD SWAP1 PUSH2 0x100 EXP SWAP1 DIV PUSH1 0xFF AND PUSH2 0xF5D JUMPI PUSH1 0x40 MLOAD PUSH32 0x8C379A000000000000000000000000000000000000000000000000000000000 DUP2 MSTORE PUSH1 0x4 ADD PUSH2 0xF54 SWAP1 PUSH2 0x2FEA JUMP JUMPDEST PUSH1 0x40 MLOAD DUP1 SWAP2 SUB SWAP1 REVERT JUMPDEST DUP1 PUSH1 0x5 ADD PUSH1 0x17 SWAP1 SLOAD SWAP1 PUSH2 0x100 EXP SWAP1 DIV PUSH1 0xFF AND ISZERO PUSH2 0xFAF JUMPI PUSH1 0x40 MLOAD PUSH32 0x8C379A000000000000000000000000000000000000000000000000000000000 DUP2 MSTORE PUSH1 0x4 ADD PUSH2 0xFA6 SWAP1 PUSH2 0x307C JUMP JUMPDEST PUSH1 0x40 MLOAD DUP1 SWAP2 SUB SWAP1 REVERT JUMPDEST PUSH1 0x1 DUP2 PUSH1 0x5 ADD PUSH1 0x17 PUSH2 0x100 EXP DUP2 SLOAD DUP2 PUSH1 0xFF MUL NOT AND SWAP1 DUP4 ISZERO ISZERO MUL OR SWAP1 SSTORE POP PUSH1 0x0 DUP2 PUSH1 0x1 ADD SLOAD SWAP1 POP PUSH1 0x0 DUP3 PUSH1 0x5 ADD PUSH1 0x2 SWAP1 SLOAD SWAP1 PUSH2 0x100 EXP SWAP1 DIV PUSH20 0xFFFFFFFFFFFFFFFFFFFFFFFFFFFFFFFFFFFFFFFF AND SWAP1 POP PUSH1 0x0 DUP1 SLOAD SWAP1 PUSH2 0x100 EXP SWAP1 DIV PUSH20 0xFFFFFFFFFFFFFFFFFFFFFFFFFFFFFFFFFFFFFFFF AND PUSH20 0xFFFFFFFFFFFFFFFFFFFFFFFFFFFFFFFFFFFFFFFF AND PUSH4 0xA9059CBB DUP3 DUP5 DUP6 PUSH2 0x1047 SWAP2 SWAP1 PUSH2 0x30CB JUMP JUMPDEST PUSH1 0x40 MLOAD DUP4 PUSH4 0xFFFFFFFF AND PUSH1 0xE0 SHL DUP2 MSTORE PUSH1 0x4 ADD PUSH2 0x1064 SWAP3 SWAP2 SWAP1 PUSH2 0x30FF JUMP JUMPDEST PUSH1 0x20 PUSH1 0x40 MLOAD DUP1 DUP4 SUB DUP2 PUSH1 0x0 DUP8 GAS CALL ISZERO DUP1 ISZERO PUSH2 0x1083 JUMPI RETURNDATASIZE PUSH1 0x0 DUP1 RETURNDATACOPY RETURNDATASIZE PUSH1 0x0 REVERT JUMPDEST POP POP POP POP PUSH1 0x40 MLOAD RETURNDATASIZE PUSH1 0x1F NOT PUSH1 0x1F DUP3 ADD AND DUP3 ADD DUP1 PUSH1 0x40 MSTORE POP DUP2 ADD SWAP1 PUSH2 0x10A7 SWAP2 SWAP1 PUSH2 0x2E32 JUMP JUMPDEST PUSH2 0x10E6 JUMPI PUSH1 0x40 MLOAD PUSH32 0x8C379A000000000000000000000000000000000000000000000000000000000 DUP2 MSTORE PUSH1 0x4 ADD PUSH2 0x10DD SWAP1 PUSH2 0x3174 JUMP JUMPDEST PUSH1 0x40 MLOAD DUP1 SWAP2 SUB SWAP1 REVERT JUMPDEST DUP1 PUSH20 0xFFFFFFFFFFFFFFFFFFFFFFFFFFFFFFFFFFFFFFFF AND CALLER PUSH20 0xFFFFFFFFFFFFFFFFFFFFFFFFFFFFFFFFFFFFFFFF AND PUSH32 0x7DBB33532B179F60DC70CF4F2386349D2C10448F15BB64A859BA889DAF53817C DUP5 PUSH1 0x40 MLOAD PUSH2 0x1143 SWAP2 SWAP1 PUSH2 0x2ECB JUMP JUMPDEST PUSH1 0x40 MLOAD DUP1 SWAP2 SUB SWAP1 LOG3 POP POP POP JUMP JUMPDEST PUSH1 0x60 PUSH1 0x0 PUSH1 0x1 PUSH1 0x0 DUP5 PUSH20 0xFFFFFFFFFFFFFFFFFFFFFFFFFFFFFFFFFFFFFFFF AND PUSH20 0xFFFFFFFFFFFFFFFFFFFFFFFFFFFFFFFFFFFFFFFF AND DUP2 MSTORE PUSH1 0x20 ADD SWAP1 DUP2 MSTORE PUSH1 0x20 ADD PUSH1 0x0 KECCAK256 PUSH1 0x40 MLOAD DUP1 PUSH2 0x160 ADD PUSH1 0x40 MSTORE SWAP1 DUP2 PUSH1 0x0 DUP3 ADD PUSH1 0x0 SWAP1 SLOAD SWAP1 PUSH2 0x100 EXP SWAP1 DIV PUSH20 0xFFFFFFFFFFFFFFFFFFFFFFFFFFFFFFFFFFFFFFFF AND PUSH20 0xFFFFFFFFFFFFFFFFFFFFFFFFFFFFFFFFFFFFFFFF AND PUSH20 0xFFFFFFFFFFFFFFFFFFFFFFFFFFFFFFFFFFFFFFFF AND DUP2 MSTORE PUSH1 0x20 ADD PUSH1 0x1 DUP3 ADD SLOAD DUP2 MSTORE PUSH1 0x20 ADD PUSH1 0x2 DUP3 ADD PUSH1 0x0 SWAP1 SLOAD SWAP1 PUSH2 0x100 EXP SWAP1 DIV PUSH8 0xFFFFFFFFFFFFFFFF AND PUSH8 0xFFFFFFFFFFFFFFFF AND PUSH8 0xFFFFFFFFFFFFFFFF AND DUP2 MSTORE PUSH1 0x20 ADD PUSH1 0x3 DUP3 ADD DUP1 SLOAD PUSH2 0x1241 SWAP1 PUSH2 0x2B42 JUMP JUMPDEST DUP1 PUSH1 0x1F ADD PUSH1 0x20 DUP1 SWAP2 DIV MUL PUSH1 0x20 ADD PUSH1 0x40 MLOAD SWAP1 DUP2 ADD PUSH1 0x40 MSTORE DUP1 SWAP3 SWAP2 SWAP1 DUP2 DUP2 MSTORE PUSH1 0x20 ADD DUP3 DUP1 SLOAD PUSH2 0x126D SWAP1 PUSH2 0x2B42 JUMP JUMPDEST DUP1 ISZERO PUSH2 0x12BA JUMPI DUP1 PUSH1 0x1F LT PUSH2 0x128F JUMPI PUSH2 0x100 DUP1 DUP4 SLOAD DIV MUL DUP4 MSTORE SWAP2 PUSH1 0x20 ADD SWAP2 PUSH2 0x12BA JUMP JUMPDEST DUP3 ADD SWAP2 SWAP1 PUSH1 0x0 MSTORE PUSH1 0x20 PUSH1 0x0 KECCAK256 SWAP1 JUMPDEST DUP2 SLOAD DUP2 MSTORE SWAP1 PUSH1 0x1 ADD SWAP1 PUSH1 0x20 ADD DUP1 DUP4 GT PUSH2 0x129D JUMPI DUP3 SWAP1 SUB PUSH1 0x1F AND DUP3 ADD SWAP2 JUMPDEST POP POP POP POP POP DUP2 MSTORE PUSH1 0x20 ADD PUSH1 0x4 DUP3 ADD DUP1 SLOAD PUSH2 0x12D3 SWAP1 PUSH2 0x2B42 JUMP JUMPDEST DUP1 PUSH1 0x1F ADD PUSH1 0x20 DUP1 SWAP2 DIV MUL PUSH1 0x20 ADD PUSH1 0x40 MLOAD SWAP1 DUP2 ADD PUSH1 0x40 MSTORE DUP1 SWAP3 SWAP2 SWAP1 DUP2 DUP2 MSTORE PUSH1 0x20 ADD DUP3 DUP1 SLOAD PUSH2 0x12FF SWAP1 PUSH2 0x2B42 JUMP JUMPDEST DUP1 ISZERO PUSH2 0x134C JUMPI DUP1 PUSH1 0x1F LT PUSH2 0x1321 JUMPI PUSH2 0x100 DUP1 DUP4 SLOAD DIV MUL DUP4 MSTORE SWAP2 PUSH1 0x20 ADD SWAP2 PUSH2 0x134C JUMP JUMPDEST DUP3 ADD SWAP2 SWAP1 PUSH1 0x0 MSTORE PUSH1 0x20 PUSH1 0x0 KECCAK256 SWAP1 JUMPDEST DUP2 SLOAD DUP2 MSTORE SWAP1 PUSH1 0x1 ADD SWAP1 PUSH1 0x20 ADD DUP1 DUP4 GT PUSH2 0x132F JUMPI DUP3 SWAP1 SUB PUSH1 0x1F AND DUP3 ADD SWAP2 JUMPDEST POP POP POP POP POP DUP2 MSTORE PUSH1 0x20 ADD PUSH1 0x5 DUP3 ADD PUSH1 0x0 SWAP1 SLOAD SWAP1 PUSH2 0x100 EXP SWAP1 DIV PUSH1 0xFF AND ISZERO ISZERO ISZERO ISZERO DUP2 MSTORE PUSH1 0x20 ADD PUSH1 0x5 DUP3 ADD PUSH1 0x1 SWAP1 SLOAD SWAP1 PUSH2 0x100 EXP SWAP1 DIV PUSH1 0xFF AND ISZERO ISZERO ISZERO ISZERO DUP2 MSTORE PUSH1 0x20 ADD PUSH1 0x5 DUP3 ADD PUSH1 0x2 SWAP1 SLOAD SWAP1 PUSH2 0x100 EXP SWAP1 DIV PUSH20 0xFFFFFFFFFFFFFFFFFFFFFFFFFFFFFFFFFFFFFFFF AND PUSH20 0xFFFFFFFFFFFFFFFFFFFFFFFFFFFFFFFFFFFFFFFF AND PUSH20 0xFFFFFFFFFFFFFFFFFFFFFFFFFFFFFFFFFFFFFFFF AND DUP2 MSTORE PUSH1 0x20 ADD PUSH1 0x5 DUP3 ADD PUSH1 0x16 SWAP1 SLOAD SWAP1 PUSH2 0x100 EXP SWAP1 DIV PUSH1 0xFF AND ISZERO ISZERO ISZERO ISZERO DUP2 MSTORE PUSH1 0x20 ADD PUSH1 0x5 DUP3 ADD PUSH1 0x17 SWAP1 SLOAD SWAP1 PUSH2 0x100 EXP SWAP1 DIV PUSH1 0xFF AND ISZERO ISZERO ISZERO ISZERO DUP2 MSTORE PUSH1 0x20 ADD PUSH1 0x6 DUP3 ADD DUP1 SLOAD DUP1 PUSH1 0x20 MUL PUSH1 0x20 ADD PUSH1 0x40 MLOAD SWAP1 DUP2 ADD PUSH1 0x40 MSTORE DUP1 SWAP3 SWAP2 SWAP1 DUP2 DUP2 MSTORE PUSH1 0x20 ADD PUSH1 0x0 SWAP1 JUMPDEST DUP3 DUP3 LT ISZERO PUSH2 0x1482 JUMPI DUP4 DUP3 SWAP1 PUSH1 0x0 MSTORE PUSH1 0x20 PUSH1 0x0 KECCAK256 SWAP1 PUSH1 0x2 MUL ADD PUSH1 0x40 MLOAD DUP1 PUSH1 0x40 ADD PUSH1 0x40 MSTORE SWAP1 DUP2 PUSH1 0x0 DUP3 ADD SLOAD DUP2 MSTORE PUSH1 0x20 ADD PUSH1 0x1 DUP3 ADD SLOAD DUP2 MSTORE POP POP DUP2 MSTORE PUSH1 0x20 ADD SWAP1 PUSH1 0x1 ADD SWAP1 PUSH2 0x143C JUMP JUMPDEST POP POP POP POP DUP2 MSTORE POP POP SWAP1 POP DUP1 PUSH2 0x140 ADD MLOAD SWAP2 POP POP SWAP2 SWAP1 POP JUMP JUMPDEST PUSH1 0x1 PUSH1 0x0 CALLER PUSH20 0xFFFFFFFFFFFFFFFFFFFFFFFFFFFFFFFFFFFFFFFF AND PUSH20 0xFFFFFFFFFFFFFFFFFFFFFFFFFFFFFFFFFFFFFFFF AND DUP2 MSTORE PUSH1 0x20 ADD SWAP1 DUP2 MSTORE PUSH1 0x20 ADD PUSH1 0x0 KECCAK256 PUSH1 0x5 ADD PUSH1 0x0 SWAP1 SLOAD SWAP1 PUSH2 0x100 EXP SWAP1 DIV PUSH1 0xFF AND ISZERO PUSH2 0x152A JUMPI PUSH1 0x40 MLOAD PUSH32 0x8C379A000000000000000000000000000000000000000000000000000000000 DUP2 MSTORE PUSH1 0x4 ADD PUSH2 0x1521 SWAP1 PUSH2 0x3206 JUMP JUMPDEST PUSH1 0x40 MLOAD DUP1 SWAP2 SUB SWAP1 REVERT JUMPDEST CALLER PUSH1 0x1 PUSH1 0x0 CALLER PUSH20 0xFFFFFFFFFFFFFFFFFFFFFFFFFFFFFFFFFFFFFFFF AND PUSH20 0xFFFFFFFFFFFFFFFFFFFFFFFFFFFFFFFFFFFFFFFF AND DUP2 MSTORE PUSH1 0x20 ADD SWAP1 DUP2 MSTORE PUSH1 0x20 ADD PUSH1 0x0 KECCAK256 PUSH1 0x0 ADD PUSH1 0x0 PUSH2 0x100 EXP DUP2 SLOAD DUP2 PUSH20 0xFFFFFFFFFFFFFFFFFFFFFFFFFFFFFFFFFFFFFFFF MUL NOT AND SWAP1 DUP4 PUSH20 0xFFFFFFFFFFFFFFFFFFFFFFFFFFFFFFFFFFFFFFFF AND MUL OR SWAP1 SSTORE POP PUSH1 0x0 PUSH1 0x1 PUSH1 0x0 CALLER PUSH20 0xFFFFFFFFFFFFFFFFFFFFFFFFFFFFFFFFFFFFFFFF AND PUSH20 0xFFFFFFFFFFFFFFFFFFFFFFFFFFFFFFFFFFFFFFFF AND DUP2 MSTORE PUSH1 0x20 ADD SWAP1 DUP2 MSTORE PUSH1 0x20 ADD PUSH1 0x0 KECCAK256 PUSH1 0x1 ADD DUP2 SWAP1 SSTORE POP DUP1 PUSH1 0x1 PUSH1 0x0 CALLER PUSH20 0xFFFFFFFFFFFFFFFFFFFFFFFFFFFFFFFFFFFFFFFF AND PUSH20 0xFFFFFFFFFFFFFFFFFFFFFFFFFFFFFFFFFFFFFFFF AND DUP2 MSTORE PUSH1 0x20 ADD SWAP1 DUP2 MSTORE PUSH1 0x20 ADD PUSH1 0x0 KECCAK256 PUSH1 0x2 ADD PUSH1 0x0 PUSH2 0x100 EXP DUP2 SLOAD DUP2 PUSH8 0xFFFFFFFFFFFFFFFF MUL NOT AND SWAP1 DUP4 PUSH8 0xFFFFFFFFFFFFFFFF AND MUL OR SWAP1 SSTORE POP DUP3 PUSH1 0x1 PUSH1 0x0 CALLER PUSH20 0xFFFFFFFFFFFFFFFFFFFFFFFFFFFFFFFFFFFFFFFF AND PUSH20 0xFFFFFFFFFFFFFFFFFFFFFFFFFFFFFFFFFFFFFFFF AND DUP2 MSTORE PUSH1 0x20 ADD SWAP1 DUP2 MSTORE PUSH1 0x20 ADD PUSH1 0x0 KECCAK256 PUSH1 0x3 ADD SWAP1 DUP2 PUSH2 0x16AB SWAP2 SWAP1 PUSH2 0x33C8 JUMP JUMPDEST POP DUP2 PUSH1 0x1 PUSH1 0x0 CALLER PUSH20 0xFFFFFFFFFFFFFFFFFFFFFFFFFFFFFFFFFFFFFFFF AND PUSH20 0xFFFFFFFFFFFFFFFFFFFFFFFFFFFFFFFFFFFFFFFF AND DUP2 MSTORE PUSH1 0x20 ADD SWAP1 DUP2 MSTORE PUSH1 0x20 ADD PUSH1 0x0 KECCAK256 PUSH1 0x4 ADD SWAP1 DUP2 PUSH2 0x16FB SWAP2 SWAP1 PUSH2 0x33C8 JUMP JUMPDEST POP PUSH1 0x0 PUSH1 0x1 PUSH1 0x0 CALLER PUSH20 0xFFFFFFFFFFFFFFFFFFFFFFFFFFFFFFFFFFFFFFFF AND PUSH20 0xFFFFFFFFFFFFFFFFFFFFFFFFFFFFFFFFFFFFFFFF AND DUP2 MSTORE PUSH1 0x20 ADD SWAP1 DUP2 MSTORE PUSH1 0x20 ADD PUSH1 0x0 KECCAK256 PUSH1 0x5 ADD PUSH1 0x2 PUSH2 0x100 EXP DUP2 SLOAD DUP2 PUSH20 0xFFFFFFFFFFFFFFFFFFFFFFFFFFFFFFFFFFFFFFFF MUL NOT AND SWAP1 DUP4 PUSH20 0xFFFFFFFFFFFFFFFFFFFFFFFFFFFFFFFFFFFFFFFF AND MUL OR SWAP1 SSTORE POP PUSH1 0x0 PUSH1 0x1 PUSH1 0x0 CALLER PUSH20 0xFFFFFFFFFFFFFFFFFFFFFFFFFFFFFFFFFFFFFFFF AND PUSH20 0xFFFFFFFFFFFFFFFFFFFFFFFFFFFFFFFFFFFFFFFF AND DUP2 MSTORE PUSH1 0x20 ADD SWAP1 DUP2 MSTORE PUSH1 0x20 ADD PUSH1 0x0 KECCAK256 PUSH1 0x5 ADD PUSH1 0x0 PUSH2 0x100 EXP DUP2 SLOAD DUP2 PUSH1 0xFF MUL NOT AND SWAP1 DUP4 ISZERO ISZERO MUL OR SWAP1 SSTORE POP PUSH1 0x0 PUSH1 0x1 PUSH1 0x0 CALLER PUSH20 0xFFFFFFFFFFFFFFFFFFFFFFFFFFFFFFFFFFFFFFFF AND PUSH20 0xFFFFFFFFFFFFFFFFFFFFFFFFFFFFFFFFFFFFFFFF AND DUP2 MSTORE PUSH1 0x20 ADD SWAP1 DUP2 MSTORE PUSH1 0x20 ADD PUSH1 0x0 KECCAK256 PUSH1 0x5 ADD PUSH1 0x1 PUSH2 0x100 EXP DUP2 SLOAD DUP2 PUSH1 0xFF MUL NOT AND SWAP1 DUP4 ISZERO ISZERO MUL OR SWAP1 SSTORE POP PUSH1 0x0 PUSH1 0x1 PUSH1 0x0 CALLER PUSH20 0xFFFFFFFFFFFFFFFFFFFFFFFFFFFFFFFFFFFFFFFF AND PUSH20 0xFFFFFFFFFFFFFFFFFFFFFFFFFFFFFFFFFFFFFFFF AND DUP2 MSTORE PUSH1 0x20 ADD SWAP1 DUP2 MSTORE PUSH1 0x20 ADD PUSH1 0x0 KECCAK256 PUSH1 0x5 ADD PUSH1 0x16 PUSH2 0x100 EXP DUP2 SLOAD DUP2 PUSH1 0xFF MUL NOT AND SWAP1 DUP4 ISZERO ISZERO MUL OR SWAP1 SSTORE POP PUSH1 0x0 PUSH1 0x1 PUSH1 0x0 CALLER PUSH20 0xFFFFFFFFFFFFFFFFFFFFFFFFFFFFFFFFFFFFFFFF AND PUSH20 0xFFFFFFFFFFFFFFFFFFFFFFFFFFFFFFFFFFFFFFFF AND DUP2 MSTORE PUSH1 0x20 ADD SWAP1 DUP2 MSTORE PUSH1 0x20 ADD PUSH1 0x0 KECCAK256 PUSH1 0x5 ADD PUSH1 0x17 PUSH2 0x100 EXP DUP2 SLOAD DUP2 PUSH1 0xFF MUL NOT AND SWAP1 DUP4 ISZERO ISZERO MUL OR SWAP1 SSTORE POP CALLER PUSH20 0xFFFFFFFFFFFFFFFFFFFFFFFFFFFFFFFFFFFFFFFF AND PUSH32 0x7CD5F5BDF90185204D23A6F481B9F592183D8C914F6EC3062FF2826D977E547B DUP5 DUP5 DUP5 PUSH1 0x40 MLOAD PUSH2 0x1934 SWAP4 SWAP3 SWAP2 SWAP1 PUSH2 0x349A JUMP JUMPDEST PUSH1 0x40 MLOAD DUP1 SWAP2 SUB SWAP1 LOG2 POP POP POP JUMP JUMPDEST CALLER PUSH20 0xFFFFFFFFFFFFFFFFFFFFFFFFFFFFFFFFFFFFFFFF AND PUSH1 0x1 PUSH1 0x0 CALLER PUSH20 0xFFFFFFFFFFFFFFFFFFFFFFFFFFFFFFFFFFFFFFFF AND PUSH20 0xFFFFFFFFFFFFFFFFFFFFFFFFFFFFFFFFFFFFFFFF AND DUP2 MSTORE PUSH1 0x20 ADD SWAP1 DUP2 MSTORE PUSH1 0x20 ADD PUSH1 0x0 KECCAK256 PUSH1 0x0 ADD PUSH1 0x0 SWAP1 SLOAD SWAP1 PUSH2 0x100 EXP SWAP1 DIV PUSH20 0xFFFFFFFFFFFFFFFFFFFFFFFFFFFFFFFFFFFFFFFF AND PUSH20 0xFFFFFFFFFFFFFFFFFFFFFFFFFFFFFFFFFFFFFFFF AND EQ PUSH2 0x1A11 JUMPI PUSH1 0x40 MLOAD PUSH32 0x8C379A000000000000000000000000000000000000000000000000000000000 DUP2 MSTORE PUSH1 0x4 ADD PUSH2 0x1A08 SWAP1 PUSH2 0x2BBF JUMP JUMPDEST PUSH1 0x40 MLOAD DUP1 SWAP2 SUB SWAP1 REVERT JUMPDEST PUSH1 0x1 PUSH1 0x0 CALLER PUSH20 0xFFFFFFFFFFFFFFFFFFFFFFFFFFFFFFFFFFFFFFFF AND PUSH20 0xFFFFFFFFFFFFFFFFFFFFFFFFFFFFFFFFFFFFFFFF AND DUP2 MSTORE PUSH1 0x20 ADD SWAP1 DUP2 MSTORE PUSH1 0x20 ADD PUSH1 0x0 KECCAK256 PUSH1 0x5 ADD PUSH1 0x1 SWAP1 SLOAD SWAP1 PUSH2 0x100 EXP SWAP1 DIV PUSH1 0xFF AND ISZERO PUSH2 0x1AA1 JUMPI PUSH1 0x40 MLOAD PUSH32 0x8C379A000000000000000000000000000000000000000000000000000000000 DUP2 MSTORE PUSH1 0x4 ADD PUSH2 0x1A98 SWAP1 PUSH2 0x3551 JUMP JUMPDEST PUSH1 0x40 MLOAD DUP1 SWAP2 SUB SWAP1 REVERT JUMPDEST PUSH1 0x0 PUSH1 0x1 PUSH1 0x0 CALLER PUSH20 0xFFFFFFFFFFFFFFFFFFFFFFFFFFFFFFFFFFFFFFFF AND PUSH20 0xFFFFFFFFFFFFFFFFFFFFFFFFFFFFFFFFFFFFFFFF AND DUP2 MSTORE PUSH1 0x20 ADD SWAP1 DUP2 MSTORE PUSH1 0x20 ADD PUSH1 0x0 KECCAK256 PUSH1 0x1 ADD SLOAD SWAP1 POP PUSH1 0x0 DUP1 SLOAD SWAP1 PUSH2 0x100 EXP SWAP1 DIV PUSH20 0xFFFFFFFFFFFFFFFFFFFFFFFFFFFFFFFFFFFFFFFF AND PUSH20 0xFFFFFFFFFFFFFFFFFFFFFFFFFFFFFFFFFFFFFFFF AND PUSH4 0x23B872DD CALLER ADDRESS DUP5 PUSH1 0x40 MLOAD DUP5 PUSH4 0xFFFFFFFF AND PUSH1 0xE0 SHL DUP2 MSTORE PUSH1 0x4 ADD PUSH2 0x1B45 SWAP4 SWAP3 SWAP2 SWAP1 PUSH2 0x2DCF JUMP JUMPDEST PUSH1 0x20 PUSH1 0x40 MLOAD DUP1 DUP4 SUB DUP2 PUSH1 0x0 DUP8 GAS CALL ISZERO DUP1 ISZERO PUSH2 0x1B64 JUMPI RETURNDATASIZE PUSH1 0x0 DUP1 RETURNDATACOPY RETURNDATASIZE PUSH1 0x0 REVERT JUMPDEST POP POP POP POP PUSH1 0x40 MLOAD RETURNDATASIZE PUSH1 0x1F NOT PUSH1 0x1F DUP3 ADD AND DUP3 ADD DUP1 PUSH1 0x40 MSTORE POP DUP2 ADD SWAP1 PUSH2 0x1B88 SWAP2 SWAP1 PUSH2 0x2E32 JUMP JUMPDEST PUSH2 0x1BC7 JUMPI PUSH1 0x40 MLOAD PUSH32 0x8C379A000000000000000000000000000000000000000000000000000000000 DUP2 MSTORE PUSH1 0x4 ADD PUSH2 0x1BBE SWAP1 PUSH2 0x2EAB JUMP JUMPDEST PUSH1 0x40 MLOAD DUP1 SWAP2 SUB SWAP1 REVERT JUMPDEST PUSH1 0x0 PUSH1 0x1 PUSH1 0x0 CALLER PUSH20 0xFFFFFFFFFFFFFFFFFFFFFFFFFFFFFFFFFFFFFFFF AND PUSH20 0xFFFFFFFFFFFFFFFFFFFFFFFFFFFFFFFFFFFFFFFF AND DUP2 MSTORE PUSH1 0x20 ADD SWAP1 DUP2 MSTORE PUSH1 0x20 ADD PUSH1 0x0 KECCAK256 PUSH1 0x5 ADD PUSH1 0x2 SWAP1 SLOAD SWAP1 PUSH2 0x100 EXP SWAP1 DIV PUSH20 0xFFFFFFFFFFFFFFFFFFFFFFFFFFFFFFFFFFFFFFFF AND SWAP1 POP PUSH1 0x1 DUP1 PUSH1 0x0 CALLER PUSH20 0xFFFFFFFFFFFFFFFFFFFFFFFFFFFFFFFFFFFFFFFF AND PUSH20 0xFFFFFFFFFFFFFFFFFFFFFFFFFFFFFFFFFFFFFFFF AND DUP2 MSTORE PUSH1 0x20 ADD SWAP1 DUP2 MSTORE PUSH1 0x20 ADD PUSH1 0x0 KECCAK256 PUSH1 0x5 ADD PUSH1 0x1 PUSH2 0x100 EXP DUP2 SLOAD DUP2 PUSH1 0xFF MUL NOT AND SWAP1 DUP4 ISZERO ISZERO MUL OR SWAP1 SSTORE POP DUP1 PUSH20 0xFFFFFFFFFFFFFFFFFFFFFFFFFFFFFFFFFFFFFFFF AND CALLER PUSH20 0xFFFFFFFFFFFFFFFFFFFFFFFFFFFFFFFFFFFFFFFF AND PUSH32 0x69DCBA2F646658C0164E487534906889DBA6B08CB84E50745D18AC1D31C72364 DUP5 PUSH1 0x40 MLOAD PUSH2 0x1CE5 SWAP2 SWAP1 PUSH2 0x2ECB JUMP JUMPDEST PUSH1 0x40 MLOAD DUP1 SWAP2 SUB SWAP1 LOG3 POP POP JUMP JUMPDEST PUSH1 0x1 PUSH1 0x20 MSTORE DUP1 PUSH1 0x0 MSTORE PUSH1 0x40 PUSH1 0x0 KECCAK256 PUSH1 0x0 SWAP2 POP SWAP1 POP DUP1 PUSH1 0x0 ADD PUSH1 0x0 SWAP1 SLOAD SWAP1 PUSH2 0x100 EXP SWAP1 DIV PUSH20 0xFFFFFFFFFFFFFFFFFFFFFFFFFFFFFFFFFFFFFFFF AND SWAP1 DUP1 PUSH1 0x1 ADD SLOAD SWAP1 DUP1 PUSH1 0x2 ADD PUSH1 0x0 SWAP1 SLOAD SWAP1 PUSH2 0x100 EXP SWAP1 DIV PUSH8 0xFFFFFFFFFFFFFFFF AND SWAP1 DUP1 PUSH1 0x3 ADD DUP1 SLOAD PUSH2 0x1D5A SWAP1 PUSH2 0x2B42 JUMP JUMPDEST DUP1 PUSH1 0x1F ADD PUSH1 0x20 DUP1 SWAP2 DIV MUL PUSH1 0x20 ADD PUSH1 0x40 MLOAD SWAP1 DUP2 ADD PUSH1 0x40 MSTORE DUP1 SWAP3 SWAP2 SWAP1 DUP2 DUP2 MSTORE PUSH1 0x20 ADD DUP3 DUP1 SLOAD PUSH2 0x1D86 SWAP1 PUSH2 0x2B42 JUMP JUMPDEST DUP1 ISZERO PUSH2 0x1DD3 JUMPI DUP1 PUSH1 0x1F LT PUSH2 0x1DA8 JUMPI PUSH2 0x100 DUP1 DUP4 SLOAD DIV MUL DUP4 MSTORE SWAP2 PUSH1 0x20 ADD SWAP2 PUSH2 0x1DD3 JUMP JUMPDEST DUP3 ADD SWAP2 SWAP1 PUSH1 0x0 MSTORE PUSH1 0x20 PUSH1 0x0 KECCAK256 SWAP1 JUMPDEST DUP2 SLOAD DUP2 MSTORE SWAP1 PUSH1 0x1 ADD SWAP1 PUSH1 0x20 ADD DUP1 DUP4 GT PUSH2 0x1DB6 JUMPI DUP3 SWAP1 SUB PUSH1 0x1F AND DUP3 ADD SWAP2 JUMPDEST POP POP POP POP POP SWAP1 DUP1 PUSH1 0x4 ADD DUP1 SLOAD PUSH2 0x1DE8 SWAP1 PUSH2 0x2B42 JUMP JUMPDEST DUP1 PUSH1 0x1F ADD PUSH1 0x20 DUP1 SWAP2 DIV MUL PUSH1 0x20 ADD PUSH1 0x40 MLOAD SWAP1 DUP2 ADD PUSH1 0x40 MSTORE DUP1 SWAP3 SWAP2 SWAP1 DUP2 DUP2 MSTORE PUSH1 0x20 ADD DUP3 DUP1 SLOAD PUSH2 0x1E14 SWAP1 PUSH2 0x2B42 JUMP JUMPDEST DUP1 ISZERO PUSH2 0x1E61 JUMPI DUP1 PUSH1 0x1F LT PUSH2 0x1E36 JUMPI PUSH2 0x100 DUP1 DUP4 SLOAD DIV MUL DUP4 MSTORE SWAP2 PUSH1 0x20 ADD SWAP2 PUSH2 0x1E61 JUMP JUMPDEST DUP3 ADD SWAP2 SWAP1 PUSH1 0x0 MSTORE PUSH1 0x20 PUSH1 0x0 KECCAK256 SWAP1 JUMPDEST DUP2 SLOAD DUP2 MSTORE SWAP1 PUSH1 0x1 ADD SWAP1 PUSH1 0x20 ADD DUP1 DUP4 GT PUSH2 0x1E44 JUMPI DUP3 SWAP1 SUB PUSH1 0x1F AND DUP3 ADD SWAP2 JUMPDEST POP POP POP POP POP SWAP1 DUP1 PUSH1 0x5 ADD PUSH1 0x0 SWAP1 SLOAD SWAP1 PUSH2 0x100 EXP SWAP1 DIV PUSH1 0xFF AND SWAP1 DUP1 PUSH1 0x5 ADD PUSH1 0x1 SWAP1 SLOAD SWAP1 PUSH2 0x100 EXP SWAP1 DIV PUSH1 0xFF AND SWAP1 DUP1 PUSH1 0x5 ADD PUSH1 0x2 SWAP1 SLOAD SWAP1 PUSH2 0x100 EXP SWAP1 DIV PUSH20 0xFFFFFFFFFFFFFFFFFFFFFFFFFFFFFFFFFFFFFFFF AND SWAP1 DUP1 PUSH1 0x5 ADD PUSH1 0x16 SWAP1 SLOAD SWAP1 PUSH2 0x100 EXP SWAP1 DIV PUSH1 0xFF AND SWAP1 DUP1 PUSH1 0x5 ADD PUSH1 0x17 SWAP1 SLOAD SWAP1 PUSH2 0x100 EXP SWAP1 DIV PUSH1 0xFF AND SWAP1 POP DUP11 JUMP JUMPDEST PUSH1 0x0 PUSH1 0x1 PUSH1 0x0 DUP4 PUSH20 0xFFFFFFFFFFFFFFFFFFFFFFFFFFFFFFFFFFFFFFFF AND PUSH20 0xFFFFFFFFFFFFFFFFFFFFFFFFFFFFFFFFFFFFFFFF AND DUP2 MSTORE PUSH1 0x20 ADD SWAP1 DUP2 MSTORE PUSH1 0x20 ADD PUSH1 0x0 KECCAK256 SWAP1 POP DUP1 PUSH1 0x5 ADD PUSH1 0x0 SWAP1 SLOAD SWAP1 PUSH2 0x100 EXP SWAP1 DIV PUSH1 0xFF AND PUSH2 0x1F71 JUMPI PUSH1 0x40 MLOAD PUSH32 0x8C379A000000000000000000000000000000000000000000000000000000000 DUP2 MSTORE PUSH1 0x4 ADD PUSH2 0x1F68 SWAP1 PUSH2 0x35BD JUMP JUMPDEST PUSH1 0x40 MLOAD DUP1 SWAP2 SUB SWAP1 REVERT JUMPDEST DUP1 PUSH1 0x5 ADD PUSH1 0x1 SWAP1 SLOAD SWAP1 PUSH2 0x100 EXP SWAP1 DIV PUSH1 0xFF AND PUSH2 0x1FC2 JUMPI PUSH1 0x40 MLOAD PUSH32 0x8C379A000000000000000000000000000000000000000000000000000000000 DUP2 MSTORE PUSH1 0x4 ADD PUSH2 0x1FB9 SWAP1 PUSH2 0x3629 JUMP JUMPDEST PUSH1 0x40 MLOAD DUP1 SWAP2 SUB SWAP1 REVERT JUMPDEST CALLER PUSH20 0xFFFFFFFFFFFFFFFFFFFFFFFFFFFFFFFFFFFFFFFF AND DUP2 PUSH1 0x5 ADD PUSH1 0x2 SWAP1 SLOAD SWAP1 PUSH2 0x100 EXP SWAP1 DIV PUSH20 0xFFFFFFFFFFFFFFFFFFFFFFFFFFFFFFFFFFFFFFFF AND PUSH20 0xFFFFFFFFFFFFFFFFFFFFFFFFFFFFFFFFFFFFFFFF AND EQ PUSH2 0x2054 JUMPI PUSH1 0x40 MLOAD PUSH32 0x8C379A000000000000000000000000000000000000000000000000000000000 DUP2 MSTORE PUSH1 0x4 ADD PUSH2 0x204B SWAP1 PUSH2 0x36BB JUMP JUMPDEST PUSH1 0x40 MLOAD DUP1 SWAP2 SUB SWAP1 REVERT JUMPDEST PUSH1 0x1 DUP2 PUSH1 0x5 ADD PUSH1 0x16 PUSH2 0x100 EXP DUP2 SLOAD DUP2 PUSH1 0xFF MUL NOT AND SWAP1 DUP4 ISZERO ISZERO MUL OR SWAP1 SSTORE POP CALLER PUSH20 0xFFFFFFFFFFFFFFFFFFFFFFFFFFFFFFFFFFFFFFFF AND DUP3 PUSH20 0xFFFFFFFFFFFFFFFFFFFFFFFFFFFFFFFFFFFFFFFF AND PUSH32 0x8189072D42595B0E174118838DDD5BAD006E2DCFC78DA629D234971E2F1FA155 PUSH1 0x40 MLOAD PUSH1 0x40 MLOAD DUP1 SWAP2 SUB SWAP1 LOG3 POP POP JUMP JUMPDEST PUSH1 0x0 DUP1 SLOAD SWAP1 PUSH2 0x100 EXP SWAP1 DIV PUSH20 0xFFFFFFFFFFFFFFFFFFFFFFFFFFFFFFFFFFFFFFFF AND DUP2 JUMP JUMPDEST POP DUP1 SLOAD PUSH2 0x20FF SWAP1 PUSH2 0x2B42 JUMP JUMPDEST PUSH1 0x0 DUP3 SSTORE DUP1 PUSH1 0x1F LT PUSH2 0x2111 JUMPI POP PUSH2 0x2130 JUMP JUMPDEST PUSH1 0x1F ADD PUSH1 0x20 SWAP1 DIV SWAP1 PUSH1 0x0 MSTORE PUSH1 0x20 PUSH1 0x0 KECCAK256 SWAP1 DUP2 ADD SWAP1 PUSH2 0x212F SWAP2 SWAP1 PUSH2 0x2157 JUMP JUMPDEST JUMPDEST POP JUMP JUMPDEST POP DUP1 SLOAD PUSH1 0x0 DUP3 SSTORE PUSH1 0x2 MUL SWAP1 PUSH1 0x0 MSTORE PUSH1 0x20 PUSH1 0x0 KECCAK256 SWAP1 DUP2 ADD SWAP1 PUSH2 0x2154 SWAP2 SWAP1 PUSH2 0x2174 JUMP JUMPDEST POP JUMP JUMPDEST JUMPDEST DUP1 DUP3 GT ISZERO PUSH2 0x2170 JUMPI PUSH1 0x0 DUP2 PUSH1 0x0 SWAP1 SSTORE POP PUSH1 0x1 ADD PUSH2 0x2158 JUMP JUMPDEST POP SWAP1 JUMP JUMPDEST JUMPDEST DUP1 DUP3 GT ISZERO PUSH2 0x2197 JUMPI PUSH1 0x0 DUP1 DUP3 ADD PUSH1 0x0 SWAP1 SSTORE PUSH1 0x1 DUP3 ADD PUSH1 0x0 SWAP1 SSTORE POP PUSH1 0x2 ADD PUSH2 0x2175 JUMP JUMPDEST POP SWAP1 JUMP JUMPDEST PUSH1 0x0 PUSH1 0x40 MLOAD SWAP1 POP SWAP1 JUMP JUMPDEST PUSH1 0x0 DUP1 REVERT JUMPDEST PUSH1 0x0 DUP1 REVERT JUMPDEST PUSH1 0x0 PUSH20 0xFFFFFFFFFFFFFFFFFFFFFFFFFFFFFFFFFFFFFFFF DUP3 AND SWAP1 POP SWAP2 SWAP1 POP JUMP JUMPDEST PUSH1 0x0 PUSH2 0x21DA DUP3 PUSH2 0x21AF JUMP JUMPDEST SWAP1 POP SWAP2 SWAP1 POP JUMP JUMPDEST PUSH2 0x21EA DUP2 PUSH2 0x21CF JUMP JUMPDEST DUP2 EQ PUSH2 0x21F5 JUMPI PUSH1 0x0 DUP1 REVERT JUMPDEST POP JUMP JUMPDEST PUSH1 0x0 DUP2 CALLDATALOAD SWAP1 POP PUSH2 0x2207 DUP2 PUSH2 0x21E1 JUMP JUMPDEST SWAP3 SWAP2 POP POP JUMP JUMPDEST PUSH1 0x0 DUP1 REVERT JUMPDEST PUSH1 0x0 PUSH1 0x1F NOT PUSH1 0x1F DUP4 ADD AND SWAP1 POP SWAP2 SWAP1 POP JUMP JUMPDEST PUSH32 0x4E487B7100000000000000000000000000000000000000000000000000000000 PUSH1 0x0 MSTORE PUSH1 0x41 PUSH1 0x4 MSTORE PUSH1 0x24 PUSH1 0x0 REVERT JUMPDEST PUSH2 0x225B DUP3 PUSH2 0x2212 JUMP JUMPDEST DUP2 ADD DUP2 DUP2 LT PUSH8 0xFFFFFFFFFFFFFFFF DUP3 GT OR ISZERO PUSH2 0x227A JUMPI PUSH2 0x2279 PUSH2 0x2223 JUMP JUMPDEST JUMPDEST DUP1 PUSH1 0x40 MSTORE POP POP POP JUMP JUMPDEST PUSH1 0x0 PUSH2 0x228D PUSH2 0x219B JUMP JUMPDEST SWAP1 POP PUSH2 0x2299 DUP3 DUP3 PUSH2 0x2252 JUMP JUMPDEST SWAP2 SWAP1 POP JUMP JUMPDEST PUSH1 0x0 PUSH8 0xFFFFFFFFFFFFFFFF DUP3 GT ISZERO PUSH2 0x22B9 JUMPI PUSH2 0x22B8 PUSH2 0x2223 JUMP JUMPDEST JUMPDEST PUSH1 0x20 DUP3 MUL SWAP1 POP PUSH1 0x20 DUP2 ADD SWAP1 POP SWAP2 SWAP1 POP JUMP JUMPDEST PUSH1 0x0 DUP1 REVERT JUMPDEST PUSH1 0x0 DUP1 REVERT JUMPDEST PUSH1 0x0 DUP2 SWAP1 POP SWAP2 SWAP1 POP JUMP JUMPDEST PUSH2 0x22E7 DUP2 PUSH2 0x22D4 JUMP JUMPDEST DUP2 EQ PUSH2 0x22F2 JUMPI PUSH1 0x0 DUP1 REVERT JUMPDEST POP JUMP JUMPDEST PUSH1 0x0 DUP2 CALLDATALOAD SWAP1 POP PUSH2 0x2304 DUP2 PUSH2 0x22DE JUMP JUMPDEST SWAP3 SWAP2 POP POP JUMP JUMPDEST PUSH1 0x0 PUSH1 0x40 DUP3 DUP5 SUB SLT ISZERO PUSH2 0x2320 JUMPI PUSH2 0x231F PUSH2 0x22CF JUMP JUMPDEST JUMPDEST PUSH2 0x232A PUSH1 0x40 PUSH2 0x2283 JUMP JUMPDEST SWAP1 POP PUSH1 0x0 PUSH2 0x233A DUP5 DUP3 DUP6 ADD PUSH2 0x22F5 JUMP JUMPDEST PUSH1 0x0 DUP4 ADD MSTORE POP PUSH1 0x20 PUSH2 0x234E DUP5 DUP3 DUP6 ADD PUSH2 0x22F5 JUMP JUMPDEST PUSH1 0x20 DUP4 ADD MSTORE POP SWAP3 SWAP2 POP POP JUMP JUMPDEST PUSH1 0x0 PUSH2 0x236D PUSH2 0x2368 DUP5 PUSH2 0x229E JUMP JUMPDEST PUSH2 0x2283 JUMP JUMPDEST SWAP1 POP DUP1 DUP4 DUP3 MSTORE PUSH1 0x20 DUP3 ADD SWAP1 POP PUSH1 0x40 DUP5 MUL DUP4 ADD DUP6 DUP2 GT ISZERO PUSH2 0x2390 JUMPI PUSH2 0x238F PUSH2 0x22CA JUMP JUMPDEST JUMPDEST DUP4 JUMPDEST DUP2 DUP2 LT ISZERO PUSH2 0x23B9 JUMPI DUP1 PUSH2 0x23A5 DUP9 DUP3 PUSH2 0x230A JUMP JUMPDEST DUP5 MSTORE PUSH1 0x20 DUP5 ADD SWAP4 POP POP PUSH1 0x40 DUP2 ADD SWAP1 POP PUSH2 0x2392 JUMP JUMPDEST POP POP POP SWAP4 SWAP3 POP POP POP JUMP JUMPDEST PUSH1 0x0 DUP3 PUSH1 0x1F DUP4 ADD SLT PUSH2 0x23D8 JUMPI PUSH2 0x23D7 PUSH2 0x220D JUMP JUMPDEST JUMPDEST DUP2 CALLDATALOAD PUSH2 0x23E8 DUP5 DUP3 PUSH1 0x20 DUP7 ADD PUSH2 0x235A JUMP JUMPDEST SWAP2 POP POP SWAP3 SWAP2 POP POP JUMP JUMPDEST PUSH1 0x0 DUP1 PUSH1 0x40 DUP4 DUP6 SUB SLT ISZERO PUSH2 0x2408 JUMPI PUSH2 0x2407 PUSH2 0x21A5 JUMP JUMPDEST JUMPDEST PUSH1 0x0 PUSH2 0x2416 DUP6 DUP3 DUP7 ADD PUSH2 0x21F8 JUMP JUMPDEST SWAP3 POP POP PUSH1 0x20 DUP4 ADD CALLDATALOAD PUSH8 0xFFFFFFFFFFFFFFFF DUP2 GT ISZERO PUSH2 0x2437 JUMPI PUSH2 0x2436 PUSH2 0x21AA JUMP JUMPDEST JUMPDEST PUSH2 0x2443 DUP6 DUP3 DUP7 ADD PUSH2 0x23C3 JUMP JUMPDEST SWAP2 POP POP SWAP3 POP SWAP3 SWAP1 POP JUMP JUMPDEST PUSH1 0x0 PUSH1 0x20 DUP3 DUP5 SUB SLT ISZERO PUSH2 0x2463 JUMPI PUSH2 0x2462 PUSH2 0x21A5 JUMP JUMPDEST JUMPDEST PUSH1 0x0 PUSH2 0x2471 DUP5 DUP3 DUP6 ADD PUSH2 0x21F8 JUMP JUMPDEST SWAP2 POP POP SWAP3 SWAP2 POP POP JUMP JUMPDEST PUSH2 0x2483 DUP2 PUSH2 0x22D4 JUMP JUMPDEST DUP3 MSTORE POP POP JUMP JUMPDEST PUSH1 0x0 PUSH8 0xFFFFFFFFFFFFFFFF DUP3 AND SWAP1 POP SWAP2 SWAP1 POP JUMP JUMPDEST PUSH2 0x24A6 DUP2 PUSH2 0x2489 JUMP JUMPDEST DUP3 MSTORE POP POP JUMP JUMPDEST PUSH1 0x0 DUP2 MLOAD SWAP1 POP SWAP2 SWAP1 POP JUMP JUMPDEST PUSH1 0x0 DUP3 DUP3 MSTORE PUSH1 0x20 DUP3 ADD SWAP1 POP SWAP3 SWAP2 POP POP JUMP JUMPDEST PUSH1 0x0 JUMPDEST DUP4 DUP2 LT ISZERO PUSH2 0x24E6 JUMPI DUP1 DUP3 ADD MLOAD DUP2 DUP5 ADD MSTORE PUSH1 0x20 DUP2 ADD SWAP1 POP PUSH2 0x24CB JUMP JUMPDEST PUSH1 0x0 DUP5 DUP5 ADD MSTORE POP POP POP POP JUMP JUMPDEST PUSH1 0x0 PUSH2 0x24FD DUP3 PUSH2 0x24AC JUMP JUMPDEST PUSH2 0x2507 DUP2 DUP6 PUSH2 0x24B7 JUMP JUMPDEST SWAP4 POP PUSH2 0x2517 DUP2 DUP6 PUSH1 0x20 DUP7 ADD PUSH2 0x24C8 JUMP JUMPDEST PUSH2 0x2520 DUP2 PUSH2 0x2212 JUMP JUMPDEST DUP5 ADD SWAP2 POP POP SWAP3 SWAP2 POP POP JUMP JUMPDEST PUSH1 0x0 DUP2 ISZERO ISZERO SWAP1 POP SWAP2 SWAP1 POP JUMP JUMPDEST PUSH2 0x2540 DUP2 PUSH2 0x252B JUMP JUMPDEST DUP3 MSTORE POP POP JUMP JUMPDEST PUSH2 0x254F DUP2 PUSH2 0x21CF JUMP JUMPDEST DUP3 MSTORE POP POP JUMP JUMPDEST PUSH1 0x0 PUSH2 0x100 DUP3 ADD SWAP1 POP PUSH2 0x256B PUSH1 0x0 DUP4 ADD DUP12 PUSH2 0x247A JUMP JUMPDEST PUSH2 0x2578 PUSH1 0x20 DUP4 ADD DUP11 PUSH2 0x249D JUMP JUMPDEST DUP2 DUP2 SUB PUSH1 0x40 DUP4 ADD MSTORE PUSH2 0x258A DUP2 DUP10 PUSH2 0x24F2 JUMP JUMPDEST SWAP1 POP DUP2 DUP2 SUB PUSH1 0x60 DUP4 ADD MSTORE PUSH2 0x259E DUP2 DUP9 PUSH2 0x24F2 JUMP JUMPDEST SWAP1 POP PUSH2 0x25AD PUSH1 0x80 DUP4 ADD DUP8 PUSH2 0x2537 JUMP JUMPDEST PUSH2 0x25BA PUSH1 0xA0 DUP4 ADD DUP7 PUSH2 0x2546 JUMP JUMPDEST PUSH2 0x25C7 PUSH1 0xC0 DUP4 ADD DUP6 PUSH2 0x2537 JUMP JUMPDEST PUSH2 0x25D4 PUSH1 0xE0 DUP4 ADD DUP5 PUSH2 0x2537 JUMP JUMPDEST SWAP10 SWAP9 POP POP POP POP POP POP POP POP POP JUMP JUMPDEST PUSH1 0x0 DUP1 PUSH1 0x40 DUP4 DUP6 SUB SLT ISZERO PUSH2 0x25F8 JUMPI PUSH2 0x25F7 PUSH2 0x21A5 JUMP JUMPDEST JUMPDEST PUSH1 0x0 PUSH2 0x2606 DUP6 DUP3 DUP7 ADD PUSH2 0x21F8 JUMP JUMPDEST SWAP3 POP POP PUSH1 0x20 PUSH2 0x2617 DUP6 DUP3 DUP7 ADD PUSH2 0x22F5 JUMP JUMPDEST SWAP2 POP POP SWAP3 POP SWAP3 SWAP1 POP JUMP JUMPDEST PUSH1 0x0 DUP2 MLOAD SWAP1 POP SWAP2 SWAP1 POP JUMP JUMPDEST PUSH1 0x0 DUP3 DUP3 MSTORE PUSH1 0x20 DUP3 ADD SWAP1 POP SWAP3 SWAP2 POP POP JUMP JUMPDEST PUSH1 0x0 DUP2 SWAP1 POP PUSH1 0x20 DUP3 ADD SWAP1 POP SWAP2 SWAP1 POP JUMP JUMPDEST PUSH2 0x2656 DUP2 PUSH2 0x22D4 JUMP JUMPDEST DUP3 MSTORE POP POP JUMP JUMPDEST PUSH1 0x40 DUP3 ADD PUSH1 0x0 DUP3 ADD MLOAD PUSH2 0x2672 PUSH1 0x0 DUP6 ADD DUP3 PUSH2 0x264D JUMP JUMPDEST POP PUSH1 0x20 DUP3 ADD MLOAD PUSH2 0x2685 PUSH1 0x20 DUP6 ADD DUP3 PUSH2 0x264D JUMP JUMPDEST POP POP POP POP JUMP JUMPDEST PUSH1 0x0 PUSH2 0x2697 DUP4 DUP4 PUSH2 0x265C JUMP JUMPDEST PUSH1 0x40 DUP4 ADD SWAP1 POP SWAP3 SWAP2 POP POP JUMP JUMPDEST PUSH1 0x0 PUSH1 0x20 DUP3 ADD SWAP1 POP SWAP2 SWAP1 POP JUMP JUMPDEST PUSH1 0x0 PUSH2 0x26BB DUP3 PUSH2 0x2621 JUMP JUMPDEST PUSH2 0x26C5 DUP2 DUP6 PUSH2 0x262C JUMP JUMPDEST SWAP4 POP PUSH2 0x26D0 DUP4 PUSH2 0x263D JUMP JUMPDEST DUP1 PUSH1 0x0 JUMPDEST DUP4 DUP2 LT ISZERO PUSH2 0x2701 JUMPI DUP2 MLOAD PUSH2 0x26E8 DUP9 DUP3 PUSH2 0x268B JUMP JUMPDEST SWAP8 POP PUSH2 0x26F3 DUP4 PUSH2 0x26A3 JUMP JUMPDEST SWAP3 POP POP PUSH1 0x1 DUP2 ADD SWAP1 POP PUSH2 0x26D4 JUMP JUMPDEST POP DUP6 SWAP4 POP POP POP POP SWAP3 SWAP2 POP POP JUMP JUMPDEST PUSH1 0x0 PUSH1 0x20 DUP3 ADD SWAP1 POP DUP2 DUP2 SUB PUSH1 0x0 DUP4 ADD MSTORE PUSH2 0x2728 DUP2 DUP5 PUSH2 0x26B0 JUMP JUMPDEST SWAP1 POP SWAP3 SWAP2 POP POP JUMP JUMPDEST PUSH1 0x0 DUP1 REVERT JUMPDEST PUSH1 0x0 PUSH8 0xFFFFFFFFFFFFFFFF DUP3 GT ISZERO PUSH2 0x2750 JUMPI PUSH2 0x274F PUSH2 0x2223 JUMP JUMPDEST JUMPDEST PUSH2 0x2759 DUP3 PUSH2 0x2212 JUMP JUMPDEST SWAP1 POP PUSH1 0x20 DUP2 ADD SWAP1 POP SWAP2 SWAP1 POP JUMP JUMPDEST DUP3 DUP2 DUP4 CALLDATACOPY PUSH1 0x0 DUP4 DUP4 ADD MSTORE POP POP POP JUMP JUMPDEST PUSH1 0x0 PUSH2 0x2788 PUSH2 0x2783 DUP5 PUSH2 0x2735 JUMP JUMPDEST PUSH2 0x2283 JUMP JUMPDEST SWAP1 POP DUP3 DUP2 MSTORE PUSH1 0x20 DUP2 ADD DUP5 DUP5 DUP5 ADD GT ISZERO PUSH2 0x27A4 JUMPI PUSH2 0x27A3 PUSH2 0x2730 JUMP JUMPDEST JUMPDEST PUSH2 0x27AF DUP5 DUP3 DUP6 PUSH2 0x2766 JUMP JUMPDEST POP SWAP4 SWAP3 POP POP POP JUMP JUMPDEST PUSH1 0x0 DUP3 PUSH1 0x1F DUP4 ADD SLT PUSH2 0x27CC JUMPI PUSH2 0x27CB PUSH2 0x220D JUMP JUMPDEST JUMPDEST DUP2 CALLDATALOAD PUSH2 0x27DC DUP5 DUP3 PUSH1 0x20 DUP7 ADD PUSH2 0x2775 JUMP JUMPDEST SWAP2 POP POP SWAP3 SWAP2 POP POP JUMP JUMPDEST PUSH2 0x27EE DUP2 PUSH2 0x2489 JUMP JUMPDEST DUP2 EQ PUSH2 0x27F9 JUMPI PUSH1 0x0 DUP1 REVERT JUMPDEST POP JUMP JUMPDEST PUSH1 0x0 DUP2 CALLDATALOAD SWAP1 POP PUSH2 0x280B DUP2 PUSH2 0x27E5 JUMP JUMPDEST SWAP3 SWAP2 POP POP JUMP JUMPDEST PUSH1 0x0 DUP1 PUSH1 0x0 PUSH1 0x60 DUP5 DUP7 SUB SLT ISZERO PUSH2 0x282A JUMPI PUSH2 0x2829 PUSH2 0x21A5 JUMP JUMPDEST JUMPDEST PUSH1 0x0 DUP5 ADD CALLDATALOAD PUSH8 0xFFFFFFFFFFFFFFFF DUP2 GT ISZERO PUSH2 0x2848 JUMPI PUSH2 0x2847 PUSH2 0x21AA JUMP JUMPDEST JUMPDEST PUSH2 0x2854 DUP7 DUP3 DUP8 ADD PUSH2 0x27B7 JUMP JUMPDEST SWAP4 POP POP PUSH1 0x20 DUP5 ADD CALLDATALOAD PUSH8 0xFFFFFFFFFFFFFFFF DUP2 GT ISZERO PUSH2 0x2875 JUMPI PUSH2 0x2874 PUSH2 0x21AA JUMP JUMPDEST JUMPDEST PUSH2 0x2881 DUP7 DUP3 DUP8 ADD PUSH2 0x27B7 JUMP JUMPDEST SWAP3 POP POP PUSH1 0x40 PUSH2 0x2892 DUP7 DUP3 DUP8 ADD PUSH2 0x27FC JUMP JUMPDEST SWAP2 POP POP SWAP3 POP SWAP3 POP SWAP3 JUMP JUMPDEST PUSH1 0x0 PUSH2 0x140 DUP3 ADD SWAP1 POP PUSH2 0x28B2 PUSH1 0x0 DUP4 ADD DUP14 PUSH2 0x2546 JUMP JUMPDEST PUSH2 0x28BF PUSH1 0x20 DUP4 ADD DUP13 PUSH2 0x247A JUMP JUMPDEST PUSH2 0x28CC PUSH1 0x40 DUP4 ADD DUP12 PUSH2 0x249D JUMP JUMPDEST DUP2 DUP2 SUB PUSH1 0x60 DUP4 ADD MSTORE PUSH2 0x28DE DUP2 DUP11 PUSH2 0x24F2 JUMP JUMPDEST SWAP1 POP DUP2 DUP2 SUB PUSH1 0x80 DUP4 ADD MSTORE PUSH2 0x28F2 DUP2 DUP10 PUSH2 0x24F2 JUMP JUMPDEST SWAP1 POP PUSH2 0x2901 PUSH1 0xA0 DUP4 ADD DUP9 PUSH2 0x2537 JUMP JUMPDEST PUSH2 0x290E PUSH1 0xC0 DUP4 ADD DUP8 PUSH2 0x2537 JUMP JUMPDEST PUSH2 0x291B PUSH1 0xE0 DUP4 ADD DUP7 PUSH2 0x2546 JUMP JUMPDEST PUSH2 0x2929 PUSH2 0x100 DUP4 ADD DUP6 PUSH2 0x2537 JUMP JUMPDEST PUSH2 0x2937 PUSH2 0x120 DUP4 ADD DUP5 PUSH2 0x2537 JUMP JUMPDEST SWAP12 SWAP11 POP POP POP POP POP POP POP POP POP POP POP JUMP JUMPDEST PUSH1 0x0 DUP2 SWAP1 POP SWAP2 SWAP1 POP JUMP JUMPDEST PUSH1 0x0 PUSH2 0x296B PUSH2 0x2966 PUSH2 0x2961 DUP5 PUSH2 0x21AF JUMP JUMPDEST PUSH2 0x2946 JUMP JUMPDEST PUSH2 0x21AF JUMP JUMPDEST SWAP1 POP SWAP2 SWAP1 POP JUMP JUMPDEST PUSH1 0x0 PUSH2 0x297D DUP3 PUSH2 0x2950 JUMP JUMPDEST SWAP1 POP SWAP2 SWAP1 POP JUMP JUMPDEST PUSH1 0x0 PUSH2 0x298F DUP3 PUSH2 0x2972 JUMP JUMPDEST SWAP1 POP SWAP2 SWAP1 POP JUMP JUMPDEST PUSH2 0x299F DUP2 PUSH2 0x2984 JUMP JUMPDEST DUP3 MSTORE POP POP JUMP JUMPDEST PUSH1 0x0 PUSH1 0x20 DUP3 ADD SWAP1 POP PUSH2 0x29BA PUSH1 0x0 DUP4 ADD DUP5 PUSH2 0x2996 JUMP JUMPDEST SWAP3 SWAP2 POP POP JUMP JUMPDEST PUSH32 0x4F6E6C7920746865206472697665722063616E207375626D6974207269646520 PUSH1 0x0 DUP3 ADD MSTORE PUSH32 0x636F6F7264696E617465732E0000000000000000000000000000000000000000 PUSH1 0x20 DUP3 ADD MSTORE POP JUMP JUMPDEST PUSH1 0x0 PUSH2 0x2A1C PUSH1 0x2C DUP4 PUSH2 0x24B7 JUMP JUMPDEST SWAP2 POP PUSH2 0x2A27 DUP3 PUSH2 0x29C0 JUMP JUMPDEST PUSH1 0x40 DUP3 ADD SWAP1 POP SWAP2 SWAP1 POP JUMP JUMPDEST PUSH1 0x0 PUSH1 0x20 DUP3 ADD SWAP1 POP DUP2 DUP2 SUB PUSH1 0x0 DUP4 ADD MSTORE PUSH2 0x2A4B DUP2 PUSH2 0x2A0F JUMP JUMPDEST SWAP1 POP SWAP2 SWAP1 POP JUMP JUMPDEST PUSH32 0x52696465206D757374206265206D61726B656420617320636F6D706C65746564 PUSH1 0x0 DUP3 ADD MSTORE PUSH32 0x206279207468652070617373656E6765722066697273742E0000000000000000 PUSH1 0x20 DUP3 ADD MSTORE POP JUMP JUMPDEST PUSH1 0x0 PUSH2 0x2AAE PUSH1 0x38 DUP4 PUSH2 0x24B7 JUMP JUMPDEST SWAP2 POP PUSH2 0x2AB9 DUP3 PUSH2 0x2A52 JUMP JUMPDEST PUSH1 0x40 DUP3 ADD SWAP1 POP SWAP2 SWAP1 POP JUMP JUMPDEST PUSH1 0x0 PUSH1 0x20 DUP3 ADD SWAP1 POP DUP2 DUP2 SUB PUSH1 0x0 DUP4 ADD MSTORE PUSH2 0x2ADD DUP2 PUSH2 0x2AA1 JUMP JUMPDEST SWAP1 POP SWAP2 SWAP1 POP JUMP JUMPDEST PUSH32 0x4E487B7100000000000000000000000000000000000000000000000000000000 PUSH1 0x0 MSTORE PUSH1 0x32 PUSH1 0x4 MSTORE PUSH1 0x24 PUSH1 0x0 REVERT JUMPDEST PUSH32 0x4E487B7100000000000000000000000000000000000000000000000000000000 PUSH1 0x0 MSTORE PUSH1 0x22 PUSH1 0x4 MSTORE PUSH1 0x24 PUSH1 0x0 REVERT JUMPDEST PUSH1 0x0 PUSH1 0x2 DUP3 DIV SWAP1 POP PUSH1 0x1 DUP3 AND DUP1 PUSH2 0x2B5A JUMPI PUSH1 0x7F DUP3 AND SWAP2 POP JUMPDEST PUSH1 0x20 DUP3 LT DUP2 SUB PUSH2 0x2B6D JUMPI PUSH2 0x2B6C PUSH2 0x2B13 JUMP JUMPDEST JUMPDEST POP SWAP2 SWAP1 POP JUMP JUMPDEST PUSH32 0x52696465207265717565737420646F6573206E6F742065786973742E00000000 PUSH1 0x0 DUP3 ADD MSTORE POP JUMP JUMPDEST PUSH1 0x0 PUSH2 0x2BA9 PUSH1 0x1C DUP4 PUSH2 0x24B7 JUMP JUMPDEST SWAP2 POP PUSH2 0x2BB4 DUP3 PUSH2 0x2B73 JUMP JUMPDEST PUSH1 0x20 DUP3 ADD SWAP1 POP SWAP2 SWAP1 POP JUMP JUMPDEST PUSH1 0x0 PUSH1 0x20 DUP3 ADD SWAP1 POP DUP2 DUP2 SUB PUSH1 0x0 DUP4 ADD MSTORE PUSH2 0x2BD8 DUP2 PUSH2 0x2B9C JUMP JUMPDEST SWAP1 POP SWAP2 SWAP1 POP JUMP JUMPDEST PUSH32 0x5269646520726571756573742068617320616C7265616479206265656E206163 PUSH1 0x0 DUP3 ADD MSTORE PUSH32 0x6365707465642E00000000000000000000000000000000000000000000000000 PUSH1 0x20 DUP3 ADD MSTORE POP JUMP JUMPDEST PUSH1 0x0 PUSH2 0x2C3B PUSH1 0x27 DUP4 PUSH2 0x24B7 JUMP JUMPDEST SWAP2 POP PUSH2 0x2C46 DUP3 PUSH2 0x2BDF JUMP JUMPDEST PUSH1 0x40 DUP3 ADD SWAP1 POP SWAP2 SWAP1 POP JUMP JUMPDEST PUSH1 0x0 PUSH1 0x20 DUP3 ADD SWAP1 POP DUP2 DUP2 SUB PUSH1 0x0 DUP4 ADD MSTORE PUSH2 0x2C6A DUP2 PUSH2 0x2C2E JUMP JUMPDEST SWAP1 POP SWAP2 SWAP1 POP JUMP JUMPDEST PUSH1 0x0 PUSH1 0x40 DUP3 ADD SWAP1 POP PUSH2 0x2C86 PUSH1 0x0 DUP4 ADD DUP6 PUSH2 0x2546 JUMP JUMPDEST PUSH2 0x2C93 PUSH1 0x20 DUP4 ADD DUP5 PUSH2 0x2546 JUMP JUMPDEST SWAP4 SWAP3 POP POP POP JUMP JUMPDEST PUSH1 0x0 DUP2 MLOAD SWAP1 POP PUSH2 0x2CA9 DUP2 PUSH2 0x22DE JUMP JUMPDEST SWAP3 SWAP2 POP POP JUMP JUMPDEST PUSH1 0x0 PUSH1 0x20 DUP3 DUP5 SUB SLT ISZERO PUSH2 0x2CC5 JUMPI PUSH2 0x2CC4 PUSH2 0x21A5 JUMP JUMPDEST JUMPDEST PUSH1 0x0 PUSH2 0x2CD3 DUP5 DUP3 DUP6 ADD PUSH2 0x2C9A JUMP JUMPDEST SWAP2 POP POP SWAP3 SWAP2 POP POP JUMP JUMPDEST PUSH32 0x436865636B2074686520746F6B656E20616C6C6F77616E63652E000000000000 PUSH1 0x0 DUP3 ADD MSTORE POP JUMP JUMPDEST PUSH1 0x0 PUSH2 0x2D12 PUSH1 0x1A DUP4 PUSH2 0x24B7 JUMP JUMPDEST SWAP2 POP PUSH2 0x2D1D DUP3 PUSH2 0x2CDC JUMP JUMPDEST PUSH1 0x20 DUP3 ADD SWAP1 POP SWAP2 SWAP1 POP JUMP JUMPDEST PUSH1 0x0 PUSH1 0x20 DUP3 ADD SWAP1 POP DUP2 DUP2 SUB PUSH1 0x0 DUP4 ADD MSTORE PUSH2 0x2D41 DUP2 PUSH2 0x2D05 JUMP JUMPDEST SWAP1 POP SWAP2 SWAP1 POP JUMP JUMPDEST PUSH1 0x0 PUSH1 0x20 DUP3 ADD SWAP1 POP PUSH2 0x2D5D PUSH1 0x0 DUP4 ADD DUP5 PUSH2 0x2546 JUMP JUMPDEST SWAP3 SWAP2 POP POP JUMP JUMPDEST PUSH32 0x496E73756666696369656E742062616C616E63652E0000000000000000000000 PUSH1 0x0 DUP3 ADD MSTORE POP JUMP JUMPDEST PUSH1 0x0 PUSH2 0x2D99 PUSH1 0x15 DUP4 PUSH2 0x24B7 JUMP JUMPDEST SWAP2 POP PUSH2 0x2DA4 DUP3 PUSH2 0x2D63 JUMP JUMPDEST PUSH1 0x20 DUP3 ADD SWAP1 POP SWAP2 SWAP1 POP JUMP JUMPDEST PUSH1 0x0 PUSH1 0x20 DUP3 ADD SWAP1 POP DUP2 DUP2 SUB PUSH1 0x0 DUP4 ADD MSTORE PUSH2 0x2DC8 DUP2 PUSH2 0x2D8C JUMP JUMPDEST SWAP1 POP SWAP2 SWAP1 POP JUMP JUMPDEST PUSH1 0x0 PUSH1 0x60 DUP3 ADD SWAP1 POP PUSH2 0x2DE4 PUSH1 0x0 DUP4 ADD DUP7 PUSH2 0x2546 JUMP JUMPDEST PUSH2 0x2DF1 PUSH1 0x20 DUP4 ADD DUP6 PUSH2 0x2546 JUMP JUMPDEST PUSH2 0x2DFE PUSH1 0x40 DUP4 ADD DUP5 PUSH2 0x247A JUMP JUMPDEST SWAP5 SWAP4 POP POP POP POP JUMP JUMPDEST PUSH2 0x2E0F DUP2 PUSH2 0x252B JUMP JUMPDEST DUP2 EQ PUSH2 0x2E1A JUMPI PUSH1 0x0 DUP1 REVERT JUMPDEST POP JUMP JUMPDEST PUSH1 0x0 DUP2 MLOAD SWAP1 POP PUSH2 0x2E2C DUP2 PUSH2 0x2E06 JUMP JUMPDEST SWAP3 SWAP2 POP POP JUMP JUMPDEST PUSH1 0x0 PUSH1 0x20 DUP3 DUP5 SUB SLT ISZERO PUSH2 0x2E48 JUMPI PUSH2 0x2E47 PUSH2 0x21A5 JUMP JUMPDEST JUMPDEST PUSH1 0x0 PUSH2 0x2E56 DUP5 DUP3 DUP6 ADD PUSH2 0x2E1D JUMP JUMPDEST SWAP2 POP POP SWAP3 SWAP2 POP POP JUMP JUMPDEST PUSH32 0x546F6B656E207472616E73666572206661696C65642E00000000000000000000 PUSH1 0x0 DUP3 ADD MSTORE POP JUMP JUMPDEST PUSH1 0x0 PUSH2 0x2E95 PUSH1 0x16 DUP4 PUSH2 0x24B7 JUMP JUMPDEST SWAP2 POP PUSH2 0x2EA0 DUP3 PUSH2 0x2E5F JUMP JUMPDEST PUSH1 0x20 DUP3 ADD SWAP1 POP SWAP2 SWAP1 POP JUMP JUMPDEST PUSH1 0x0 PUSH1 0x20 DUP3 ADD SWAP1 POP DUP2 DUP2 SUB PUSH1 0x0 DUP4 ADD MSTORE PUSH2 0x2EC4 DUP2 PUSH2 0x2E88 JUMP JUMPDEST SWAP1 POP SWAP2 SWAP1 POP JUMP JUMPDEST PUSH1 0x0 PUSH1 0x20 DUP3 ADD SWAP1 POP PUSH2 0x2EE0 PUSH1 0x0 DUP4 ADD DUP5 PUSH2 0x247A JUMP JUMPDEST SWAP3 SWAP2 POP POP JUMP JUMPDEST PUSH32 0x4F6E6C79207468652070617373656E6765722063616E20636F6E6669726D2074 PUSH1 0x0 DUP3 ADD MSTORE PUSH32 0x6865207269646520636F6D706C6574696F6E2E00000000000000000000000000 PUSH1 0x20 DUP3 ADD MSTORE POP JUMP JUMPDEST PUSH1 0x0 PUSH2 0x2F42 PUSH1 0x33 DUP4 PUSH2 0x24B7 JUMP JUMPDEST SWAP2 POP PUSH2 0x2F4D DUP3 PUSH2 0x2EE6 JUMP JUMPDEST PUSH1 0x40 DUP3 ADD SWAP1 POP SWAP2 SWAP1 POP JUMP JUMPDEST PUSH1 0x0 PUSH1 0x20 DUP3 ADD SWAP1 POP DUP2 DUP2 SUB PUSH1 0x0 DUP4 ADD MSTORE PUSH2 0x2F71 DUP2 PUSH2 0x2F35 JUMP JUMPDEST SWAP1 POP SWAP2 SWAP1 POP JUMP JUMPDEST PUSH32 0x5269646520686173206E6F74206265656E206D61726B656420617320636F6D70 PUSH1 0x0 DUP3 ADD MSTORE PUSH32 0x6C6574656420627920746865206472697665722E000000000000000000000000 PUSH1 0x20 DUP3 ADD MSTORE POP JUMP JUMPDEST PUSH1 0x0 PUSH2 0x2FD4 PUSH1 0x34 DUP4 PUSH2 0x24B7 JUMP JUMPDEST SWAP2 POP PUSH2 0x2FDF DUP3 PUSH2 0x2F78 JUMP JUMPDEST PUSH1 0x40 DUP3 ADD SWAP1 POP SWAP2 SWAP1 POP JUMP JUMPDEST PUSH1 0x0 PUSH1 0x20 DUP3 ADD SWAP1 POP DUP2 DUP2 SUB PUSH1 0x0 DUP4 ADD MSTORE PUSH2 0x3003 DUP2 PUSH2 0x2FC7 JUMP JUMPDEST SWAP1 POP SWAP2 SWAP1 POP JUMP JUMPDEST PUSH32 0x526964652068617320616C7265616479206265656E20636F6E6669726D656420 PUSH1 0x0 DUP3 ADD MSTORE PUSH32 0x6279207468652070617373656E6765722E000000000000000000000000000000 PUSH1 0x20 DUP3 ADD MSTORE POP JUMP JUMPDEST PUSH1 0x0 PUSH2 0x3066 PUSH1 0x31 DUP4 PUSH2 0x24B7 JUMP JUMPDEST SWAP2 POP PUSH2 0x3071 DUP3 PUSH2 0x300A JUMP JUMPDEST PUSH1 0x40 DUP3 ADD SWAP1 POP SWAP2 SWAP1 POP JUMP JUMPDEST PUSH1 0x0 PUSH1 0x20 DUP3 ADD SWAP1 POP DUP2 DUP2 SUB PUSH1 0x0 DUP4 ADD MSTORE PUSH2 0x3095 DUP2 PUSH2 0x3059 JUMP JUMPDEST SWAP1 POP SWAP2 SWAP1 POP JUMP JUMPDEST PUSH32 0x4E487B7100000000000000000000000000000000000000000000000000000000 PUSH1 0x0 MSTORE PUSH1 0x11 PUSH1 0x4 MSTORE PUSH1 0x24 PUSH1 0x0 REVERT JUMPDEST PUSH1 0x0 PUSH2 0x30D6 DUP3 PUSH2 0x22D4 JUMP JUMPDEST SWAP2 POP PUSH2 0x30E1 DUP4 PUSH2 0x22D4 JUMP JUMPDEST SWAP3 POP DUP3 DUP3 ADD SWAP1 POP DUP1 DUP3 GT ISZERO PUSH2 0x30F9 JUMPI PUSH2 0x30F8 PUSH2 0x309C JUMP JUMPDEST JUMPDEST SWAP3 SWAP2 POP POP JUMP JUMPDEST PUSH1 0x0 PUSH1 0x40 DUP3 ADD SWAP1 POP PUSH2 0x3114 PUSH1 0x0 DUP4 ADD DUP6 PUSH2 0x2546 JUMP JUMPDEST PUSH2 0x3121 PUSH1 0x20 DUP4 ADD DUP5 PUSH2 0x247A JUMP JUMPDEST SWAP4 SWAP3 POP POP POP JUMP JUMPDEST PUSH32 0x546F6B656E207472616E7366657220746F20647269766572206661696C65642E PUSH1 0x0 DUP3 ADD MSTORE POP JUMP JUMPDEST PUSH1 0x0 PUSH2 0x315E PUSH1 0x20 DUP4 PUSH2 0x24B7 JUMP JUMPDEST SWAP2 POP PUSH2 0x3169 DUP3 PUSH2 0x3128 JUMP JUMPDEST PUSH1 0x20 DUP3 ADD SWAP1 POP SWAP2 SWAP1 POP JUMP JUMPDEST PUSH1 0x0 PUSH1 0x20 DUP3 ADD SWAP1 POP DUP2 DUP2 SUB PUSH1 0x0 DUP4 ADD MSTORE PUSH2 0x318D DUP2 PUSH2 0x3151 JUMP JUMPDEST SWAP1 POP SWAP2 SWAP1 POP JUMP JUMPDEST PUSH32 0x596F7520616C7265616479206861766520612070656E64696E67207269646520 PUSH1 0x0 DUP3 ADD MSTORE PUSH32 0x726571756573742E000000000000000000000000000000000000000000000000 PUSH1 0x20 DUP3 ADD MSTORE POP JUMP JUMPDEST PUSH1 0x0 PUSH2 0x31F0 PUSH1 0x28 DUP4 PUSH2 0x24B7 JUMP JUMPDEST SWAP2 POP PUSH2 0x31FB DUP3 PUSH2 0x3194 JUMP JUMPDEST PUSH1 0x40 DUP3 ADD SWAP1 POP SWAP2 SWAP1 POP JUMP JUMPDEST PUSH1 0x0 PUSH1 0x20 DUP3 ADD SWAP1 POP DUP2 DUP2 SUB PUSH1 0x0 DUP4 ADD MSTORE PUSH2 0x321F DUP2 PUSH2 0x31E3 JUMP JUMPDEST SWAP1 POP SWAP2 SWAP1 POP JUMP JUMPDEST PUSH1 0x0 DUP2 SWAP1 POP DUP2 PUSH1 0x0 MSTORE PUSH1 0x20 PUSH1 0x0 KECCAK256 SWAP1 POP SWAP2 SWAP1 POP JUMP JUMPDEST PUSH1 0x0 PUSH1 0x20 PUSH1 0x1F DUP4 ADD DIV SWAP1 POP SWAP2 SWAP1 POP JUMP JUMPDEST PUSH1 0x0 DUP3 DUP3 SHL SWAP1 POP SWAP3 SWAP2 POP POP JUMP JUMPDEST PUSH1 0x0 PUSH1 0x8 DUP4 MUL PUSH2 0x3288 PUSH32 0xFFFFFFFFFFFFFFFFFFFFFFFFFFFFFFFFFFFFFFFFFFFFFFFFFFFFFFFFFFFFFFFF DUP3 PUSH2 0x324B JUMP JUMPDEST PUSH2 0x3292 DUP7 DUP4 PUSH2 0x324B JUMP JUMPDEST SWAP6 POP DUP1 NOT DUP5 AND SWAP4 POP DUP1 DUP7 AND DUP5 OR SWAP3 POP POP POP SWAP4 SWAP3 POP POP POP JUMP JUMPDEST PUSH1 0x0 PUSH2 0x32C5 PUSH2 0x32C0 PUSH2 0x32BB DUP5 PUSH2 0x22D4 JUMP JUMPDEST PUSH2 0x2946 JUMP JUMPDEST PUSH2 0x22D4 JUMP JUMPDEST SWAP1 POP SWAP2 SWAP1 POP JUMP JUMPDEST PUSH1 0x0 DUP2 SWAP1 POP SWAP2 SWAP1 POP JUMP JUMPDEST PUSH2 0x32DF DUP4 PUSH2 0x32AA JUMP JUMPDEST PUSH2 0x32F3 PUSH2 0x32EB DUP3 PUSH2 0x32CC JUMP JUMPDEST DUP5 DUP5 SLOAD PUSH2 0x3258 JUMP JUMPDEST DUP3 SSTORE POP POP POP POP JUMP JUMPDEST PUSH1 0x0 SWAP1 JUMP JUMPDEST PUSH2 0x3308 PUSH2 0x32FB JUMP JUMPDEST PUSH2 0x3313 DUP2 DUP5 DUP5 PUSH2 0x32D6 JUMP JUMPDEST POP POP POP JUMP JUMPDEST JUMPDEST DUP2 DUP2 LT ISZERO PUSH2 0x3337 JUMPI PUSH2 0x332C PUSH1 0x0 DUP3 PUSH2 0x3300 JUMP JUMPDEST PUSH1 0x1 DUP2 ADD SWAP1 POP PUSH2 0x3319 JUMP JUMPDEST POP POP JUMP JUMPDEST PUSH1 0x1F DUP3 GT ISZERO PUSH2 0x337C JUMPI PUSH2 0x334D DUP2 PUSH2 0x3226 JUMP JUMPDEST PUSH2 0x3356 DUP5 PUSH2 0x323B JUMP JUMPDEST DUP2 ADD PUSH1 0x20 DUP6 LT ISZERO PUSH2 0x3365 JUMPI DUP2 SWAP1 POP JUMPDEST PUSH2 0x3379 PUSH2 0x3371 DUP6 PUSH2 0x323B JUMP JUMPDEST DUP4 ADD DUP3 PUSH2 0x3318 JUMP JUMPDEST POP POP JUMPDEST POP POP POP JUMP JUMPDEST PUSH1 0x0 DUP3 DUP3 SHR SWAP1 POP SWAP3 SWAP2 POP POP JUMP JUMPDEST PUSH1 0x0 PUSH2 0x339F PUSH1 0x0 NOT DUP5 PUSH1 0x8 MUL PUSH2 0x3381 JUMP JUMPDEST NOT DUP1 DUP4 AND SWAP2 POP POP SWAP3 SWAP2 POP POP JUMP JUMPDEST PUSH1 0x0 PUSH2 0x33B8 DUP4 DUP4 PUSH2 0x338E JUMP JUMPDEST SWAP2 POP DUP3 PUSH1 0x2 MUL DUP3 OR SWAP1 POP SWAP3 SWAP2 POP POP JUMP JUMPDEST PUSH2 0x33D1 DUP3 PUSH2 0x24AC JUMP JUMPDEST PUSH8 0xFFFFFFFFFFFFFFFF DUP2 GT ISZERO PUSH2 0x33EA JUMPI PUSH2 0x33E9 PUSH2 0x2223 JUMP JUMPDEST JUMPDEST PUSH2 0x33F4 DUP3 SLOAD PUSH2 0x2B42 JUMP JUMPDEST PUSH2 0x33FF DUP3 DUP3 DUP6 PUSH2 0x333B JUMP JUMPDEST PUSH1 0x0 PUSH1 0x20 SWAP1 POP PUSH1 0x1F DUP4 GT PUSH1 0x1 DUP2 EQ PUSH2 0x3432 JUMPI PUSH1 0x0 DUP5 ISZERO PUSH2 0x3420 JUMPI DUP3 DUP8 ADD MLOAD SWAP1 POP JUMPDEST PUSH2 0x342A DUP6 DUP3 PUSH2 0x33AC JUMP JUMPDEST DUP7 SSTORE POP PUSH2 0x3492 JUMP JUMPDEST PUSH1 0x1F NOT DUP5 AND PUSH2 0x3440 DUP7 PUSH2 0x3226 JUMP JUMPDEST PUSH1 0x0 JUMPDEST DUP3 DUP2 LT ISZERO PUSH2 0x3468 JUMPI DUP5 DUP10 ADD MLOAD DUP3 SSTORE PUSH1 0x1 DUP3 ADD SWAP2 POP PUSH1 0x20 DUP6 ADD SWAP5 POP PUSH1 0x20 DUP2 ADD SWAP1 POP PUSH2 0x3443 JUMP JUMPDEST DUP7 DUP4 LT ISZERO PUSH2 0x3485 JUMPI DUP5 DUP10 ADD MLOAD PUSH2 0x3481 PUSH1 0x1F DUP10 AND DUP3 PUSH2 0x338E JUMP JUMPDEST DUP4 SSTORE POP JUMPDEST PUSH1 0x1 PUSH1 0x2 DUP9 MUL ADD DUP9 SSTORE POP POP POP JUMPDEST POP POP POP POP POP POP JUMP JUMPDEST PUSH1 0x0 PUSH1 0x60 DUP3 ADD SWAP1 POP DUP2 DUP2 SUB PUSH1 0x0 DUP4 ADD MSTORE PUSH2 0x34B4 DUP2 DUP7 PUSH2 0x24F2 JUMP JUMPDEST SWAP1 POP DUP2 DUP2 SUB PUSH1 0x20 DUP4 ADD MSTORE PUSH2 0x34C8 DUP2 DUP6 PUSH2 0x24F2 JUMP JUMPDEST SWAP1 POP PUSH2 0x34D7 PUSH1 0x40 DUP4 ADD DUP5 PUSH2 0x249D JUMP JUMPDEST SWAP5 SWAP4 POP POP POP POP JUMP JUMPDEST PUSH32 0x5269646520726571756573742068617320616C7265616479206265656E20636F PUSH1 0x0 DUP3 ADD MSTORE PUSH32 0x6E6669726D65642E000000000000000000000000000000000000000000000000 PUSH1 0x20 DUP3 ADD MSTORE POP JUMP JUMPDEST PUSH1 0x0 PUSH2 0x353B PUSH1 0x28 DUP4 PUSH2 0x24B7 JUMP JUMPDEST SWAP2 POP PUSH2 0x3546 DUP3 PUSH2 0x34DF JUMP JUMPDEST PUSH1 0x40 DUP3 ADD SWAP1 POP SWAP2 SWAP1 POP JUMP JUMPDEST PUSH1 0x0 PUSH1 0x20 DUP3 ADD SWAP1 POP DUP2 DUP2 SUB PUSH1 0x0 DUP4 ADD MSTORE PUSH2 0x356A DUP2 PUSH2 0x352E JUMP JUMPDEST SWAP1 POP SWAP2 SWAP1 POP JUMP JUMPDEST PUSH32 0x526964652072657175657374206973206E6F742061636365707465642E000000 PUSH1 0x0 DUP3 ADD MSTORE POP JUMP JUMPDEST PUSH1 0x0 PUSH2 0x35A7 PUSH1 0x1D DUP4 PUSH2 0x24B7 JUMP JUMPDEST SWAP2 POP PUSH2 0x35B2 DUP3 PUSH2 0x3571 JUMP JUMPDEST PUSH1 0x20 DUP3 ADD SWAP1 POP SWAP2 SWAP1 POP JUMP JUMPDEST PUSH1 0x0 PUSH1 0x20 DUP3 ADD SWAP1 POP DUP2 DUP2 SUB PUSH1 0x0 DUP4 ADD MSTORE PUSH2 0x35D6 DUP2 PUSH2 0x359A JUMP JUMPDEST SWAP1 POP SWAP2 SWAP1 POP JUMP JUMPDEST PUSH32 0x526964652072657175657374206973206E6F7420636F6E6669726D65642E0000 PUSH1 0x0 DUP3 ADD MSTORE POP JUMP JUMPDEST PUSH1 0x0 PUSH2 0x3613 PUSH1 0x1E DUP4 PUSH2 0x24B7 JUMP JUMPDEST SWAP2 POP PUSH2 0x361E DUP3 PUSH2 0x35DD JUMP JUMPDEST PUSH1 0x20 DUP3 ADD SWAP1 POP SWAP2 SWAP1 POP JUMP JUMPDEST PUSH1 0x0 PUSH1 0x20 DUP3 ADD SWAP1 POP DUP2 DUP2 SUB PUSH1 0x0 DUP4 ADD MSTORE PUSH2 0x3642 DUP2 PUSH2 0x3606 JUMP JUMPDEST SWAP1 POP SWAP2 SWAP1 POP JUMP JUMPDEST PUSH32 0x4F6E6C7920746865206472697665722063616E20636F6D706C65746520746865 PUSH1 0x0 DUP3 ADD MSTORE PUSH32 0x20726964652E0000000000000000000000000000000000000000000000000000 PUSH1 0x20 DUP3 ADD MSTORE POP JUMP JUMPDEST PUSH1 0x0 PUSH2 0x36A5 PUSH1 0x26 DUP4 PUSH2 0x24B7 JUMP JUMPDEST SWAP2 POP PUSH2 0x36B0 DUP3 PUSH2 0x3649 JUMP JUMPDEST PUSH1 0x40 DUP3 ADD SWAP1 POP SWAP2 SWAP1 POP JUMP JUMPDEST PUSH1 0x0 PUSH1 0x20 DUP3 ADD SWAP1 POP DUP2 DUP2 SUB PUSH1 0x0 DUP4 ADD MSTORE PUSH2 0x36D4 DUP2 PUSH2 0x3698 JUMP JUMPDEST SWAP1 POP SWAP2 SWAP1 POP JUMP INVALID LOG2 PUSH5 0x6970667358 0x22 SLT KECCAK256 0xE4 SWAP6 LOG4 0xEE SDIV 0xC0 0x24 0xC7 0xA5 PUSH13 0xE1BB6F6F9146E6437058D945F8 JUMPI 0xF7 PUSH24 0xEA7DD45CB2D964736F6C6343000818003300000000000000 "
        },
        "methodIdentifiers": {
          "acceptRide(address,uint256)": "9547b4ea",
          "completeRide(address)": "e99d18e4",
          "confirmRide()": "b08ae970",
          "confirmRideCompletion()": "9a0eb968",
          "getRideCoordinates(address)": "9a45058a",
          "getRideStatus(address)": "1f892445",
          "requestRide(string,string,uint64)": "ade6359c",
          "rideRequests(address)": "c2d8b28f",
          "submitRideCoordinates(address,(uint256,uint256)[])": "0e0c7aa2",
          "token()": "fc0c546a"
        }
      }
    }
  }
}