{
  "contractName": "RideShare",
  "abi": [
    {
      "inputs": [
        {
          "internalType": "address",
          "name": "",
          "type": "address"
        }
      ],
      "name": "passengerCounter",
      "outputs": [
        {
          "internalType": "uint256",
          "name": "",
          "type": "uint256"
        }
      ],
      "stateMutability": "view",
      "type": "function",
      "constant": true
    },
    {
      "inputs": [
        {
          "internalType": "address",
          "name": "",
          "type": "address"
        },
        {
          "internalType": "uint256",
          "name": "",
          "type": "uint256"
        }
      ],
      "name": "passengers",
      "outputs": [
        {
          "internalType": "uint256",
          "name": "id",
          "type": "uint256"
        },
        {
          "internalType": "string",
          "name": "name",
          "type": "string"
        },
        {
          "internalType": "string",
          "name": "phoneNumber",
          "type": "string"
        },
        {
          "internalType": "uint256",
          "name": "numberOfPeople",
          "type": "uint256"
        },
        {
          "internalType": "string",
          "name": "state",
          "type": "string"
        }
      ],
      "stateMutability": "view",
      "type": "function",
      "constant": true
    },
    {
      "inputs": [],
      "name": "rideCounter",
      "outputs": [
        {
          "internalType": "uint256",
          "name": "",
          "type": "uint256"
        }
      ],
      "stateMutability": "view",
      "type": "function",
      "constant": true
    },
    {
      "inputs": [
        {
          "internalType": "uint256",
          "name": "",
          "type": "uint256"
        }
      ],
      "name": "rides",
      "outputs": [
        {
          "internalType": "uint256",
          "name": "id",
          "type": "uint256"
        },
        {
          "internalType": "address",
          "name": "driver",
          "type": "address"
        },
        {
          "internalType": "uint256",
          "name": "drivingCost",
          "type": "uint256"
        },
        {
          "internalType": "uint256",
          "name": "capacity",
          "type": "uint256"
        },
        {
          "internalType": "uint256",
          "name": "confirmedAt",
          "type": "uint256"
        },
        {
          "internalType": "string",
          "name": "originAddress",
          "type": "string"
        },
        {
          "internalType": "string",
          "name": "destAddress",
          "type": "string"
        }
      ],
      "stateMutability": "view",
      "type": "function",
      "constant": true
    },
    {
      "inputs": [
        {
          "internalType": "uint256",
          "name": "_drivingCost",
          "type": "uint256"
        },
        {
          "internalType": "uint256",
          "name": "_capacity",
          "type": "uint256"
        },
        {
          "internalType": "uint256",
          "name": "_confirmedAt",
          "type": "uint256"
        },
        {
          "internalType": "string",
          "name": "_originAddress",
          "type": "string"
        },
        {
          "internalType": "string",
          "name": "_destAddress",
          "type": "string"
        }
      ],
      "name": "createRide",
      "outputs": [],
      "stateMutability": "payable",
      "type": "function",
      "payable": true
    }
  ],
  "bytecode": "0x6080604052600060035534801561001557600080fd5b50610e64806100256000396000f3fe60806040526004361061004a5760003560e01c8063042b11c51461004f5780635205f112146100905780636e02abb0146100d3578063b10fefc014610110578063c8f8b6c21461013b575b600080fd5b34801561005b57600080fd5b5061007660048036038101906100719190610965565b610157565b604051610087959493929190610bc9565b60405180910390f35b34801561009c57600080fd5b506100b760048036038101906100b291906109a1565b610332565b6040516100ca9796959493929190610b4c565b60405180910390f35b3480156100df57600080fd5b506100fa60048036038101906100f5919061093c565b6104b4565b6040516101079190610b31565b60405180910390f35b34801561011c57600080fd5b506101256104cc565b6040516101329190610b31565b60405180910390f35b610155600480360381019061015091906109ca565b6104d2565b005b60006020528160005260406000206020528060005260406000206000915091505080600001549080600101805461018d90610d16565b80601f01602080910402602001604051908101604052809291908181526020018280546101b990610d16565b80156102065780601f106101db57610100808354040283529160200191610206565b820191906000526020600020905b8154815290600101906020018083116101e957829003601f168201915b50505050509080600201805461021b90610d16565b80601f016020809104026020016040519081016040528092919081815260200182805461024790610d16565b80156102945780601f1061026957610100808354040283529160200191610294565b820191906000526020600020905b81548152906001019060200180831161027757829003601f168201915b5050505050908060030154908060040180546102af90610d16565b80601f01602080910402602001604051908101604052809291908181526020018280546102db90610d16565b80156103285780601f106102fd57610100808354040283529160200191610328565b820191906000526020600020905b81548152906001019060200180831161030b57829003601f168201915b5050505050905085565b6002818154811061034257600080fd5b90600052602060002090600802016000915090508060000154908060010160009054906101000a900473ffffffffffffffffffffffffffffffffffffffff16908060020154908060030154908060040154908060050180546103a390610d16565b80601f01602080910402602001604051908101604052809291908181526020018280546103cf90610d16565b801561041c5780601f106103f15761010080835404028352916020019161041c565b820191906000526020600020905b8154815290600101906020018083116103ff57829003601f168201915b50505050509080600601805461043190610d16565b80601f016020809104026020016040519081016040528092919081815260200182805461045d90610d16565b80156104aa5780601f1061047f576101008083540402835291602001916104aa565b820191906000526020600020905b81548152906001019060200180831161048d57829003601f168201915b5050505050905087565b60016020528060005260406000206000915090505481565b60035481565b6104da610740565b600081600001818152505033816020019073ffffffffffffffffffffffffffffffffffffffff16908173ffffffffffffffffffffffffffffffffffffffff168152505087816040018181525050868160600181815250508581608001818152505084848080601f016020809104026020016040519081016040528093929190818152602001838380828437600081840152601f19601f820116905080830192505050505050508160a0018190525082828080601f016020809104026020016040519081016040528093929190818152602001838380828437600081840152601f19601f820116905080830192505050505050508160c00181905250670de0b6b3a7640000886105e99190610c4d565b341461062a576040517f08c379a000000000000000000000000000000000000000000000000000000000815260040161062190610b11565b60405180910390fd5b60028190806001815401808255809150506001900390600052602060002090600802016000909190919091506000820151816000015560208201518160010160006101000a81548173ffffffffffffffffffffffffffffffffffffffff021916908373ffffffffffffffffffffffffffffffffffffffff16021790555060408201518160020155606082015181600301556080820151816004015560a08201518160050190805190602001906106e192919061079b565b5060c08201518160060190805190602001906106fe92919061079b565b5060e082015181600701908051906020019061071b929190610821565b5050506003600081548092919061073190610d48565b91905055505050505050505050565b60405180610100016040528060008152602001600073ffffffffffffffffffffffffffffffffffffffff1681526020016000815260200160008152602001600081526020016060815260200160608152602001606081525090565b8280546107a790610d16565b90600052602060002090601f0160209004810192826107c95760008555610810565b82601f106107e257805160ff1916838001178555610810565b82800160010185558215610810579182015b8281111561080f5782518255916020019190600101906107f4565b5b50905061081d91906108ab565b5090565b82805482825590600052602060002090810192821561089a579160200282015b828111156108995782518260006101000a81548173ffffffffffffffffffffffffffffffffffffffff021916908373ffffffffffffffffffffffffffffffffffffffff16021790555091602001919060010190610841565b5b5090506108a791906108ab565b5090565b5b808211156108c45760008160009055506001016108ac565b5090565b6000813590506108d781610e00565b92915050565b60008083601f8401126108ef57600080fd5b8235905067ffffffffffffffff81111561090857600080fd5b60208301915083600182028301111561092057600080fd5b9250929050565b60008135905061093681610e17565b92915050565b60006020828403121561094e57600080fd5b600061095c848285016108c8565b91505092915050565b6000806040838503121561097857600080fd5b6000610986858286016108c8565b925050602061099785828601610927565b9150509250929050565b6000602082840312156109b357600080fd5b60006109c184828501610927565b91505092915050565b600080600080600080600060a0888a0312156109e557600080fd5b60006109f38a828b01610927565b9750506020610a048a828b01610927565b9650506040610a158a828b01610927565b955050606088013567ffffffffffffffff811115610a3257600080fd5b610a3e8a828b016108dd565b9450945050608088013567ffffffffffffffff811115610a5d57600080fd5b610a698a828b016108dd565b925092505092959891949750929550565b610a8381610ca7565b82525050565b6000610a9482610c31565b610a9e8185610c3c565b9350610aae818560208601610ce3565b610ab781610def565b840191505092915050565b6000610acf601983610c3c565b91507f4372656174653a204e6f7420656e6f75676820657468657221000000000000006000830152602082019050919050565b610b0b81610cd9565b82525050565b60006020820190508181036000830152610b2a81610ac2565b9050919050565b6000602082019050610b466000830184610b02565b92915050565b600060e082019050610b61600083018a610b02565b610b6e6020830189610a7a565b610b7b6040830188610b02565b610b886060830187610b02565b610b956080830186610b02565b81810360a0830152610ba78185610a89565b905081810360c0830152610bbb8184610a89565b905098975050505050505050565b600060a082019050610bde6000830188610b02565b8181036020830152610bf08187610a89565b90508181036040830152610c048186610a89565b9050610c136060830185610b02565b8181036080830152610c258184610a89565b90509695505050505050565b600081519050919050565b600082825260208201905092915050565b6000610c5882610cd9565b9150610c6383610cd9565b9250817fffffffffffffffffffffffffffffffffffffffffffffffffffffffffffffffff0483118215151615610c9c57610c9b610d91565b5b828202905092915050565b6000610cb282610cb9565b9050919050565b600073ffffffffffffffffffffffffffffffffffffffff82169050919050565b6000819050919050565b60005b83811015610d01578082015181840152602081019050610ce6565b83811115610d10576000848401525b50505050565b60006002820490506001821680610d2e57607f821691505b60208210811415610d4257610d41610dc0565b5b50919050565b6000610d5382610cd9565b91507fffffffffffffffffffffffffffffffffffffffffffffffffffffffffffffffff821415610d8657610d85610d91565b5b600182019050919050565b7f4e487b7100000000000000000000000000000000000000000000000000000000600052601160045260246000fd5b7f4e487b7100000000000000000000000000000000000000000000000000000000600052602260045260246000fd5b6000601f19601f8301169050919050565b610e0981610ca7565b8114610e1457600080fd5b50565b610e2081610cd9565b8114610e2b57600080fd5b5056fea2646970667358221220453a834872a505d7c60b9760d7c847b75040970d38b5d49d339becf11af5799164736f6c63430008000033",
  "immutableReferences": {},
  "source": "// SPDX-License-Identifier: GPL-3.0\r\npragma solidity >=0.7.0 <0.9.0;\r\n\r\ncontract RideShare {\r\n\r\n    struct Passenger {\r\n        uint id;\r\n        string name;\r\n        string phoneNumber;\r\n        uint256 numberOfPeople;\r\n        string state;\r\n    }\r\n    \r\n    mapping(address => mapping(uint => Passenger)) public passengers;\r\n    mapping(address => uint) public passengerCounter;\r\n\r\n    struct Ride {\r\n        uint id;\r\n        address driver;\r\n        uint256 drivingCost;\r\n        uint256 capacity;\r\n        uint256 confirmedAt;\r\n        string originAddress;\r\n        string destAddress;\r\n        address payable[] passengerAccounts;\r\n    }\r\n\r\n    Ride[] public rides;\r\n    uint256 public rideCounter = 0;\r\n    // mapping(address => uint256) balances;\r\n\r\n    // uint256 public count = 0;\r\n    // uint256 public startTime; \r\n    // uint256 public endTime; \r\n    // uint256 public limitTime = 3;\r\n\r\n    // event PassengerAdded(string _name, string _phoneNumber, uint256 _noPeople, string _state);\r\n\r\n    // function addPassenger(\r\n    //     string memory _name,\r\n    //     string memory _phoneNumber,\r\n    //     uint256 _numberOfPeople,\r\n    //     string memory _state\r\n    // ) public {\r\n    //     // emit LogPassenger(_name, _phoneNumber, _numberOfPeople, _state);\r\n    //     passengerCounter[msg.sender] = 0;\r\n    //     uint psgCount = passengerCounter[msg.sender];\r\n\r\n    //     Passenger memory newPassenger = Passenger({\r\n    //         id: psgCount,\r\n    //         name: _name,\r\n    //         phoneNumber: _phoneNumber,\r\n    //         numberOfPeople: _numberOfPeople,\r\n    //         state: _state\r\n    //     });\r\n\r\n    //     passengers[msg.sender][psgCount] = newPassenger;\r\n\r\n    //     // emit PassengerAdded( _name, _phoneNumber, _numberOfPeople, _state);\r\n    //     passengerCounter[msg.sender]++;\r\n    // }\r\n\r\n    // function balanceOf(address account) public view returns (uint256) {\r\n    //     return balances[account];\r\n    // }\r\n\r\n    // Function to create a new ride\r\n    function createRide (\r\n        uint256 _drivingCost,\r\n        uint _capacity,\r\n        uint256 _confirmedAt,\r\n        string calldata _originAddress,\r\n        string calldata _destAddress\r\n    ) external payable{\r\n        // Ride memory newRide = Ride({\r\n        //     id: rideCounter,\r\n        //     driver: msg.sender\r\n        //     drivingCost: _drivingCost\r\n        //     capacity: _capacity\r\n        //     confirmedAt: _confirmedAt\r\n        //     originAddress: _originAddress\r\n        //     destAddress: _destAddress\r\n        //     passengerAccounts: new address payable[](0)\r\n        // });\r\n\r\n        Ride memory newRide;\r\n        newRide.id = 0;\r\n        newRide.driver = msg.sender;\r\n        newRide.drivingCost = _drivingCost;\r\n        newRide.capacity = _capacity;\r\n        newRide.confirmedAt = _confirmedAt;\r\n        newRide.originAddress = _originAddress;\r\n        newRide.destAddress = _destAddress;\r\n\r\n        require(uint256(msg.value) == uint256(_drivingCost)*1e18, \"Create: Not enough ether!\");\r\n\r\n        // startTime = block.timestamp;\r\n        rides.push(newRide);\r\n        rideCounter++;\r\n    }\r\n\r\n    // function retrieveRide(uint _index) view public returns (Ride memory) {\r\n    //     return rides[_index];\r\n    // }\r\n\r\n    // // Ly ra cc a ch ca khch hng tham gia vo chuyn i th index\r\n    // function retrieveAllPassengers(uint256 _idxRide) public view returns  (address payable[]  memory) {\r\n    //     return rides[_idxRide].passengerAccounts;\r\n    // }\r\n   \r\n    // // Ly ra a ch ca khch hng tham gia vo chuyn i th index\r\n    // function retrieveOnePassenger(uint256 _idxRide) public view returns (address) {\r\n    //     address pAddress;\r\n    //     for (uint256 i = 0; i < rides[_idxRide].passengerAccounts.length; i++) {\r\n    //         // Kim tra thng sender (thng gi ng  tham gia transaction) c trong chuyn i hay khng\r\n    //         if (msg.sender == rides[_idxRide].passengerAccounts[i]){\r\n    //             pAddress = rides[_idxRide].passengerAccounts[i];\r\n    //             break;\r\n    //         }\r\n    //     }\r\n        \r\n    //     require(pAddress != address(0), \"Retrieve One Passenger: This account does not participate in the ride\");\r\n    //     return pAddress;\r\n    // }\r\n\r\n    // // 1. Khch hng xc nhn tham gia vo transaction (t xe) - Khch hng\r\n    // function joinRide(uint256 _idxRide) public payable{\r\n    //     require(msg.sender != rides[_idxRide].driver, \"Join Ride: This is driver address, the ride need a passenger join\");\r\n\r\n    //     // n v c s dng  y l wei \r\n    //     require(uint256(msg.value) == uint256(rides[_idxRide].drivingCost), \"Join Ride: Not enough ether!\");\r\n    //     rides[_idxRide].passengerAccounts.push(payable(msg.sender));\r\n\r\n        \r\n    //     // 2. Cp nht trng thi ca khch hng khi mi tham gia vo mng (Sau khi joinRide) - H thng\r\n    //     passengers[msg.sender][_idxRide].state = \"initial\";\r\n    // }\r\n\r\n    // // 3. Cp nht trng thi ca khch hng khi c chp nhn chuyn i bi ti x - Ti x  (lm hnh ng g  trn giao din)\r\n    // function confirmDriverMet(uint256 _idxRide) public {\r\n    //     address payable[] memory allPassenger  = retrieveAllPassengers(_idxRide);\r\n\r\n    //     for (uint256 i = 0; i < allPassenger.length; i++) {\r\n    //         passengers[allPassenger[i]][_idxRide].state = \"confirm\";\r\n    //     }\r\n            \r\n    // }\r\n\r\n    // // 4. Khi kt thc chuyn i, ti x s thc hin ly tin ca hnh khch\r\n    // function arrived(uint256 _idxRide) public {\r\n    //     require(\r\n    //         msg.sender == rides[_idxRide].driver,\r\n    //         \"Only driver of the ride can call this function\"\r\n    //     );\r\n        \r\n    //     (bool callSuccess, ) = payable(msg.sender).call{value: address(this).balance}(\"\");\r\n    //     require(callSuccess, \"Withdraw coin in the contract failed\");\r\n\r\n    //     address payable[] memory allPassenger = retrieveAllPassengers(_idxRide);\r\n    //     for (uint256 i = 0; i < allPassenger.length; i++) {\r\n    //         // Convert address payable to address\r\n    //         address pAddress = address(allPassenger[i]);\r\n    //         passengers[pAddress][_idxRide].state = \"completion\";\r\n    //     }\r\n    // }\r\n\r\n    // event TransferReceived(address _from, uint _amount);\r\n    // event log(uint _message);\r\n\r\n    // // 5. Khi 1 trong 2 bn hy chuyn i \r\n    // function cancel(uint256 _idxRide) public payable {\r\n    //     address payable[] memory allPassenger = retrieveAllPassengers(_idxRide);\r\n    //     uint256 length = allPassenger.length;\r\n\r\n    //     // Khi transaction qu thi gian, coin c tr v cho ti x         \r\n\r\n    //     // Khi ti x hy\r\n    //     if(msg.sender == rides[_idxRide].driver) {  \r\n    //         uint256 shareETH = address(this).balance / allPassenger.length;\r\n    //         for (uint256 i = 0; i < length; i++) {\r\n    //             // Convert address payable to address\r\n    //             address pAddress = address(allPassenger[i]);\r\n    //             if(keccak256(abi.encodePacked(passengers[pAddress][_idxRide].state)) == keccak256(abi.encodePacked(\"confirm\"))) {\r\n    //                 (bool callSuccess, ) = payable(pAddress).call{value: shareETH}(\"\");\r\n    //                 require(callSuccess, \"Cancel: Transfer coin from driver to passenger failed\");\r\n    //                 passengers[pAddress][_idxRide].state = \"Cancel from driver\";\r\n    //             }\r\n    //         }\r\n    //         emit TransferReceived(msg.sender, msg.value);\r\n    //     } \r\n    //     else // khi khch hng hy\r\n    //     {               \r\n    //         for (uint256 i = 0; i < length; i++) {\r\n    //             // Convert address payable to address\r\n    //             address pAddress = address(allPassenger[i]);\r\n    //             if(msg.sender == pAddress) {\r\n    //                 if (length == 1) {\r\n    //                     (bool callSuccess, ) = payable(rides[_idxRide].driver).call{value: address(this).balance}(\"\");\r\n    //                     require(callSuccess, \"Cancel: Transfer coin from passenger to driver failed\");\r\n    //                 } else {\r\n    //                     (bool callSuccess, ) = payable(rides[_idxRide].driver).call{value: rides[_idxRide].drivingCost}(\"\");\r\n    //                     require(callSuccess, \"Cancel: Transfer coin from passenger to driver failed\");\r\n    //                 }\r\n    //                 emit log(length);\r\n                    \r\n    //                 passengers[pAddress][_idxRide].state = \"Cancel from passenger\";\r\n    //             }\r\n    //         }\r\n    //         // emit TransferReceived(msg.sender, msg.value);\r\n    //     } \r\n    // }\r\n\r\n}",
  "sourcePath": "C:\\Users\\Admin\\Downloads\\Project\\project-vanet-blockchain\\contracts\\RideShare.sol",
  "compiler": {
    "name": "solc",
    "version": "0.8.0+commit.c7dfd78e.Emscripten.clang"
  },
  "schemaVersion": "3.4.16",
  "updatedAt": "2024-04-16T02:51:07.094Z",
  "networkType": "ethereum",
  "devdoc": {
    "kind": "dev",
    "methods": {},
    "version": 1
  },
  "userdoc": {
    "kind": "user",
    "methods": {},
    "version": 1
  }
}