{
  "contractName": "RideShare",
  "abi": [
    {
      "inputs": [],
      "stateMutability": "nonpayable",
      "type": "constructor"
    },
    {
      "inputs": [
        {
          "internalType": "address",
          "name": "",
          "type": "address"
        },
        {
          "internalType": "uint256",
          "name": "",
          "type": "uint256"
        }
      ],
      "name": "createRequests",
      "outputs": [
        {
          "internalType": "uint256",
          "name": "",
          "type": "uint256"
        }
      ],
      "stateMutability": "view",
      "type": "function",
      "constant": true
    },
    {
      "inputs": [
        {
          "internalType": "address",
          "name": "",
          "type": "address"
        },
        {
          "internalType": "uint256",
          "name": "",
          "type": "uint256"
        }
      ],
      "name": "createRides",
      "outputs": [
        {
          "internalType": "uint256",
          "name": "",
          "type": "uint256"
        }
      ],
      "stateMutability": "view",
      "type": "function",
      "constant": true
    },
    {
      "inputs": [
        {
          "internalType": "address",
          "name": "",
          "type": "address"
        },
        {
          "internalType": "uint256",
          "name": "",
          "type": "uint256"
        }
      ],
      "name": "history",
      "outputs": [
        {
          "internalType": "uint256",
          "name": "",
          "type": "uint256"
        }
      ],
      "stateMutability": "view",
      "type": "function",
      "constant": true
    },
    {
      "inputs": [
        {
          "internalType": "address",
          "name": "",
          "type": "address"
        },
        {
          "internalType": "uint256",
          "name": "",
          "type": "uint256"
        }
      ],
      "name": "joinRides",
      "outputs": [
        {
          "internalType": "uint256",
          "name": "",
          "type": "uint256"
        }
      ],
      "stateMutability": "view",
      "type": "function",
      "constant": true
    },
    {
      "inputs": [
        {
          "internalType": "uint256",
          "name": "",
          "type": "uint256"
        }
      ],
      "name": "numOfPendings",
      "outputs": [
        {
          "internalType": "uint256",
          "name": "",
          "type": "uint256"
        }
      ],
      "stateMutability": "view",
      "type": "function",
      "constant": true
    },
    {
      "inputs": [],
      "name": "passengerCounter",
      "outputs": [
        {
          "internalType": "uint256",
          "name": "",
          "type": "uint256"
        }
      ],
      "stateMutability": "view",
      "type": "function",
      "constant": true
    },
    {
      "inputs": [
        {
          "internalType": "uint256",
          "name": "",
          "type": "uint256"
        }
      ],
      "name": "passengers",
      "outputs": [
        {
          "internalType": "uint256",
          "name": "id",
          "type": "uint256"
        },
        {
          "internalType": "string",
          "name": "name",
          "type": "string"
        },
        {
          "internalType": "string",
          "name": "phoneNumber",
          "type": "string"
        },
        {
          "internalType": "string",
          "name": "originAddress",
          "type": "string"
        },
        {
          "internalType": "string",
          "name": "destAddress",
          "type": "string"
        },
        {
          "internalType": "uint256",
          "name": "numberOfPeople",
          "type": "uint256"
        },
        {
          "internalType": "string",
          "name": "state",
          "type": "string"
        }
      ],
      "stateMutability": "view",
      "type": "function",
      "constant": true
    },
    {
      "inputs": [
        {
          "internalType": "uint256",
          "name": "",
          "type": "uint256"
        },
        {
          "internalType": "uint256",
          "name": "",
          "type": "uint256"
        }
      ],
      "name": "pendingPassengers",
      "outputs": [
        {
          "internalType": "uint256",
          "name": "id",
          "type": "uint256"
        },
        {
          "internalType": "string",
          "name": "name",
          "type": "string"
        },
        {
          "internalType": "string",
          "name": "phoneNumber",
          "type": "string"
        },
        {
          "internalType": "string",
          "name": "originAddress",
          "type": "string"
        },
        {
          "internalType": "string",
          "name": "destAddress",
          "type": "string"
        },
        {
          "internalType": "uint256",
          "name": "numberOfPeople",
          "type": "uint256"
        },
        {
          "internalType": "string",
          "name": "state",
          "type": "string"
        }
      ],
      "stateMutability": "view",
      "type": "function",
      "constant": true
    },
    {
      "inputs": [],
      "name": "rideCounter",
      "outputs": [
        {
          "internalType": "uint256",
          "name": "",
          "type": "uint256"
        }
      ],
      "stateMutability": "view",
      "type": "function",
      "constant": true
    },
    {
      "inputs": [
        {
          "internalType": "uint256",
          "name": "",
          "type": "uint256"
        }
      ],
      "name": "rides",
      "outputs": [
        {
          "internalType": "uint256",
          "name": "id",
          "type": "uint256"
        },
        {
          "internalType": "address",
          "name": "driver",
          "type": "address"
        },
        {
          "internalType": "uint256",
          "name": "drivingCost",
          "type": "uint256"
        },
        {
          "internalType": "uint256",
          "name": "capacity",
          "type": "uint256"
        },
        {
          "internalType": "uint256",
          "name": "confirmedAt",
          "type": "uint256"
        },
        {
          "internalType": "string",
          "name": "originAddress",
          "type": "string"
        },
        {
          "internalType": "string",
          "name": "destAddress",
          "type": "string"
        },
        {
          "internalType": "uint256",
          "name": "numOfPassengers",
          "type": "uint256"
        }
      ],
      "stateMutability": "view",
      "type": "function",
      "constant": true
    },
    {
      "inputs": [
        {
          "internalType": "string",
          "name": "_name",
          "type": "string"
        },
        {
          "internalType": "string",
          "name": "_phoneNumber",
          "type": "string"
        },
        {
          "internalType": "uint256",
          "name": "_numberOfPeople",
          "type": "uint256"
        },
        {
          "internalType": "string",
          "name": "_state",
          "type": "string"
        },
        {
          "internalType": "string",
          "name": "_originAddress",
          "type": "string"
        },
        {
          "internalType": "string",
          "name": "_destAddress",
          "type": "string"
        }
      ],
      "name": "createRequest",
      "outputs": [],
      "stateMutability": "nonpayable",
      "type": "function"
    },
    {
      "inputs": [
        {
          "internalType": "uint256",
          "name": "_drivingCost",
          "type": "uint256"
        },
        {
          "internalType": "uint256",
          "name": "_capacity",
          "type": "uint256"
        },
        {
          "internalType": "uint256",
          "name": "_confirmedAt",
          "type": "uint256"
        },
        {
          "internalType": "string",
          "name": "_originAddress",
          "type": "string"
        },
        {
          "internalType": "string",
          "name": "_destAddress",
          "type": "string"
        }
      ],
      "name": "createRide",
      "outputs": [],
      "stateMutability": "payable",
      "type": "function",
      "payable": true
    },
    {
      "inputs": [
        {
          "internalType": "address",
          "name": "_driver",
          "type": "address"
        }
      ],
      "name": "getCreateRides",
      "outputs": [
        {
          "internalType": "uint256[]",
          "name": "",
          "type": "uint256[]"
        }
      ],
      "stateMutability": "view",
      "type": "function",
      "constant": true
    },
    {
      "inputs": [
        {
          "internalType": "uint256",
          "name": "_rideId",
          "type": "uint256"
        }
      ],
      "name": "getRideDetails",
      "outputs": [
        {
          "internalType": "uint256",
          "name": "",
          "type": "uint256"
        },
        {
          "internalType": "uint256",
          "name": "",
          "type": "uint256"
        },
        {
          "internalType": "uint256",
          "name": "",
          "type": "uint256"
        },
        {
          "internalType": "string",
          "name": "",
          "type": "string"
        },
        {
          "internalType": "string",
          "name": "",
          "type": "string"
        },
        {
          "internalType": "uint256",
          "name": "",
          "type": "uint256"
        }
      ],
      "stateMutability": "view",
      "type": "function",
      "constant": true
    }
  ],
  "bytecode": "0x608060405234801561001057600080fd5b50600080819055506000600181905550611e068061002f6000396000f3fe6080604052600436106100dd5760003560e01c8063770881571161007f578063b10fefc011610059578063b10fefc01461034a578063c8f8b6c214610375578063c941241014610391578063dd2817a1146103ce576100dd565b806377088157146102a55780637718f4ec146102d0578063a99d04a81461030d576100dd565b8063276f7f77116100bb578063276f7f771461019e5780635205f112146101e15780636027a8e7146102255780636f68f54414610262576100dd565b8063193cdd81146100e25780631d6be93c1461011f57806322b1875e14610161575b600080fd5b3480156100ee57600080fd5b50610109600480360381019061010491906115d0565b6103f7565b604051610116919061195e565b60405180910390f35b34801561012b57600080fd5b5061014660048036038101906101419190611736565b61048e565b60405161015896959493929190611ad9565b60405180910390f35b34801561016d57600080fd5b50610188600480360381019061018391906115f9565b610779565b60405161019591906119a0565b60405180910390f35b3480156101aa57600080fd5b506101c560048036038101906101c0919061175f565b6107aa565b6040516101d89796959493929190611a47565b60405180910390f35b3480156101ed57600080fd5b5061020860048036038101906102039190611736565b610ab1565b60405161021c9897969594939291906119bb565b60405180910390f35b34801561023157600080fd5b5061024c600480360381019061024791906115f9565b610c29565b60405161025991906119a0565b60405180910390f35b34801561026e57600080fd5b5061028960048036038101906102849190611736565b610c5a565b60405161029c9796959493929190611a47565b60405180910390f35b3480156102b157600080fd5b506102ba610f44565b6040516102c791906119a0565b60405180910390f35b3480156102dc57600080fd5b506102f760048036038101906102f291906115f9565b610f4a565b60405161030491906119a0565b60405180910390f35b34801561031957600080fd5b50610334600480360381019061032f91906115f9565b610f7b565b60405161034191906119a0565b60405180910390f35b34801561035657600080fd5b5061035f610fac565b60405161036c91906119a0565b60405180910390f35b61038f600480360381019061038a919061179b565b610fb2565b005b34801561039d57600080fd5b506103b860048036038101906103b39190611736565b6111ca565b6040516103c591906119a0565b60405180910390f35b3480156103da57600080fd5b506103f560048036038101906103f09190611635565b6111e2565b005b6060600260008373ffffffffffffffffffffffffffffffffffffffff1673ffffffffffffffffffffffffffffffffffffffff16815260200190815260200160002080548060200260200160405190810160405280929190818152602001828054801561048257602002820191906000526020600020905b81548152602001906001019080831161046e575b50505050509050919050565b6000806000606080600080871180156104a957506000548711155b6104e8576040517f08c379a00000000000000000000000000000000000000000000000000000000081526004016104df90611980565b60405180910390fd5b60006006600089815260200190815260200160002060405180610120016040529081600082015481526020016001820160009054906101000a900473ffffffffffffffffffffffffffffffffffffffff1673ffffffffffffffffffffffffffffffffffffffff1673ffffffffffffffffffffffffffffffffffffffff16815260200160028201548152602001600382015481526020016004820154815260200160058201805461059790611cd2565b80601f01602080910402602001604051908101604052809291908181526020018280546105c390611cd2565b80156106105780601f106105e557610100808354040283529160200191610610565b820191906000526020600020905b8154815290600101906020018083116105f357829003601f168201915b5050505050815260200160068201805461062990611cd2565b80601f016020809104026020016040519081016040528092919081815260200182805461065590611cd2565b80156106a25780601f10610677576101008083540402835291602001916106a2565b820191906000526020600020905b81548152906001019060200180831161068557829003601f168201915b50505050508152602001600782015481526020016008820180548060200260200160405190810160405280929190818152602001828054801561073a57602002820191906000526020600020905b8160009054906101000a900473ffffffffffffffffffffffffffffffffffffffff1673ffffffffffffffffffffffffffffffffffffffff16815260200190600101908083116106f0575b50505050508152505090508060400151816060015182608001518360a001518460c001518560e001519650965096509650965096505091939550919395565b6002602052816000526040600020818154811061079557600080fd5b90600052602060002001600091509150505481565b600860205281600052604060002081815481106107c657600080fd5b9060005260206000209060070201600091509150508060000154908060010180546107f090611cd2565b80601f016020809104026020016040519081016040528092919081815260200182805461081c90611cd2565b80156108695780601f1061083e57610100808354040283529160200191610869565b820191906000526020600020905b81548152906001019060200180831161084c57829003601f168201915b50505050509080600201805461087e90611cd2565b80601f01602080910402602001604051908101604052809291908181526020018280546108aa90611cd2565b80156108f75780601f106108cc576101008083540402835291602001916108f7565b820191906000526020600020905b8154815290600101906020018083116108da57829003601f168201915b50505050509080600301805461090c90611cd2565b80601f016020809104026020016040519081016040528092919081815260200182805461093890611cd2565b80156109855780601f1061095a57610100808354040283529160200191610985565b820191906000526020600020905b81548152906001019060200180831161096857829003601f168201915b50505050509080600401805461099a90611cd2565b80601f01602080910402602001604051908101604052809291908181526020018280546109c690611cd2565b8015610a135780601f106109e857610100808354040283529160200191610a13565b820191906000526020600020905b8154815290600101906020018083116109f657829003601f168201915b505050505090806005015490806006018054610a2e90611cd2565b80601f0160208091040260200160405190810160405280929190818152602001828054610a5a90611cd2565b8015610aa75780601f10610a7c57610100808354040283529160200191610aa7565b820191906000526020600020905b815481529060010190602001808311610a8a57829003601f168201915b5050505050905087565b60066020528060005260406000206000915090508060000154908060010160009054906101000a900473ffffffffffffffffffffffffffffffffffffffff1690806002015490806003015490806004015490806005018054610b1290611cd2565b80601f0160208091040260200160405190810160405280929190818152602001828054610b3e90611cd2565b8015610b8b5780601f10610b6057610100808354040283529160200191610b8b565b820191906000526020600020905b815481529060010190602001808311610b6e57829003601f168201915b505050505090806006018054610ba090611cd2565b80601f0160208091040260200160405190810160405280929190818152602001828054610bcc90611cd2565b8015610c195780601f10610bee57610100808354040283529160200191610c19565b820191906000526020600020905b815481529060010190602001808311610bfc57829003601f168201915b5050505050908060070154905088565b60046020528160005260406000208181548110610c4557600080fd5b90600052602060002001600091509150505481565b6007602052806000526040600020600091509050806000015490806001018054610c8390611cd2565b80601f0160208091040260200160405190810160405280929190818152602001828054610caf90611cd2565b8015610cfc5780601f10610cd157610100808354040283529160200191610cfc565b820191906000526020600020905b815481529060010190602001808311610cdf57829003601f168201915b505050505090806002018054610d1190611cd2565b80601f0160208091040260200160405190810160405280929190818152602001828054610d3d90611cd2565b8015610d8a5780601f10610d5f57610100808354040283529160200191610d8a565b820191906000526020600020905b815481529060010190602001808311610d6d57829003601f168201915b505050505090806003018054610d9f90611cd2565b80601f0160208091040260200160405190810160405280929190818152602001828054610dcb90611cd2565b8015610e185780601f10610ded57610100808354040283529160200191610e18565b820191906000526020600020905b815481529060010190602001808311610dfb57829003601f168201915b505050505090806004018054610e2d90611cd2565b80601f0160208091040260200160405190810160405280929190818152602001828054610e5990611cd2565b8015610ea65780601f10610e7b57610100808354040283529160200191610ea6565b820191906000526020600020905b815481529060010190602001808311610e8957829003601f168201915b505050505090806005015490806006018054610ec190611cd2565b80601f0160208091040260200160405190810160405280929190818152602001828054610eed90611cd2565b8015610f3a5780601f10610f0f57610100808354040283529160200191610f3a565b820191906000526020600020905b815481529060010190602001808311610f1d57829003601f168201915b5050505050905087565b60015481565b60056020528160005260406000208181548110610f6657600080fd5b90600052602060002001600091509150505481565b60036020528160005260406000208181548110610f9757600080fd5b90600052602060002001600091509150505481565b60005481565b6001600054610fc19190611bfe565b600081905550610fcf611372565b60005481600001818152505033816020019073ffffffffffffffffffffffffffffffffffffffff16908173ffffffffffffffffffffffffffffffffffffffff1681525050858160400181815250508481606001818152505083816080018181525050828160a00181905250818160c0018190525060008160e0018181525050806101000151508060066000805481526020019081526020016000206000820151816000015560208201518160010160006101000a81548173ffffffffffffffffffffffffffffffffffffffff021916908373ffffffffffffffffffffffffffffffffffffffff16021790555060408201518160020155606082015181600301556080820151816004015560a08201518160050190805190602001906110f59291906113d4565b5060c08201518160060190805190602001906111129291906113d4565b5060e0820151816007015561010082015181600801908051906020019061113a92919061145a565b50905050600260003373ffffffffffffffffffffffffffffffffffffffff1673ffffffffffffffffffffffffffffffffffffffff168152602001908152602001600020816000015190806001815401808255809150506001900390600052602060002001600090919091909150556000600960008054815260200190815260200160002081905550505050505050565b60096020528060005260406000206000915090505481565b600180546111f09190611bfe565b6001819055506111fe6114e4565b600154816000018181525050868160200181905250858160400181905250848160a0018181525050838160c001819052508281606001819052508181608001819052508060076000600154815260200190815260200160002060008201518160000155602082015181600101908051906020019061127d9291906113d4565b50604082015181600201908051906020019061129a9291906113d4565b5060608201518160030190805190602001906112b79291906113d4565b5060808201518160040190805190602001906112d49291906113d4565b5060a0820151816005015560c08201518160060190805190602001906112fb9291906113d4565b50905050600360003373ffffffffffffffffffffffffffffffffffffffff1673ffffffffffffffffffffffffffffffffffffffff1681526020019081526020016000208160000151908060018154018082558091505060019003906000526020600020016000909190919091505550505050505050565b60405180610120016040528060008152602001600073ffffffffffffffffffffffffffffffffffffffff168152602001600081526020016000815260200160008152602001606081526020016060815260200160008152602001606081525090565b8280546113e090611cd2565b90600052602060002090601f0160209004810192826114025760008555611449565b82601f1061141b57805160ff1916838001178555611449565b82800160010185558215611449579182015b8281111561144857825182559160200191906001019061142d565b5b5090506114569190611521565b5090565b8280548282559060005260206000209081019282156114d3579160200282015b828111156114d25782518260006101000a81548173ffffffffffffffffffffffffffffffffffffffff021916908373ffffffffffffffffffffffffffffffffffffffff1602179055509160200191906001019061147a565b5b5090506114e09190611521565b5090565b6040518060e00160405280600081526020016060815260200160608152602001606081526020016060815260200160008152602001606081525090565b5b8082111561153a576000816000905550600101611522565b5090565b600061155161154c84611b79565b611b48565b90508281526020810184848401111561156957600080fd5b611574848285611c90565b509392505050565b60008135905061158b81611da2565b92915050565b600082601f8301126115a257600080fd5b81356115b284826020860161153e565b91505092915050565b6000813590506115ca81611db9565b92915050565b6000602082840312156115e257600080fd5b60006115f08482850161157c565b91505092915050565b6000806040838503121561160c57600080fd5b600061161a8582860161157c565b925050602061162b858286016115bb565b9150509250929050565b60008060008060008060c0878903121561164e57600080fd5b600087013567ffffffffffffffff81111561166857600080fd5b61167489828a01611591565b965050602087013567ffffffffffffffff81111561169157600080fd5b61169d89828a01611591565b95505060406116ae89828a016115bb565b945050606087013567ffffffffffffffff8111156116cb57600080fd5b6116d789828a01611591565b935050608087013567ffffffffffffffff8111156116f457600080fd5b61170089828a01611591565b92505060a087013567ffffffffffffffff81111561171d57600080fd5b61172989828a01611591565b9150509295509295509295565b60006020828403121561174857600080fd5b6000611756848285016115bb565b91505092915050565b6000806040838503121561177257600080fd5b6000611780858286016115bb565b9250506020611791858286016115bb565b9150509250929050565b600080600080600060a086880312156117b357600080fd5b60006117c1888289016115bb565b95505060206117d2888289016115bb565b94505060406117e3888289016115bb565b935050606086013567ffffffffffffffff81111561180057600080fd5b61180c88828901611591565b925050608086013567ffffffffffffffff81111561182957600080fd5b61183588828901611591565b9150509295509295909350565b600061184e8383611940565b60208301905092915050565b61186381611c54565b82525050565b600061187482611bb9565b61187e8185611bdc565b935061188983611ba9565b8060005b838110156118ba5781516118a18882611842565b97506118ac83611bcf565b92505060018101905061188d565b5085935050505092915050565b60006118d282611bc4565b6118dc8185611bed565b93506118ec818560208601611c9f565b6118f581611d91565b840191505092915050565b600061190d600f83611bed565b91507f496e76616c6964207269646520494400000000000000000000000000000000006000830152602082019050919050565b61194981611c86565b82525050565b61195881611c86565b82525050565b600060208201905081810360008301526119788184611869565b905092915050565b6000602082019050818103600083015261199981611900565b9050919050565b60006020820190506119b5600083018461194f565b92915050565b6000610100820190506119d1600083018b61194f565b6119de602083018a61185a565b6119eb604083018961194f565b6119f8606083018861194f565b611a05608083018761194f565b81810360a0830152611a1781866118c7565b905081810360c0830152611a2b81856118c7565b9050611a3a60e083018461194f565b9998505050505050505050565b600060e082019050611a5c600083018a61194f565b8181036020830152611a6e81896118c7565b90508181036040830152611a8281886118c7565b90508181036060830152611a9681876118c7565b90508181036080830152611aaa81866118c7565b9050611ab960a083018561194f565b81810360c0830152611acb81846118c7565b905098975050505050505050565b600060c082019050611aee600083018961194f565b611afb602083018861194f565b611b08604083018761194f565b8181036060830152611b1a81866118c7565b90508181036080830152611b2e81856118c7565b9050611b3d60a083018461194f565b979650505050505050565b6000604051905081810181811067ffffffffffffffff82111715611b6f57611b6e611d62565b5b8060405250919050565b600067ffffffffffffffff821115611b9457611b93611d62565b5b601f19601f8301169050602081019050919050565b6000819050602082019050919050565b600081519050919050565b600081519050919050565b6000602082019050919050565b600082825260208201905092915050565b600082825260208201905092915050565b6000611c0982611c86565b9150611c1483611c86565b9250827fffffffffffffffffffffffffffffffffffffffffffffffffffffffffffffffff03821115611c4957611c48611d04565b5b828201905092915050565b6000611c5f82611c66565b9050919050565b600073ffffffffffffffffffffffffffffffffffffffff82169050919050565b6000819050919050565b82818337600083830152505050565b60005b83811015611cbd578082015181840152602081019050611ca2565b83811115611ccc576000848401525b50505050565b60006002820490506001821680611cea57607f821691505b60208210811415611cfe57611cfd611d33565b5b50919050565b7f4e487b7100000000000000000000000000000000000000000000000000000000600052601160045260246000fd5b7f4e487b7100000000000000000000000000000000000000000000000000000000600052602260045260246000fd5b7f4e487b7100000000000000000000000000000000000000000000000000000000600052604160045260246000fd5b6000601f19601f8301169050919050565b611dab81611c54565b8114611db657600080fd5b50565b611dc281611c86565b8114611dcd57600080fd5b5056fea26469706673582212209e57153896b194541c4fe3fae5d8886d921146de4458e00e1d5c2ae915d2e98b64736f6c63430008000033",
  "immutableReferences": {},
  "source": "// SPDX-License-Identifier: GPL-3.0\r\npragma solidity >=0.7.0 <0.9.0;\r\n\r\ncontract RideShare {\r\n    \r\n    uint256 public rideCounter;\r\n    uint256 public passengerCounter;\r\n\r\n    struct Passenger {\r\n        uint id;\r\n        string name;\r\n        string phoneNumber;\r\n        string originAddress;\r\n        string destAddress;\r\n        uint256 numberOfPeople;\r\n        string state;\r\n    }\r\n\r\n    struct Ride {\r\n        uint id;\r\n        address driver;\r\n        uint256 drivingCost;\r\n        uint256 capacity;\r\n        uint256 confirmedAt;\r\n        string originAddress;\r\n        string destAddress;\r\n        uint numOfPassengers; // S lng hnh khch hin ti\r\n        address payable[] passengers;\r\n    }\r\n    \r\n    mapping(address => uint[]) public createRides; // Lu tr danh sch cc chuyn i  c to bi mi ti x\r\n    mapping(address => uint[]) public createRequests; // Lu tr danh sch cc request ca hnh khch\r\n    mapping(address => uint[]) public joinRides; // Lu tr danh sch cc chuyn i  tham gia ca mi hnh khch\r\n    mapping(address => uint[]) public history;\r\n    mapping(uint => Ride) public rides; // Lu tr cc chuyn i hin c trong h thng\r\n    mapping(uint => Passenger) public passengers; // Lu tr danh sch hnh khch ang c trong h thng\r\n    mapping(uint => Passenger[]) public pendingPassengers; \r\n    mapping(uint => uint) public numOfPendings; // S lng pending ca mi chuyn\r\n\r\n    \r\n    constructor() public {\r\n        rideCounter = 0;\r\n        passengerCounter = 0;\r\n    }\r\n\r\n\r\n    // uint256 public startTime; \r\n    // uint256 public endTime; \r\n    // uint256 public limitTime = 3;\r\n\r\n    function createRequest(\r\n        string memory _name,\r\n        string memory _phoneNumber,\r\n        uint256 _numberOfPeople,\r\n        string memory _state,\r\n        string memory _originAddress,\r\n        string memory _destAddress\r\n    ) public {\r\n        // emit LogPassenger(_name, _phoneNumber, _numberOfPeople, _state);\r\n        passengerCounter = passengerCounter + 1;\r\n\r\n        Passenger memory newPassenger;\r\n        newPassenger.id = passengerCounter;\r\n        newPassenger.name = _name;\r\n        newPassenger.phoneNumber = _phoneNumber;\r\n        newPassenger.numberOfPeople = _numberOfPeople;\r\n        newPassenger.state = _state;\r\n        newPassenger.originAddress = _originAddress;\r\n        newPassenger.destAddress = _destAddress;\r\n\r\n        // Lu tr hnh khch vo mapping\r\n        passengers[passengerCounter] = newPassenger;\r\n        // Thm yu cu vo danh sch yu cu  to ca hnh khch\r\n        createRequests[msg.sender].push(newPassenger.id);\r\n\r\n        // emit PassengerAdded(psgCount, _name, _phoneNumber, _numberOfPeople, _state);\r\n        // passengerCounter[msg.sender]++;\r\n    }\r\n\r\n\r\n    // Function to create a new ride\r\n    function createRide (\r\n        uint256 _drivingCost,\r\n        uint256 _capacity,\r\n        uint256 _confirmedAt,\r\n        string memory _originAddress,\r\n        string memory _destAddress\r\n    ) public payable {\r\n        // require(uint256(msg.value) == uint256(_drivingCost), \"Create: Not enough ether!\");\r\n        // Tng s lng chuyn hin c\r\n        rideCounter = rideCounter + 1;\r\n\r\n        Ride memory newRide;\r\n        newRide.id = rideCounter;\r\n        newRide.driver = msg.sender;\r\n        newRide.drivingCost = _drivingCost;\r\n        newRide.capacity = _capacity;\r\n        newRide.confirmedAt = _confirmedAt;\r\n        newRide.originAddress = _originAddress;\r\n        newRide.destAddress = _destAddress;\r\n        newRide.numOfPassengers = 0;\r\n        newRide.passengers;\r\n\r\n        // startTime = block.timestamp;\r\n        // Lu tr chuyn xe vo mapping\r\n        rides[rideCounter] = newRide;\r\n        // Thm chuyn xe vo danh sch chuyn i d to ca ti x\r\n        createRides[msg.sender].push(newRide.id);\r\n        numOfPendings[rideCounter] = 0;\r\n        \r\n    }\r\n\r\n    function getCreateRides(address _driver) external view returns (uint[] memory) {\r\n        return createRides[_driver];\r\n    }\r\n\r\n    function getRideDetails(uint _rideId) external view returns (uint256, uint256, uint256, string memory, string memory, uint256) {\r\n        require(_rideId > 0 && _rideId <= rideCounter, \"Invalid ride ID\");\r\n        Ride memory ride = rides[_rideId];\r\n        return (ride.drivingCost, ride.capacity, ride.confirmedAt, ride.originAddress, ride.destAddress, ride.numOfPassengers);\r\n    }\r\n\r\n    // Ly ra cc a ch ca khch hng tham gia vo chuyn i th index\r\n    // function retrieveAllPassengers(uint256 _idxRide) public view returns  (address payable[]  memory) {\r\n    //     return rides[_idxRide].passengerAccounts;\r\n    // }\r\n   \r\n    // Ly ra a ch ca khch hng tham gia vo chuyn i th index\r\n    // function retrieveOnePassenger(uint256 _idxRide) public view returns (address) {\r\n    //     address pAddress;\r\n    //     for (uint256 i = 0; i < rides[_idxRide].passengerAccounts.length; i++) {\r\n    //         // Kim tra thng sender (thng gi ng  tham gia transaction) c trong chuyn i hay khng\r\n    //         if (msg.sender == rides[_idxRide].passengerAccounts[i]){\r\n    //             pAddress = rides[_idxRide].passengerAccounts[i];\r\n    //             break;\r\n    //         }\r\n    //     }\r\n        \r\n    //     require(pAddress != address(0), \"Retrieve One Passenger: This account does not participate in the ride\");\r\n    //     return pAddress;\r\n    // }\r\n\r\n    // 1. Khch hng xc nhn tham gia vo transaction (t xe) - Khch hng\r\n    // function joinRide(uint256 _idxRide) public payable{\r\n    //     require(msg.sender != rides[_idxRide].driver, \"Join Ride: This is driver address, the ride need a passenger join\");\r\n\r\n    //     // n v c s dng  y l wei \r\n    //     require(uint256(msg.value) == uint256(rides[_idxRide].drivingCost), \"Join Ride: Not enough ether!\");\r\n    //     rides[_idxRide].passengerAccounts.push(payable(msg.sender));\r\n\r\n        \r\n    //     // 2. Cp nht trng thi ca khch hng khi mi tham gia vo mng (Sau khi joinRide) - H thng\r\n    //     passengers[msg.sender][_idxRide].state = \"initial\";\r\n    // }\r\n\r\n    // 3. Cp nht trng thi ca khch hng khi c chp nhn chuyn i bi ti x - Ti x  (lm hnh ng g  trn giao din)\r\n    // function confirmDriverMet(uint256 _idxRide) public {\r\n    //     address payable[] memory allPassenger  = retrieveAllPassengers(_idxRide);\r\n\r\n    //     for (uint256 i = 0; i < allPassenger.length; i++) {\r\n    //         passengers[allPassenger[i]][_idxRide].state = \"confirm\";\r\n    //     }\r\n            \r\n    // }\r\n\r\n    // 4. Khi kt thc chuyn i, ti x s thc hin ly tin ca hnh khch\r\n    // function arrived(uint256 _idxRide) public {\r\n    //     require(\r\n    //         msg.sender == rides[_idxRide].driver,\r\n    //         \"Only driver of the ride can call this function\"\r\n    //     );\r\n        \r\n    //     (bool callSuccess, ) = payable(msg.sender).call{value: address(this).balance}(\"\");\r\n    //     require(callSuccess, \"Withdraw coin in the contract failed\");\r\n\r\n    //     address payable[] memory allPassenger = retrieveAllPassengers(_idxRide);\r\n    //     for (uint256 i = 0; i < allPassenger.length; i++) {\r\n    //         // Convert address payable to address\r\n    //         address pAddress = address(allPassenger[i]);\r\n    //         passengers[pAddress][_idxRide].state = \"completion\";\r\n    //     }\r\n    // }\r\n\r\n    // event TransferReceived(address _from, uint _amount);\r\n    // event log(uint _message);\r\n\r\n    // 5. Khi 1 trong 2 bn hy chuyn i \r\n    // function cancel(uint256 _idxRide) public payable {\r\n    //     address payable[] memory allPassenger = retrieveAllPassengers(_idxRide);\r\n    //     uint256 length = allPassenger.length;\r\n\r\n    //     // Khi transaction qu thi gian, coin c tr v cho ti x         \r\n\r\n    //     // Khi ti x hy\r\n    //     if(msg.sender == rides[_idxRide].driver) {  \r\n    //         uint256 shareETH = address(this).balance / allPassenger.length;\r\n    //         for (uint256 i = 0; i < length; i++) {\r\n    //             // Convert address payable to address\r\n    //             address pAddress = address(allPassenger[i]);\r\n    //             if(keccak256(abi.encodePacked(passengers[pAddress][_idxRide].state)) == keccak256(abi.encodePacked(\"confirm\"))) {\r\n    //                 (bool callSuccess, ) = payable(pAddress).call{value: shareETH}(\"\");\r\n    //                 require(callSuccess, \"Cancel: Transfer coin from driver to passenger failed\");\r\n    //                 passengers[pAddress][_idxRide].state = \"Cancel from driver\";\r\n    //             }\r\n    //         }\r\n    //         emit TransferReceived(msg.sender, msg.value);\r\n    //     } \r\n    //     else // khi khch hng hy\r\n    //     {               \r\n    //         for (uint256 i = 0; i < length; i++) {\r\n    //             // Convert address payable to address\r\n    //             address pAddress = address(allPassenger[i]);\r\n    //             if(msg.sender == pAddress) {\r\n    //                 if (length == 1) {\r\n    //                     (bool callSuccess, ) = payable(rides[_idxRide].driver).call{value: address(this).balance}(\"\");\r\n    //                     require(callSuccess, \"Cancel: Transfer coin from passenger to driver failed\");\r\n    //                 } else {\r\n    //                     (bool callSuccess, ) = payable(rides[_idxRide].driver).call{value: rides[_idxRide].drivingCost}(\"\");\r\n    //                     require(callSuccess, \"Cancel: Transfer coin from passenger to driver failed\");\r\n    //                 }\r\n    //                 emit log(length);\r\n                    \r\n    //                 passengers[pAddress][_idxRide].state = \"Cancel from passenger\";\r\n    //             }\r\n    //         }\r\n    //         // emit TransferReceived(msg.sender, msg.value);\r\n    //     } \r\n    // }\r\n\r\n}",
  "sourcePath": "C:\\Users\\Admin\\Downloads\\project-vanet-blockchain\\contracts\\RideShare.sol",
  "compiler": {
    "name": "solc",
    "version": "0.8.0+commit.c7dfd78e.Emscripten.clang"
  },
  "schemaVersion": "3.4.16",
  "updatedAt": "2024-04-23T14:03:51.721Z",
  "networkType": "ethereum",
  "devdoc": {
    "kind": "dev",
    "methods": {},
    "version": 1
  },
  "userdoc": {
    "kind": "user",
    "methods": {},
    "version": 1
  }
}