{
  "contractName": "CoinReceiver",
  "abi": [
    {
      "inputs": [],
      "stateMutability": "nonpayable",
      "type": "constructor"
    },
    {
      "inputs": [
        {
          "internalType": "address",
          "name": "",
          "type": "address"
        }
      ],
      "name": "balanceOf",
      "outputs": [
        {
          "internalType": "uint256",
          "name": "",
          "type": "uint256"
        }
      ],
      "stateMutability": "view",
      "type": "function"
    },
    {
      "inputs": [],
      "name": "decimals",
      "outputs": [
        {
          "internalType": "uint8",
          "name": "",
          "type": "uint8"
        }
      ],
      "stateMutability": "view",
      "type": "function"
    },
    {
      "inputs": [],
      "name": "owner",
      "outputs": [
        {
          "internalType": "address",
          "name": "",
          "type": "address"
        }
      ],
      "stateMutability": "view",
      "type": "function"
    },
    {
      "inputs": [],
      "name": "symbol",
      "outputs": [
        {
          "internalType": "string",
          "name": "",
          "type": "string"
        }
      ],
      "stateMutability": "view",
      "type": "function"
    },
    {
      "inputs": [],
      "name": "totalSupply",
      "outputs": [
        {
          "internalType": "uint256",
          "name": "",
          "type": "uint256"
        }
      ],
      "stateMutability": "view",
      "type": "function"
    },
    {
      "inputs": [
        {
          "internalType": "address",
          "name": "recipient",
          "type": "address"
        },
        {
          "internalType": "uint256",
          "name": "amount",
          "type": "uint256"
        }
      ],
      "name": "deposit",
      "outputs": [],
      "stateMutability": "nonpayable",
      "type": "function"
    },
    {
      "inputs": [
        {
          "internalType": "address",
          "name": "to",
          "type": "address"
        },
        {
          "internalType": "uint256",
          "name": "value",
          "type": "uint256"
        }
      ],
      "name": "transfer",
      "outputs": [
        {
          "internalType": "bool",
          "name": "success",
          "type": "bool"
        }
      ],
      "stateMutability": "nonpayable",
      "type": "function"
    }
  ],
  "bytecode": "0x60806040526040518060400160405280600b81526020017f437573746f6d20436f696e000000000000000000000000000000000000000000815250600090816200004a919062000385565b506040518060400160405280600281526020017f43430000000000000000000000000000000000000000000000000000000000008152506001908162000091919062000385565b506012600260006101000a81548160ff021916908360ff160217905550348015620000bb57600080fd5b5033600460006101000a81548173ffffffffffffffffffffffffffffffffffffffff021916908373ffffffffffffffffffffffffffffffffffffffff16021790555060006003819055506200046c565b600081519050919050565b7f4e487b7100000000000000000000000000000000000000000000000000000000600052604160045260246000fd5b7f4e487b7100000000000000000000000000000000000000000000000000000000600052602260045260246000fd5b600060028204905060018216806200018d57607f821691505b602082108103620001a357620001a262000145565b5b50919050565b60008190508160005260206000209050919050565b60006020601f8301049050919050565b600082821b905092915050565b6000600883026200020d7fffffffffffffffffffffffffffffffffffffffffffffffffffffffffffffffff82620001ce565b620002198683620001ce565b95508019841693508086168417925050509392505050565b6000819050919050565b6000819050919050565b600062000266620002606200025a8462000231565b6200023b565b62000231565b9050919050565b6000819050919050565b620002828362000245565b6200029a62000291826200026d565b848454620001db565b825550505050565b600090565b620002b1620002a2565b620002be81848462000277565b505050565b5b81811015620002e657620002da600082620002a7565b600181019050620002c4565b5050565b601f8211156200033557620002ff81620001a9565b6200030a84620001be565b810160208510156200031a578190505b620003326200032985620001be565b830182620002c3565b50505b505050565b600082821c905092915050565b60006200035a600019846008026200033a565b1980831691505092915050565b600062000375838362000347565b9150826002028217905092915050565b62000390826200010b565b67ffffffffffffffff811115620003ac57620003ab62000116565b5b620003b8825462000174565b620003c5828285620002ea565b600060209050601f831160018114620003fd5760008415620003e8578287015190505b620003f4858262000367565b86555062000464565b601f1984166200040d86620001a9565b60005b82811015620004375784890151825560018201915060208501945060208101905062000410565b8683101562000457578489015162000453601f89168262000347565b8355505b6001600288020188555050505b505050505050565b610ac6806200047c6000396000f3fe608060405234801561001057600080fd5b506004361061007d5760003560e01c806370a082311161005b57806370a08231146100da5780638da5cb5b1461010a57806395d89b4114610128578063a9059cbb146101465761007d565b806318160ddd14610082578063313ce567146100a057806347e7ef24146100be575b600080fd5b61008a610176565b6040516100979190610563565b60405180910390f35b6100a861017c565b6040516100b5919061059a565b60405180910390f35b6100d860048036038101906100d39190610644565b61018f565b005b6100f460048036038101906100ef9190610684565b610344565b6040516101019190610563565b60405180910390f35b61011261035c565b60405161011f91906106c0565b60405180910390f35b610130610382565b60405161013d919061076b565b60405180910390f35b610160600480360381019061015b9190610644565b610410565b60405161016d91906107a8565b60405180910390f35b60035481565b600260009054906101000a900460ff1681565b600460009054906101000a900473ffffffffffffffffffffffffffffffffffffffff1673ffffffffffffffffffffffffffffffffffffffff163373ffffffffffffffffffffffffffffffffffffffff161461021f576040517f08c379a000000000000000000000000000000000000000000000000000000000815260040161021690610835565b60405180910390fd5b600073ffffffffffffffffffffffffffffffffffffffff168273ffffffffffffffffffffffffffffffffffffffff160361028e576040517f08c379a0000000000000000000000000000000000000000000000000000000008152600401610285906108a1565b60405180910390fd5b600081116102d1576040517f08c379a00000000000000000000000000000000000000000000000000000000081526004016102c89061090d565b60405180910390fd5b80600560008473ffffffffffffffffffffffffffffffffffffffff1673ffffffffffffffffffffffffffffffffffffffff1681526020019081526020016000206000828254610320919061095c565b9250508190555080600360008282546103399190610990565b925050819055505050565b60056020528060005260406000206000915090505481565b600460009054906101000a900473ffffffffffffffffffffffffffffffffffffffff1681565b6001805461038f906109f3565b80601f01602080910402602001604051908101604052809291908181526020018280546103bb906109f3565b80156104085780601f106103dd57610100808354040283529160200191610408565b820191906000526020600020905b8154815290600101906020018083116103eb57829003601f168201915b505050505081565b600081600560003373ffffffffffffffffffffffffffffffffffffffff1673ffffffffffffffffffffffffffffffffffffffff168152602001908152602001600020541015610494576040517f08c379a000000000000000000000000000000000000000000000000000000000815260040161048b90610a70565b60405180910390fd5b81600560003373ffffffffffffffffffffffffffffffffffffffff1673ffffffffffffffffffffffffffffffffffffffff16815260200190815260200160002060008282546104e39190610990565b9250508190555081600560008573ffffffffffffffffffffffffffffffffffffffff1673ffffffffffffffffffffffffffffffffffffffff1681526020019081526020016000206000828254610539919061095c565b925050819055506001905092915050565b6000819050919050565b61055d8161054a565b82525050565b60006020820190506105786000830184610554565b92915050565b600060ff82169050919050565b6105948161057e565b82525050565b60006020820190506105af600083018461058b565b92915050565b600080fd5b600073ffffffffffffffffffffffffffffffffffffffff82169050919050565b60006105e5826105ba565b9050919050565b6105f5816105da565b811461060057600080fd5b50565b600081359050610612816105ec565b92915050565b6106218161054a565b811461062c57600080fd5b50565b60008135905061063e81610618565b92915050565b6000806040838503121561065b5761065a6105b5565b5b600061066985828601610603565b925050602061067a8582860161062f565b9150509250929050565b60006020828403121561069a576106996105b5565b5b60006106a884828501610603565b91505092915050565b6106ba816105da565b82525050565b60006020820190506106d560008301846106b1565b92915050565b600081519050919050565b600082825260208201905092915050565b60005b838110156107155780820151818401526020810190506106fa565b60008484015250505050565b6000601f19601f8301169050919050565b600061073d826106db565b61074781856106e6565b93506107578185602086016106f7565b61076081610721565b840191505092915050565b600060208201905081810360008301526107858184610732565b905092915050565b60008115159050919050565b6107a28161078d565b82525050565b60006020820190506107bd6000830184610799565b92915050565b7f4f6e6c7920746865206f776e65722063616e20706572666f726d20746869732060008201527f616374696f6e0000000000000000000000000000000000000000000000000000602082015250565b600061081f6026836106e6565b915061082a826107c3565b604082019050919050565b6000602082019050818103600083015261084e81610812565b9050919050565b7f496e76616c696420726563697069656e74206164647265737300000000000000600082015250565b600061088b6019836106e6565b915061089682610855565b602082019050919050565b600060208201905081810360008301526108ba8161087e565b9050919050565b7f416d6f756e74206d7573742062652067726561746572207468616e2030000000600082015250565b60006108f7601d836106e6565b9150610902826108c1565b602082019050919050565b60006020820190508181036000830152610926816108ea565b9050919050565b7f4e487b7100000000000000000000000000000000000000000000000000000000600052601160045260246000fd5b60006109678261054a565b91506109728361054a565b925082820190508082111561098a5761098961092d565b5b92915050565b600061099b8261054a565b91506109a68361054a565b92508282039050818111156109be576109bd61092d565b5b92915050565b7f4e487b7100000000000000000000000000000000000000000000000000000000600052602260045260246000fd5b60006002820490506001821680610a0b57607f821691505b602082108103610a1e57610a1d6109c4565b5b50919050565b7f496e73756666696369656e742062616c616e6365000000000000000000000000600082015250565b6000610a5a6014836106e6565b9150610a6582610a24565b602082019050919050565b60006020820190508181036000830152610a8981610a4d565b905091905056fea264697066735822122066c929658c4d51c652d26224196bcd558451ff146d8e57a2d657e78e5045994164736f6c63430008130033",
  "immutableReferences": {},
  "source": "// SPDX-License-Identifier: MIT\npragma solidity ^0.8.0;\n\ncontract CoinReceiver {\n    string private name = \"Custom Coin\";\n    string public symbol = \"CC\";\n    uint8 public decimals = 18;\n    uint256 public totalSupply;\n    address public owner;\n    mapping (address => uint256) public balanceOf;\n\n    constructor() {\n        owner = msg.sender;\n        totalSupply = 0; //Initialize total supply to 0\n    }   \n\n    modifier onlyOwner() {\n        require(msg.sender == owner, \"Only the owner can perform this action\");\n        _;\n    }\n\n    function deposit(address recipient, uint256 amount) public onlyOwner {\n        require(recipient != address(0), \"Invalid recipient address\");\n        require(amount > 0, \"Amount must be greater than 0\");\n        balanceOf[recipient] += amount;\n        totalSupply -= amount;\n    }\n\n    function transfer(address to, uint256 value) public returns (bool success){\n        require(balanceOf[msg.sender] >= value, \"Insufficient balance\");\n        balanceOf[msg.sender] -= value;\n        balanceOf[to] += value;\n        \n        return true;\n    }\n}",
  "sourcePath": "/Users/dattran/Documents/project-vanet-blockchain/contracts/CoinReceiver.sol",
  "compiler": {
    "name": "solc",
    "version": "0.8.19+commit.7dd6d404.Emscripten.clang"
  },
  "schemaVersion": "3.4.16",
  "updatedAt": "2023-10-10T07:44:55.054Z",
  "devdoc": {
    "kind": "dev",
    "methods": {},
    "version": 1
  },
  "userdoc": {
    "kind": "user",
    "methods": {},
    "version": 1
  }
}