{
  "contractName": "CoinReceiver",
  "abi": [
    {
      "inputs": [],
      "stateMutability": "nonpayable",
      "type": "constructor"
    },
    {
      "inputs": [
        {
          "internalType": "address",
          "name": "",
          "type": "address"
        }
      ],
      "name": "balanceOf",
      "outputs": [
        {
          "internalType": "uint256",
          "name": "",
          "type": "uint256"
        }
      ],
      "stateMutability": "view",
      "type": "function",
      "constant": true
    },
    {
      "inputs": [],
      "name": "decimals",
      "outputs": [
        {
          "internalType": "uint8",
          "name": "",
          "type": "uint8"
        }
      ],
      "stateMutability": "view",
      "type": "function",
      "constant": true
    },
    {
      "inputs": [],
      "name": "owner",
      "outputs": [
        {
          "internalType": "address",
          "name": "",
          "type": "address"
        }
      ],
      "stateMutability": "view",
      "type": "function",
      "constant": true
    },
    {
      "inputs": [],
      "name": "symbol",
      "outputs": [
        {
          "internalType": "string",
          "name": "",
          "type": "string"
        }
      ],
      "stateMutability": "view",
      "type": "function",
      "constant": true
    },
    {
      "inputs": [],
      "name": "totalSupply",
      "outputs": [
        {
          "internalType": "uint256",
          "name": "",
          "type": "uint256"
        }
      ],
      "stateMutability": "view",
      "type": "function",
      "constant": true
    },
    {
      "inputs": [],
      "name": "getName",
      "outputs": [
        {
          "internalType": "string",
          "name": "",
          "type": "string"
        }
      ],
      "stateMutability": "view",
      "type": "function",
      "constant": true
    },
    {
      "inputs": [
        {
          "internalType": "string",
          "name": "_name",
          "type": "string"
        }
      ],
      "name": "setName",
      "outputs": [],
      "stateMutability": "nonpayable",
      "type": "function"
    },
    {
      "inputs": [
        {
          "internalType": "address",
          "name": "recipient",
          "type": "address"
        },
        {
          "internalType": "uint256",
          "name": "amount",
          "type": "uint256"
        }
      ],
      "name": "deposit",
      "outputs": [],
      "stateMutability": "nonpayable",
      "type": "function"
    },
    {
      "inputs": [
        {
          "internalType": "address",
          "name": "to",
          "type": "address"
        },
        {
          "internalType": "uint256",
          "name": "value",
          "type": "uint256"
        }
      ],
      "name": "transfer",
      "outputs": [
        {
          "internalType": "bool",
          "name": "success",
          "type": "bool"
        }
      ],
      "stateMutability": "nonpayable",
      "type": "function"
    }
  ],
  "bytecode": "0x60806040526040518060400160405280600b81526020017f437573746f6d20436f696e000000000000000000000000000000000000000000815250600090816200004a919062000385565b506040518060400160405280600281526020017f43430000000000000000000000000000000000000000000000000000000000008152506001908162000091919062000385565b506012600260006101000a81548160ff021916908360ff160217905550348015620000bb57600080fd5b5033600460006101000a81548173ffffffffffffffffffffffffffffffffffffffff021916908373ffffffffffffffffffffffffffffffffffffffff16021790555060006003819055506200046c565b600081519050919050565b7f4e487b7100000000000000000000000000000000000000000000000000000000600052604160045260246000fd5b7f4e487b7100000000000000000000000000000000000000000000000000000000600052602260045260246000fd5b600060028204905060018216806200018d57607f821691505b602082108103620001a357620001a262000145565b5b50919050565b60008190508160005260206000209050919050565b60006020601f8301049050919050565b600082821b905092915050565b6000600883026200020d7fffffffffffffffffffffffffffffffffffffffffffffffffffffffffffffffff82620001ce565b620002198683620001ce565b95508019841693508086168417925050509392505050565b6000819050919050565b6000819050919050565b600062000266620002606200025a8462000231565b6200023b565b62000231565b9050919050565b6000819050919050565b620002828362000245565b6200029a62000291826200026d565b848454620001db565b825550505050565b600090565b620002b1620002a2565b620002be81848462000277565b505050565b5b81811015620002e657620002da600082620002a7565b600181019050620002c4565b5050565b601f8211156200033557620002ff81620001a9565b6200030a84620001be565b810160208510156200031a578190505b620003326200032985620001be565b830182620002c3565b50505b505050565b600082821c905092915050565b60006200035a600019846008026200033a565b1980831691505092915050565b600062000375838362000347565b9150826002028217905092915050565b62000390826200010b565b67ffffffffffffffff811115620003ac57620003ab62000116565b5b620003b8825462000174565b620003c5828285620002ea565b600060209050601f831160018114620003fd5760008415620003e8578287015190505b620003f4858262000367565b86555062000464565b601f1984166200040d86620001a9565b60005b82811015620004375784890151825560018201915060208501945060208101905062000410565b8683101562000457578489015162000453601f89168262000347565b8355505b6001600288020188555050505b505050505050565b610fc6806200047c6000396000f3fe608060405234801561001057600080fd5b50600436106100935760003560e01c806370a082311161006657806370a082311461010e5780638da5cb5b1461013e57806395d89b411461015c578063a9059cbb1461017a578063c47f0027146101aa57610093565b806317d7de7c1461009857806318160ddd146100b6578063313ce567146100d457806347e7ef24146100f2575b600080fd5b6100a06101c6565b6040516100ad91906106cf565b60405180910390f35b6100be610258565b6040516100cb919061070a565b60405180910390f35b6100dc61025e565b6040516100e99190610741565b60405180910390f35b61010c600480360381019061010791906107fa565b610271565b005b6101286004803603810190610123919061083a565b610426565b604051610135919061070a565b60405180910390f35b61014661043e565b6040516101539190610876565b60405180910390f35b610164610464565b60405161017191906106cf565b60405180910390f35b610194600480360381019061018f91906107fa565b6104f2565b6040516101a191906108ac565b60405180910390f35b6101c460048036038101906101bf91906109fc565b61062c565b005b6060600080546101d590610a74565b80601f016020809104026020016040519081016040528092919081815260200182805461020190610a74565b801561024e5780601f106102235761010080835404028352916020019161024e565b820191906000526020600020905b81548152906001019060200180831161023157829003601f168201915b5050505050905090565b60035481565b600260009054906101000a900460ff1681565b600460009054906101000a900473ffffffffffffffffffffffffffffffffffffffff1673ffffffffffffffffffffffffffffffffffffffff163373ffffffffffffffffffffffffffffffffffffffff1614610301576040517f08c379a00000000000000000000000000000000000000000000000000000000081526004016102f890610b17565b60405180910390fd5b600073ffffffffffffffffffffffffffffffffffffffff168273ffffffffffffffffffffffffffffffffffffffff1603610370576040517f08c379a000000000000000000000000000000000000000000000000000000000815260040161036790610b83565b60405180910390fd5b600081116103b3576040517f08c379a00000000000000000000000000000000000000000000000000000000081526004016103aa90610bef565b60405180910390fd5b80600560008473ffffffffffffffffffffffffffffffffffffffff1673ffffffffffffffffffffffffffffffffffffffff16815260200190815260200160002060008282546104029190610c3e565b92505081905550806003600082825461041b9190610c72565b925050819055505050565b60056020528060005260406000206000915090505481565b600460009054906101000a900473ffffffffffffffffffffffffffffffffffffffff1681565b6001805461047190610a74565b80601f016020809104026020016040519081016040528092919081815260200182805461049d90610a74565b80156104ea5780601f106104bf576101008083540402835291602001916104ea565b820191906000526020600020905b8154815290600101906020018083116104cd57829003601f168201915b505050505081565b600081600560003373ffffffffffffffffffffffffffffffffffffffff1673ffffffffffffffffffffffffffffffffffffffff168152602001908152602001600020541015610576576040517f08c379a000000000000000000000000000000000000000000000000000000000815260040161056d90610cf2565b60405180910390fd5b81600560003373ffffffffffffffffffffffffffffffffffffffff1673ffffffffffffffffffffffffffffffffffffffff16815260200190815260200160002060008282546105c59190610c72565b9250508190555081600560008573ffffffffffffffffffffffffffffffffffffffff1673ffffffffffffffffffffffffffffffffffffffff168152602001908152602001600020600082825461061b9190610c3e565b925050819055506001905092915050565b806000908161063b9190610ebe565b5050565b600081519050919050565b600082825260208201905092915050565b60005b8381101561067957808201518184015260208101905061065e565b60008484015250505050565b6000601f19601f8301169050919050565b60006106a18261063f565b6106ab818561064a565b93506106bb81856020860161065b565b6106c481610685565b840191505092915050565b600060208201905081810360008301526106e98184610696565b905092915050565b6000819050919050565b610704816106f1565b82525050565b600060208201905061071f60008301846106fb565b92915050565b600060ff82169050919050565b61073b81610725565b82525050565b60006020820190506107566000830184610732565b92915050565b6000604051905090565b600080fd5b600080fd5b600073ffffffffffffffffffffffffffffffffffffffff82169050919050565b600061079b82610770565b9050919050565b6107ab81610790565b81146107b657600080fd5b50565b6000813590506107c8816107a2565b92915050565b6107d7816106f1565b81146107e257600080fd5b50565b6000813590506107f4816107ce565b92915050565b6000806040838503121561081157610810610766565b5b600061081f858286016107b9565b9250506020610830858286016107e5565b9150509250929050565b6000602082840312156108505761084f610766565b5b600061085e848285016107b9565b91505092915050565b61087081610790565b82525050565b600060208201905061088b6000830184610867565b92915050565b60008115159050919050565b6108a681610891565b82525050565b60006020820190506108c1600083018461089d565b92915050565b600080fd5b600080fd5b7f4e487b7100000000000000000000000000000000000000000000000000000000600052604160045260246000fd5b61090982610685565b810181811067ffffffffffffffff82111715610928576109276108d1565b5b80604052505050565b600061093b61075c565b90506109478282610900565b919050565b600067ffffffffffffffff821115610967576109666108d1565b5b61097082610685565b9050602081019050919050565b82818337600083830152505050565b600061099f61099a8461094c565b610931565b9050828152602081018484840111156109bb576109ba6108cc565b5b6109c684828561097d565b509392505050565b600082601f8301126109e3576109e26108c7565b5b81356109f384826020860161098c565b91505092915050565b600060208284031215610a1257610a11610766565b5b600082013567ffffffffffffffff811115610a3057610a2f61076b565b5b610a3c848285016109ce565b91505092915050565b7f4e487b7100000000000000000000000000000000000000000000000000000000600052602260045260246000fd5b60006002820490506001821680610a8c57607f821691505b602082108103610a9f57610a9e610a45565b5b50919050565b7f4f6e6c7920746865206f776e65722063616e20706572666f726d20746869732060008201527f616374696f6e0000000000000000000000000000000000000000000000000000602082015250565b6000610b0160268361064a565b9150610b0c82610aa5565b604082019050919050565b60006020820190508181036000830152610b3081610af4565b9050919050565b7f496e76616c696420726563697069656e74206164647265737300000000000000600082015250565b6000610b6d60198361064a565b9150610b7882610b37565b602082019050919050565b60006020820190508181036000830152610b9c81610b60565b9050919050565b7f416d6f756e74206d7573742062652067726561746572207468616e2030000000600082015250565b6000610bd9601d8361064a565b9150610be482610ba3565b602082019050919050565b60006020820190508181036000830152610c0881610bcc565b9050919050565b7f4e487b7100000000000000000000000000000000000000000000000000000000600052601160045260246000fd5b6000610c49826106f1565b9150610c54836106f1565b9250828201905080821115610c6c57610c6b610c0f565b5b92915050565b6000610c7d826106f1565b9150610c88836106f1565b9250828203905081811115610ca057610c9f610c0f565b5b92915050565b7f496e73756666696369656e742062616c616e6365000000000000000000000000600082015250565b6000610cdc60148361064a565b9150610ce782610ca6565b602082019050919050565b60006020820190508181036000830152610d0b81610ccf565b9050919050565b60008190508160005260206000209050919050565b60006020601f8301049050919050565b600082821b905092915050565b600060088302610d747fffffffffffffffffffffffffffffffffffffffffffffffffffffffffffffffff82610d37565b610d7e8683610d37565b95508019841693508086168417925050509392505050565b6000819050919050565b6000610dbb610db6610db1846106f1565b610d96565b6106f1565b9050919050565b6000819050919050565b610dd583610da0565b610de9610de182610dc2565b848454610d44565b825550505050565b600090565b610dfe610df1565b610e09818484610dcc565b505050565b5b81811015610e2d57610e22600082610df6565b600181019050610e0f565b5050565b601f821115610e7257610e4381610d12565b610e4c84610d27565b81016020851015610e5b578190505b610e6f610e6785610d27565b830182610e0e565b50505b505050565b600082821c905092915050565b6000610e9560001984600802610e77565b1980831691505092915050565b6000610eae8383610e84565b9150826002028217905092915050565b610ec78261063f565b67ffffffffffffffff811115610ee057610edf6108d1565b5b610eea8254610a74565b610ef5828285610e31565b600060209050601f831160018114610f285760008415610f16578287015190505b610f208582610ea2565b865550610f88565b601f198416610f3686610d12565b60005b82811015610f5e57848901518255600182019150602085019450602081019050610f39565b86831015610f7b5784890151610f77601f891682610e84565b8355505b6001600288020188555050505b50505050505056fea26469706673582212202e358335c8f8092f1cbb99588ddb3ac9e6b77e3ecddede568ef5ae787bc0dffd64736f6c63430008130033",
  "immutableReferences": {},
  "source": "// SPDX-License-Identifier: MIT\npragma solidity ^0.8.0;\n\ncontract CoinReceiver {\n    string private name = \"Custom Coin\";\n    string public symbol = \"CC\";\n    uint8 public decimals = 18;\n    uint256 public totalSupply;\n    address public owner;\n    mapping (address => uint256) public balanceOf;\n\n    constructor() {\n        owner = msg.sender;\n        totalSupply = 0; //Initialize total supply to 0\n    }   \n\n    modifier onlyOwner() {\n        require(msg.sender == owner, \"Only the owner can perform this action\");\n        _;\n    }\n\n    function getName() external view returns (string memory) {\n        return name;\n    }\n\n    function setName(string memory _name) external {\n        name = _name;\n    } \n\n    function deposit(address recipient, uint256 amount) public onlyOwner {\n        require(recipient != address(0), \"Invalid recipient address\");\n        require(amount > 0, \"Amount must be greater than 0\");\n        balanceOf[recipient] += amount;\n        totalSupply -= amount;\n    }\n\n    function transfer(address to, uint256 value) public returns (bool success){\n        require(balanceOf[msg.sender] >= value, \"Insufficient balance\");\n        balanceOf[msg.sender] -= value;\n        balanceOf[to] += value;\n        \n        return true;\n    }\n}",
  "sourcePath": "/home/parallel_user/project-vanet-blockchain/contracts/CoinReceiver.sol",
  "compiler": {
    "name": "solc",
    "version": "0.8.19+commit.7dd6d404.Emscripten.clang"
  },
  "schemaVersion": "3.4.13",
  "updatedAt": "2023-09-29T06:39:50.711Z",
  "networkType": "ethereum",
  "devdoc": {
    "kind": "dev",
    "methods": {},
    "version": 1
  },
  "userdoc": {
    "kind": "user",
    "methods": {},
    "version": 1
  }
}