{
  "contractName": "CoinReceiver",
  "abi": [
    {
      "inputs": [],
      "stateMutability": "nonpayable",
      "type": "constructor"
    },
    {
      "inputs": [
        {
          "internalType": "address",
          "name": "",
          "type": "address"
        }
      ],
      "name": "balanceOf",
      "outputs": [
        {
          "internalType": "uint256",
          "name": "",
          "type": "uint256"
        }
      ],
      "stateMutability": "view",
      "type": "function",
      "constant": true
    },
    {
      "inputs": [],
      "name": "decimals",
      "outputs": [
        {
          "internalType": "uint8",
          "name": "",
          "type": "uint8"
        }
      ],
      "stateMutability": "view",
      "type": "function",
      "constant": true
    },
    {
      "inputs": [],
      "name": "owner",
      "outputs": [
        {
          "internalType": "address",
          "name": "",
          "type": "address"
        }
      ],
      "stateMutability": "view",
      "type": "function",
      "constant": true
    },
    {
      "inputs": [],
      "name": "symbol",
      "outputs": [
        {
          "internalType": "string",
          "name": "",
          "type": "string"
        }
      ],
      "stateMutability": "view",
      "type": "function",
      "constant": true
    },
    {
      "inputs": [],
      "name": "totalSupply",
      "outputs": [
        {
          "internalType": "uint256",
          "name": "",
          "type": "uint256"
        }
      ],
      "stateMutability": "view",
      "type": "function",
      "constant": true
    },
    {
      "inputs": [],
      "name": "getName",
      "outputs": [
        {
          "internalType": "string",
          "name": "",
          "type": "string"
        }
      ],
      "stateMutability": "view",
      "type": "function",
      "constant": true
    },
    {
      "inputs": [
        {
          "internalType": "address",
          "name": "recipient",
          "type": "address"
        },
        {
          "internalType": "uint256",
          "name": "amount",
          "type": "uint256"
        }
      ],
      "name": "deposit",
      "outputs": [],
      "stateMutability": "nonpayable",
      "type": "function"
    },
    {
      "inputs": [
        {
          "internalType": "address",
          "name": "to",
          "type": "address"
        },
        {
          "internalType": "uint256",
          "name": "value",
          "type": "uint256"
        }
      ],
      "name": "transfer",
      "outputs": [
        {
          "internalType": "bool",
          "name": "success",
          "type": "bool"
        }
      ],
      "stateMutability": "nonpayable",
      "type": "function"
    }
  ],
  "bytecode": "0x60806040526040518060400160405280600b81526020017f437573746f6d20436f696e000000000000000000000000000000000000000000815250600090816200004a919062000385565b506040518060400160405280600281526020017f43430000000000000000000000000000000000000000000000000000000000008152506001908162000091919062000385565b506012600260006101000a81548160ff021916908360ff160217905550348015620000bb57600080fd5b5033600460006101000a81548173ffffffffffffffffffffffffffffffffffffffff021916908373ffffffffffffffffffffffffffffffffffffffff16021790555060006003819055506200046c565b600081519050919050565b7f4e487b7100000000000000000000000000000000000000000000000000000000600052604160045260246000fd5b7f4e487b7100000000000000000000000000000000000000000000000000000000600052602260045260246000fd5b600060028204905060018216806200018d57607f821691505b602082108103620001a357620001a262000145565b5b50919050565b60008190508160005260206000209050919050565b60006020601f8301049050919050565b600082821b905092915050565b6000600883026200020d7fffffffffffffffffffffffffffffffffffffffffffffffffffffffffffffffff82620001ce565b620002198683620001ce565b95508019841693508086168417925050509392505050565b6000819050919050565b6000819050919050565b600062000266620002606200025a8462000231565b6200023b565b62000231565b9050919050565b6000819050919050565b620002828362000245565b6200029a62000291826200026d565b848454620001db565b825550505050565b600090565b620002b1620002a2565b620002be81848462000277565b505050565b5b81811015620002e657620002da600082620002a7565b600181019050620002c4565b5050565b601f8211156200033557620002ff81620001a9565b6200030a84620001be565b810160208510156200031a578190505b620003326200032985620001be565b830182620002c3565b50505b505050565b600082821c905092915050565b60006200035a600019846008026200033a565b1980831691505092915050565b600062000375838362000347565b9150826002028217905092915050565b62000390826200010b565b67ffffffffffffffff811115620003ac57620003ab62000116565b5b620003b8825462000174565b620003c5828285620002ea565b600060209050601f831160018114620003fd5760008415620003e8578287015190505b620003f4858262000367565b86555062000464565b601f1984166200040d86620001a9565b60005b82811015620004375784890151825560018201915060208501945060208101905062000410565b8683101562000457578489015162000453601f89168262000347565b8355505b6001600288020188555050505b505050505050565b610b81806200047c6000396000f3fe608060405234801561001057600080fd5b50600436106100885760003560e01c806370a082311161005b57806370a08231146101035780638da5cb5b1461013357806395d89b4114610151578063a9059cbb1461016f57610088565b806317d7de7c1461008d57806318160ddd146100ab578063313ce567146100c957806347e7ef24146100e7575b600080fd5b61009561019f565b6040516100a29190610695565b60405180910390f35b6100b3610231565b6040516100c091906106d0565b60405180910390f35b6100d1610237565b6040516100de9190610707565b60405180910390f35b61010160048036038101906100fc91906107b1565b61024a565b005b61011d600480360381019061011891906107f1565b6103ff565b60405161012a91906106d0565b60405180910390f35b61013b610417565b604051610148919061082d565b60405180910390f35b61015961043d565b6040516101669190610695565b60405180910390f35b610189600480360381019061018491906107b1565b6104cb565b6040516101969190610863565b60405180910390f35b6060600080546101ae906108ad565b80601f01602080910402602001604051908101604052809291908181526020018280546101da906108ad565b80156102275780601f106101fc57610100808354040283529160200191610227565b820191906000526020600020905b81548152906001019060200180831161020a57829003601f168201915b5050505050905090565b60035481565b600260009054906101000a900460ff1681565b600460009054906101000a900473ffffffffffffffffffffffffffffffffffffffff1673ffffffffffffffffffffffffffffffffffffffff163373ffffffffffffffffffffffffffffffffffffffff16146102da576040517f08c379a00000000000000000000000000000000000000000000000000000000081526004016102d190610950565b60405180910390fd5b600073ffffffffffffffffffffffffffffffffffffffff168273ffffffffffffffffffffffffffffffffffffffff1603610349576040517f08c379a0000000000000000000000000000000000000000000000000000000008152600401610340906109bc565b60405180910390fd5b6000811161038c576040517f08c379a000000000000000000000000000000000000000000000000000000000815260040161038390610a28565b60405180910390fd5b80600560008473ffffffffffffffffffffffffffffffffffffffff1673ffffffffffffffffffffffffffffffffffffffff16815260200190815260200160002060008282546103db9190610a77565b9250508190555080600360008282546103f49190610aab565b925050819055505050565b60056020528060005260406000206000915090505481565b600460009054906101000a900473ffffffffffffffffffffffffffffffffffffffff1681565b6001805461044a906108ad565b80601f0160208091040260200160405190810160405280929190818152602001828054610476906108ad565b80156104c35780601f10610498576101008083540402835291602001916104c3565b820191906000526020600020905b8154815290600101906020018083116104a657829003601f168201915b505050505081565b600081600560003373ffffffffffffffffffffffffffffffffffffffff1673ffffffffffffffffffffffffffffffffffffffff16815260200190815260200160002054101561054f576040517f08c379a000000000000000000000000000000000000000000000000000000000815260040161054690610b2b565b60405180910390fd5b81600560003373ffffffffffffffffffffffffffffffffffffffff1673ffffffffffffffffffffffffffffffffffffffff168152602001908152602001600020600082825461059e9190610aab565b9250508190555081600560008573ffffffffffffffffffffffffffffffffffffffff1673ffffffffffffffffffffffffffffffffffffffff16815260200190815260200160002060008282546105f49190610a77565b925050819055506001905092915050565b600081519050919050565b600082825260208201905092915050565b60005b8381101561063f578082015181840152602081019050610624565b60008484015250505050565b6000601f19601f8301169050919050565b600061066782610605565b6106718185610610565b9350610681818560208601610621565b61068a8161064b565b840191505092915050565b600060208201905081810360008301526106af818461065c565b905092915050565b6000819050919050565b6106ca816106b7565b82525050565b60006020820190506106e560008301846106c1565b92915050565b600060ff82169050919050565b610701816106eb565b82525050565b600060208201905061071c60008301846106f8565b92915050565b600080fd5b600073ffffffffffffffffffffffffffffffffffffffff82169050919050565b600061075282610727565b9050919050565b61076281610747565b811461076d57600080fd5b50565b60008135905061077f81610759565b92915050565b61078e816106b7565b811461079957600080fd5b50565b6000813590506107ab81610785565b92915050565b600080604083850312156107c8576107c7610722565b5b60006107d685828601610770565b92505060206107e78582860161079c565b9150509250929050565b60006020828403121561080757610806610722565b5b600061081584828501610770565b91505092915050565b61082781610747565b82525050565b6000602082019050610842600083018461081e565b92915050565b60008115159050919050565b61085d81610848565b82525050565b60006020820190506108786000830184610854565b92915050565b7f4e487b7100000000000000000000000000000000000000000000000000000000600052602260045260246000fd5b600060028204905060018216806108c557607f821691505b6020821081036108d8576108d761087e565b5b50919050565b7f4f6e6c7920746865206f776e65722063616e20706572666f726d20746869732060008201527f616374696f6e0000000000000000000000000000000000000000000000000000602082015250565b600061093a602683610610565b9150610945826108de565b604082019050919050565b600060208201905081810360008301526109698161092d565b9050919050565b7f496e76616c696420726563697069656e74206164647265737300000000000000600082015250565b60006109a6601983610610565b91506109b182610970565b602082019050919050565b600060208201905081810360008301526109d581610999565b9050919050565b7f416d6f756e74206d7573742062652067726561746572207468616e2030000000600082015250565b6000610a12601d83610610565b9150610a1d826109dc565b602082019050919050565b60006020820190508181036000830152610a4181610a05565b9050919050565b7f4e487b7100000000000000000000000000000000000000000000000000000000600052601160045260246000fd5b6000610a82826106b7565b9150610a8d836106b7565b9250828201905080821115610aa557610aa4610a48565b5b92915050565b6000610ab6826106b7565b9150610ac1836106b7565b9250828203905081811115610ad957610ad8610a48565b5b92915050565b7f496e73756666696369656e742062616c616e6365000000000000000000000000600082015250565b6000610b15601483610610565b9150610b2082610adf565b602082019050919050565b60006020820190508181036000830152610b4481610b08565b905091905056fea264697066735822122042682e4c7cbcf1e862286c0eaea447b96a2754e9948f91fa5c76abb065e4247864736f6c63430008130033",
  "immutableReferences": {},
  "source": "// SPDX-License-Identifier: MIT\npragma solidity ^0.8.0;\n\ncontract CoinReceiver {\n    string private name = \"Custom Coin\";\n    string public symbol = \"CC\";\n    uint8 public decimals = 18;\n    uint256 public totalSupply;\n    address public owner;\n    mapping (address => uint256) public balanceOf;\n\n    constructor() {\n        owner = msg.sender;\n        totalSupply = 0; //Initialize total supply to 0\n    }   \n\n    modifier onlyOwner() {\n        require(msg.sender == owner, \"Only the owner can perform this action\");\n        _;\n    }\n\n    function getName() external view returns (string memory) {\n        return name;\n    }\n\n    function deposit(address recipient, uint256 amount) public onlyOwner {\n        require(recipient != address(0), \"Invalid recipient address\");\n        require(amount > 0, \"Amount must be greater than 0\");\n        balanceOf[recipient] += amount;\n        totalSupply -= amount;\n    }\n\n    function transfer(address to, uint256 value) public returns (bool success){\n        require(balanceOf[msg.sender] >= value, \"Insufficient balance\");\n        balanceOf[msg.sender] -= value;\n        balanceOf[to] += value;\n        \n        return true;\n    }\n}",
  "sourcePath": "/home/parallel_user/vanet-coin/contracts/CoinReceiver.sol",
  "compiler": {
    "name": "solc",
    "version": "0.8.19+commit.7dd6d404.Emscripten.clang"
  },
  "schemaVersion": "3.4.13",
  "updatedAt": "2023-09-28T05:36:44.391Z",
  "networkType": "ethereum",
  "devdoc": {
    "kind": "dev",
    "methods": {},
    "version": 1
  },
  "userdoc": {
    "kind": "user",
    "methods": {},
    "version": 1
  }
}