{
  "contractName": "RideShare",
  "abi": [
    {
      "inputs": [],
      "stateMutability": "nonpayable",
      "type": "constructor"
    },
    {
      "anonymous": false,
      "inputs": [
        {
          "indexed": false,
          "internalType": "uint256",
          "name": "id",
          "type": "uint256"
        },
        {
          "indexed": false,
          "internalType": "string",
          "name": "name",
          "type": "string"
        },
        {
          "indexed": false,
          "internalType": "string",
          "name": "phoneNumber",
          "type": "string"
        },
        {
          "indexed": false,
          "internalType": "uint256",
          "name": "numberOfPeople",
          "type": "uint256"
        },
        {
          "indexed": false,
          "internalType": "string",
          "name": "state",
          "type": "string"
        }
      ],
      "name": "PassengerAdded",
      "type": "event"
    },
    {
      "inputs": [],
      "name": "passengerAcctsCounter",
      "outputs": [
        {
          "internalType": "uint256",
          "name": "",
          "type": "uint256"
        }
      ],
      "stateMutability": "view",
      "type": "function",
      "constant": true
    },
    {
      "inputs": [
        {
          "internalType": "address",
          "name": "",
          "type": "address"
        }
      ],
      "name": "passengerCounter",
      "outputs": [
        {
          "internalType": "uint256",
          "name": "",
          "type": "uint256"
        }
      ],
      "stateMutability": "view",
      "type": "function",
      "constant": true
    },
    {
      "inputs": [
        {
          "internalType": "address",
          "name": "",
          "type": "address"
        },
        {
          "internalType": "uint256",
          "name": "",
          "type": "uint256"
        }
      ],
      "name": "passengersTest",
      "outputs": [
        {
          "internalType": "uint256",
          "name": "id",
          "type": "uint256"
        },
        {
          "internalType": "string",
          "name": "name",
          "type": "string"
        },
        {
          "internalType": "string",
          "name": "phoneNumber",
          "type": "string"
        },
        {
          "internalType": "uint256",
          "name": "numberOfPeople",
          "type": "uint256"
        },
        {
          "internalType": "string",
          "name": "state",
          "type": "string"
        }
      ],
      "stateMutability": "view",
      "type": "function",
      "constant": true
    },
    {
      "inputs": [],
      "name": "rideCounter",
      "outputs": [
        {
          "internalType": "uint256",
          "name": "",
          "type": "uint256"
        }
      ],
      "stateMutability": "view",
      "type": "function",
      "constant": true
    },
    {
      "inputs": [
        {
          "internalType": "uint256",
          "name": "",
          "type": "uint256"
        }
      ],
      "name": "rides",
      "outputs": [
        {
          "internalType": "address",
          "name": "driver",
          "type": "address"
        },
        {
          "internalType": "uint256",
          "name": "drivingCost",
          "type": "uint256"
        },
        {
          "internalType": "uint256",
          "name": "capacity",
          "type": "uint256"
        },
        {
          "internalType": "uint256",
          "name": "confirmedAt",
          "type": "uint256"
        },
        {
          "internalType": "string",
          "name": "originAddress",
          "type": "string"
        },
        {
          "internalType": "string",
          "name": "desAddress",
          "type": "string"
        }
      ],
      "stateMutability": "view",
      "type": "function",
      "constant": true
    },
    {
      "inputs": [
        {
          "internalType": "address",
          "name": "_driver",
          "type": "address"
        },
        {
          "internalType": "uint256",
          "name": "_drivingCost",
          "type": "uint256"
        },
        {
          "internalType": "uint256",
          "name": "_capacity",
          "type": "uint256"
        },
        {
          "internalType": "uint256",
          "name": "_confirmedAt",
          "type": "uint256"
        },
        {
          "internalType": "string",
          "name": "_originAddress",
          "type": "string"
        },
        {
          "internalType": "string",
          "name": "_destAddress",
          "type": "string"
        }
      ],
      "name": "createRide",
      "outputs": [],
      "stateMutability": "nonpayable",
      "type": "function"
    },
    {
      "inputs": [
        {
          "internalType": "string",
          "name": "_name",
          "type": "string"
        },
        {
          "internalType": "string",
          "name": "_phoneNumber",
          "type": "string"
        },
        {
          "internalType": "uint256",
          "name": "_numberOfPeople",
          "type": "uint256"
        },
        {
          "internalType": "string",
          "name": "_state",
          "type": "string"
        }
      ],
      "name": "addPassenger",
      "outputs": [],
      "stateMutability": "nonpayable",
      "type": "function"
    },
    {
      "inputs": [
        {
          "internalType": "address",
          "name": "_address",
          "type": "address"
        }
      ],
      "name": "retrievePassenger",
      "outputs": [
        {
          "internalType": "string",
          "name": "",
          "type": "string"
        },
        {
          "internalType": "string",
          "name": "",
          "type": "string"
        },
        {
          "internalType": "uint256",
          "name": "",
          "type": "uint256"
        },
        {
          "internalType": "string",
          "name": "",
          "type": "string"
        }
      ],
      "stateMutability": "view",
      "type": "function",
      "constant": true
    },
    {
      "inputs": [
        {
          "internalType": "uint256",
          "name": "_rideIndex",
          "type": "uint256"
        }
      ],
      "name": "retrieveRide",
      "outputs": [
        {
          "components": [
            {
              "internalType": "address",
              "name": "driver",
              "type": "address"
            },
            {
              "internalType": "uint256",
              "name": "drivingCost",
              "type": "uint256"
            },
            {
              "internalType": "uint256",
              "name": "capacity",
              "type": "uint256"
            },
            {
              "internalType": "uint256",
              "name": "confirmedAt",
              "type": "uint256"
            },
            {
              "internalType": "string",
              "name": "originAddress",
              "type": "string"
            },
            {
              "internalType": "string",
              "name": "desAddress",
              "type": "string"
            },
            {
              "internalType": "address payable[]",
              "name": "passengerAccts",
              "type": "address[]"
            }
          ],
          "internalType": "struct RideShare.Ride",
          "name": "",
          "type": "tuple"
        }
      ],
      "stateMutability": "view",
      "type": "function",
      "constant": true
    },
    {
      "inputs": [
        {
          "internalType": "uint256",
          "name": "_rideIndex",
          "type": "uint256"
        }
      ],
      "name": "joinRide",
      "outputs": [],
      "stateMutability": "payable",
      "type": "function",
      "payable": true
    },
    {
      "inputs": [
        {
          "internalType": "uint256",
          "name": "_rideIndex",
          "type": "uint256"
        }
      ],
      "name": "confirmDriverMet",
      "outputs": [],
      "stateMutability": "nonpayable",
      "type": "function"
    },
    {
      "inputs": [
        {
          "internalType": "uint256",
          "name": "_rideIndex",
          "type": "uint256"
        }
      ],
      "name": "arrived",
      "outputs": [],
      "stateMutability": "nonpayable",
      "type": "function"
    },
    {
      "inputs": [
        {
          "internalType": "uint256",
          "name": "_rideIndex",
          "type": "uint256"
        }
      ],
      "name": "cancelRide",
      "outputs": [],
      "stateMutability": "nonpayable",
      "type": "function"
    }
  ],
  "bytecode": "0x60806040523480156200001157600080fd5b50620000c66040518060400160405280600381526020017f44617400000000000000000000000000000000000000000000000000000000008152506040518060400160405280600a81526020017f303334383234373036340000000000000000000000000000000000000000000081525060016040518060400160405280600781526020017f696e697469616c00000000000000000000000000000000000000000000000000815250620000cc60201b60201c565b62000774565b6000600460003373ffffffffffffffffffffffffffffffffffffffff1673ffffffffffffffffffffffffffffffffffffffff1681526020019081526020016000205490506040518060a0016040528082815260200186815260200185815260200184815260200183815250600360003373ffffffffffffffffffffffffffffffffffffffff1673ffffffffffffffffffffffffffffffffffffffff1681526020019081526020016000206000838152602001908152602001600020600082015181600001556020820151816001019081620001a89190620004ff565b506040820151816002019081620001c09190620004ff565b50606082015181600301556080820151816004019081620001e29190620004ff565b509050507f9d3c64572eacb6680259a3816e5a2c8372cce110b2b3fbc6f58022582cd1802c81868686866040516200021f95949392919062000686565b60405180910390a1600460003373ffffffffffffffffffffffffffffffffffffffff1673ffffffffffffffffffffffffffffffffffffffff1681526020019081526020016000206000815480929190620002799062000727565b91905055505050505050565b600081519050919050565b7f4e487b7100000000000000000000000000000000000000000000000000000000600052604160045260246000fd5b7f4e487b7100000000000000000000000000000000000000000000000000000000600052602260045260246000fd5b600060028204905060018216806200030757607f821691505b6020821081036200031d576200031c620002bf565b5b50919050565b60008190508160005260206000209050919050565b60006020601f8301049050919050565b600082821b905092915050565b600060088302620003877fffffffffffffffffffffffffffffffffffffffffffffffffffffffffffffffff8262000348565b62000393868362000348565b95508019841693508086168417925050509392505050565b6000819050919050565b6000819050919050565b6000620003e0620003da620003d484620003ab565b620003b5565b620003ab565b9050919050565b6000819050919050565b620003fc83620003bf565b620004146200040b82620003e7565b84845462000355565b825550505050565b600090565b6200042b6200041c565b62000438818484620003f1565b505050565b5b8181101562000460576200045460008262000421565b6001810190506200043e565b5050565b601f821115620004af57620004798162000323565b620004848462000338565b8101602085101562000494578190505b620004ac620004a38562000338565b8301826200043d565b50505b505050565b600082821c905092915050565b6000620004d460001984600802620004b4565b1980831691505092915050565b6000620004ef8383620004c1565b9150826002028217905092915050565b6200050a8262000285565b67ffffffffffffffff81111562000526576200052562000290565b5b620005328254620002ee565b6200053f82828562000464565b600060209050601f83116001811462000577576000841562000562578287015190505b6200056e8582620004e1565b865550620005de565b601f198416620005878662000323565b60005b82811015620005b1578489015182556001820191506020850194506020810190506200058a565b86831015620005d15784890151620005cd601f891682620004c1565b8355505b6001600288020188555050505b505050505050565b620005f181620003ab565b82525050565b600082825260208201905092915050565b60005b83811015620006285780820151818401526020810190506200060b565b60008484015250505050565b6000601f19601f8301169050919050565b6000620006528262000285565b6200065e8185620005f7565b93506200067081856020860162000608565b6200067b8162000634565b840191505092915050565b600060a0820190506200069d6000830188620005e6565b8181036020830152620006b1818762000645565b90508181036040830152620006c7818662000645565b9050620006d86060830185620005e6565b8181036080830152620006ec818462000645565b90509695505050505050565b7f4e487b7100000000000000000000000000000000000000000000000000000000600052601160045260246000fd5b60006200073482620003ab565b91507fffffffffffffffffffffffffffffffffffffffffffffffffffffffffffffffff8203620007695762000768620006f8565b5b600182019050919050565b61258880620007846000396000f3fe6080604052600436106100c25760003560e01c80637c06c49d1161007f578063b10fefc011610059578063b10fefc01461029d578063b22d5599146102c8578063f2c46f72146102f1578063fd4e13051461031a576100c2565b80637c06c49d1461020c578063a6f07b2914610237578063ac39177a14610260576100c2565b806301f32206146100c7578063073d5be5146100e357806341bc486e146101235780635205f1121461014c57806352d4d25c1461018e5780636e02abb0146101cf575b600080fd5b6100e160048036038101906100dc91906117bb565b610343565b005b3480156100ef57600080fd5b5061010a60048036038101906101059190611846565b6104da565b60405161011a9493929190611912565b60405180910390f35b34801561012f57600080fd5b5061014a60048036038101906101459190611aa1565b6106e9565b005b34801561015857600080fd5b50610173600480360381019061016e91906117bb565b61087c565b60405161018596959493929190611b75565b60405180910390f35b34801561019a57600080fd5b506101b560048036038101906101b09190611be4565b6109f8565b6040516101c6959493929190611c24565b60405180910390f35b3480156101db57600080fd5b506101f660048036038101906101f19190611846565b610bd3565b6040516102039190611c8c565b60405180910390f35b34801561021857600080fd5b50610221610beb565b60405161022e9190611c8c565b60405180910390f35b34801561024357600080fd5b5061025e600480360381019061025991906117bb565b610bf1565b005b34801561026c57600080fd5b50610287600480360381019061028291906117bb565b610de2565b6040516102949190611e89565b60405180910390f35b3480156102a957600080fd5b506102b2611044565b6040516102bf9190611c8c565b60405180910390f35b3480156102d457600080fd5b506102ef60048036038101906102ea9190611eab565b61104a565b005b3480156102fd57600080fd5b50610318600480360381019061031391906117bb565b6111f9565b005b34801561032657600080fd5b50610341600480360381019061033c91906117bb565b6114e5565b005b60006005828154811061035957610358611f66565b5b9060005260206000209060070201905080600201548160060180549050106103b6576040517f08c379a00000000000000000000000000000000000000000000000000000000081526004016103ad90611fe1565b60405180910390fd5b80600101543410156103fd576040517f08c379a00000000000000000000000000000000000000000000000000000000081526004016103f490612073565b60405180910390fd5b80600601339080600181540180825580915050600190039060005260206000200160009091909190916101000a81548173ffffffffffffffffffffffffffffffffffffffff021916908373ffffffffffffffffffffffffffffffffffffffff160217905550806002015460025411156104795760006002819055505b6002546000803373ffffffffffffffffffffffffffffffffffffffff1673ffffffffffffffffffffffffffffffffffffffff16815260200190815260200160002081905550600260008154809291906104d1906120c2565b91905055505050565b606080600060606000600160008773ffffffffffffffffffffffffffffffffffffffff1673ffffffffffffffffffffffffffffffffffffffff1681526020019081526020016000209050806001018160020182600301548360040183805461054190612139565b80601f016020809104026020016040519081016040528092919081815260200182805461056d90612139565b80156105ba5780601f1061058f576101008083540402835291602001916105ba565b820191906000526020600020905b81548152906001019060200180831161059d57829003601f168201915b505050505093508280546105cd90612139565b80601f01602080910402602001604051908101604052809291908181526020018280546105f990612139565b80156106465780601f1061061b57610100808354040283529160200191610646565b820191906000526020600020905b81548152906001019060200180831161062957829003601f168201915b5050505050925080805461065990612139565b80601f016020809104026020016040519081016040528092919081815260200182805461068590612139565b80156106d25780601f106106a7576101008083540402835291602001916106d2565b820191906000526020600020905b8154815290600101906020018083116106b557829003601f168201915b505050505090509450945094509450509193509193565b60006040518060e001604052808873ffffffffffffffffffffffffffffffffffffffff168152602001878152602001868152602001858152602001848152602001838152602001600067ffffffffffffffff81111561074b5761074a611976565b5b6040519080825280602002602001820160405280156107795781602001602082028036833780820191505090505b508152509050600581908060018154018082558091505060019003906000526020600020906007020160009091909190915060008201518160000160006101000a81548173ffffffffffffffffffffffffffffffffffffffff021916908373ffffffffffffffffffffffffffffffffffffffff16021790555060208201518160010155604082015181600201556060820151816003015560808201518160040190816108259190612316565b5060a082015181600501908161083b9190612316565b5060c0820151816006019080519060200190610858929190611677565b5050506006600081548092919061086e906120c2565b919050555050505050505050565b6005818154811061088c57600080fd5b90600052602060002090600702016000915090508060000160009054906101000a900473ffffffffffffffffffffffffffffffffffffffff16908060010154908060020154908060030154908060040180546108e790612139565b80601f016020809104026020016040519081016040528092919081815260200182805461091390612139565b80156109605780601f1061093557610100808354040283529160200191610960565b820191906000526020600020905b81548152906001019060200180831161094357829003601f168201915b50505050509080600501805461097590612139565b80601f01602080910402602001604051908101604052809291908181526020018280546109a190612139565b80156109ee5780601f106109c3576101008083540402835291602001916109ee565b820191906000526020600020905b8154815290600101906020018083116109d157829003601f168201915b5050505050905086565b600360205281600052604060002060205280600052604060002060009150915050806000015490806001018054610a2e90612139565b80601f0160208091040260200160405190810160405280929190818152602001828054610a5a90612139565b8015610aa75780601f10610a7c57610100808354040283529160200191610aa7565b820191906000526020600020905b815481529060010190602001808311610a8a57829003601f168201915b505050505090806002018054610abc90612139565b80601f0160208091040260200160405190810160405280929190818152602001828054610ae890612139565b8015610b355780601f10610b0a57610100808354040283529160200191610b35565b820191906000526020600020905b815481529060010190602001808311610b1857829003601f168201915b505050505090806003015490806004018054610b5090612139565b80601f0160208091040260200160405190810160405280929190818152602001828054610b7c90612139565b8015610bc95780601f10610b9e57610100808354040283529160200191610bc9565b820191906000526020600020905b815481529060010190602001808311610bac57829003601f168201915b5050505050905085565b60046020528060005260406000206000915090505481565b60025481565b600060058281548110610c0757610c06611f66565b5b906000526020600020906007020190508060030154421115610c5e576040517f08c379a0000000000000000000000000000000000000000000000000000000008152600401610c5590612434565b60405180910390fd5b8060000160009054906101000a900473ffffffffffffffffffffffffffffffffffffffff1673ffffffffffffffffffffffffffffffffffffffff163373ffffffffffffffffffffffffffffffffffffffff1603610d465780600601600081548110610ccc57610ccb611f66565b5b9060005260206000200160009054906101000a900473ffffffffffffffffffffffffffffffffffffffff1673ffffffffffffffffffffffffffffffffffffffff166108fc82600101549081150290604051600060405180830381858888f19350505050158015610d40573d6000803e3d6000fd5b50610dde565b6000600160003373ffffffffffffffffffffffffffffffffffffffff1673ffffffffffffffffffffffffffffffffffffffff16815260200190815260200160002090506000816004018054610d9a90612139565b905003610ddc576040517f08c379a0000000000000000000000000000000000000000000000000000000008152600401610dd3906124a0565b60405180910390fd5b505b5050565b610dea611701565b60058281548110610dfe57610dfd611f66565b5b90600052602060002090600702016040518060e00160405290816000820160009054906101000a900473ffffffffffffffffffffffffffffffffffffffff1673ffffffffffffffffffffffffffffffffffffffff1673ffffffffffffffffffffffffffffffffffffffff168152602001600182015481526020016002820154815260200160038201548152602001600482018054610e9b90612139565b80601f0160208091040260200160405190810160405280929190818152602001828054610ec790612139565b8015610f145780601f10610ee957610100808354040283529160200191610f14565b820191906000526020600020905b815481529060010190602001808311610ef757829003601f168201915b50505050508152602001600582018054610f2d90612139565b80601f0160208091040260200160405190810160405280929190818152602001828054610f5990612139565b8015610fa65780601f10610f7b57610100808354040283529160200191610fa6565b820191906000526020600020905b815481529060010190602001808311610f8957829003601f168201915b505050505081526020016006820180548060200260200160405190810160405280929190818152602001828054801561103457602002820191906000526020600020905b8160009054906101000a900473ffffffffffffffffffffffffffffffffffffffff1673ffffffffffffffffffffffffffffffffffffffff1681526020019060010190808311610fea575b5050505050815250509050919050565b60065481565b6000600460003373ffffffffffffffffffffffffffffffffffffffff1673ffffffffffffffffffffffffffffffffffffffff1681526020019081526020016000205490506040518060a0016040528082815260200186815260200185815260200184815260200183815250600360003373ffffffffffffffffffffffffffffffffffffffff1673ffffffffffffffffffffffffffffffffffffffff16815260200190815260200160002060008381526020019081526020016000206000820151816000015560208201518160010190816111249190612316565b50604082015181600201908161113a9190612316565b5060608201518160030155608082015181600401908161115a9190612316565b509050507f9d3c64572eacb6680259a3816e5a2c8372cce110b2b3fbc6f58022582cd1802c8186868686604051611195959493929190611c24565b60405180910390a1600460003373ffffffffffffffffffffffffffffffffffffffff1673ffffffffffffffffffffffffffffffffffffffff16815260200190815260200160002060008154809291906111ed906120c2565b91905055505050505050565b60006005828154811061120f5761120e611f66565b5b906000526020600020906007020190508060000160009054906101000a900473ffffffffffffffffffffffffffffffffffffffff1673ffffffffffffffffffffffffffffffffffffffff163373ffffffffffffffffffffffffffffffffffffffff16146112b1576040517f08c379a00000000000000000000000000000000000000000000000000000000081526004016112a890612532565b60405180910390fd5b6000805b82600601805490508110156114745760008360060182815481106112dc576112db611f66565b5b9060005260206000200160009054906101000a900473ffffffffffffffffffffffffffffffffffffffff1690506000600160008373ffffffffffffffffffffffffffffffffffffffff1673ffffffffffffffffffffffffffffffffffffffff1681526020019081526020016000209050600081600401805461135d90612139565b90501415801561141257507f6400000000000000000000000000000000000000000000000000000000000000816004016000815461139a90612139565b81106113a9576113a8611f66565b5b8154600116156113c85790600052602060002090602091828204019190065b9054901a7f0100000000000000000000000000000000000000000000000000000000000000027effffffffffffffffffffffffffffffffffffffffffffffffffffffffffffff1916145b1561145f576040518060400160405280600a81526020017f636f6d706c6574696f6e0000000000000000000000000000000000000000000081525081600401908161145d9190612316565b505b5050808061146c906120c2565b9150506112b5565b508160000160009054906101000a900473ffffffffffffffffffffffffffffffffffffffff1673ffffffffffffffffffffffffffffffffffffffff166108fc829081150290604051600060405180830381858888f193505050501580156114df573d6000803e3d6000fd5b50505050565b6000600582815481106114fb576114fa611f66565b5b9060005260206000209060070201905060008060003373ffffffffffffffffffffffffffffffffffffffff1673ffffffffffffffffffffffffffffffffffffffff168152602001908152602001600020549050600082600601828154811061156657611565611f66565b5b9060005260206000200160009054906101000a900473ffffffffffffffffffffffffffffffffffffffff1690506000600160008373ffffffffffffffffffffffffffffffffffffffff1673ffffffffffffffffffffffffffffffffffffffff168152602001908152602001600020905060008160040180546115e790612139565b905003611629576040517f08c379a0000000000000000000000000000000000000000000000000000000008152600401611620906124a0565b60405180910390fd5b6040518060400160405280600f81526020017f647269766572436f6e6669726d6564000000000000000000000000000000000081525081600401908161166f9190612316565b505050505050565b8280548282559060005260206000209081019282156116f0579160200282015b828111156116ef5782518260006101000a81548173ffffffffffffffffffffffffffffffffffffffff021916908373ffffffffffffffffffffffffffffffffffffffff16021790555091602001919060010190611697565b5b5090506116fd9190611754565b5090565b6040518060e00160405280600073ffffffffffffffffffffffffffffffffffffffff1681526020016000815260200160008152602001600081526020016060815260200160608152602001606081525090565b5b8082111561176d576000816000905550600101611755565b5090565b6000604051905090565b600080fd5b600080fd5b6000819050919050565b61179881611785565b81146117a357600080fd5b50565b6000813590506117b58161178f565b92915050565b6000602082840312156117d1576117d061177b565b5b60006117df848285016117a6565b91505092915050565b600073ffffffffffffffffffffffffffffffffffffffff82169050919050565b6000611813826117e8565b9050919050565b61182381611808565b811461182e57600080fd5b50565b6000813590506118408161181a565b92915050565b60006020828403121561185c5761185b61177b565b5b600061186a84828501611831565b91505092915050565b600081519050919050565b600082825260208201905092915050565b60005b838110156118ad578082015181840152602081019050611892565b60008484015250505050565b6000601f19601f8301169050919050565b60006118d582611873565b6118df818561187e565b93506118ef81856020860161188f565b6118f8816118b9565b840191505092915050565b61190c81611785565b82525050565b6000608082019050818103600083015261192c81876118ca565b9050818103602083015261194081866118ca565b905061194f6040830185611903565b818103606083015261196181846118ca565b905095945050505050565b600080fd5b600080fd5b7f4e487b7100000000000000000000000000000000000000000000000000000000600052604160045260246000fd5b6119ae826118b9565b810181811067ffffffffffffffff821117156119cd576119cc611976565b5b80604052505050565b60006119e0611771565b90506119ec82826119a5565b919050565b600067ffffffffffffffff821115611a0c57611a0b611976565b5b611a15826118b9565b9050602081019050919050565b82818337600083830152505050565b6000611a44611a3f846119f1565b6119d6565b905082815260208101848484011115611a6057611a5f611971565b5b611a6b848285611a22565b509392505050565b600082601f830112611a8857611a8761196c565b5b8135611a98848260208601611a31565b91505092915050565b60008060008060008060c08789031215611abe57611abd61177b565b5b6000611acc89828a01611831565b9650506020611add89828a016117a6565b9550506040611aee89828a016117a6565b9450506060611aff89828a016117a6565b935050608087013567ffffffffffffffff811115611b2057611b1f611780565b5b611b2c89828a01611a73565b92505060a087013567ffffffffffffffff811115611b4d57611b4c611780565b5b611b5989828a01611a73565b9150509295509295509295565b611b6f81611808565b82525050565b600060c082019050611b8a6000830189611b66565b611b976020830188611903565b611ba46040830187611903565b611bb16060830186611903565b8181036080830152611bc381856118ca565b905081810360a0830152611bd781846118ca565b9050979650505050505050565b60008060408385031215611bfb57611bfa61177b565b5b6000611c0985828601611831565b9250506020611c1a858286016117a6565b9150509250929050565b600060a082019050611c396000830188611903565b8181036020830152611c4b81876118ca565b90508181036040830152611c5f81866118ca565b9050611c6e6060830185611903565b8181036080830152611c8081846118ca565b90509695505050505050565b6000602082019050611ca16000830184611903565b92915050565b611cb081611808565b82525050565b611cbf81611785565b82525050565b600082825260208201905092915050565b6000611ce182611873565b611ceb8185611cc5565b9350611cfb81856020860161188f565b611d04816118b9565b840191505092915050565b600081519050919050565b600082825260208201905092915050565b6000819050602082019050919050565b6000611d46826117e8565b9050919050565b611d5681611d3b565b82525050565b6000611d688383611d4d565b60208301905092915050565b6000602082019050919050565b6000611d8c82611d0f565b611d968185611d1a565b9350611da183611d2b565b8060005b83811015611dd2578151611db98882611d5c565b9750611dc483611d74565b925050600181019050611da5565b5085935050505092915050565b600060e083016000830151611df76000860182611ca7565b506020830151611e0a6020860182611cb6565b506040830151611e1d6040860182611cb6565b506060830151611e306060860182611cb6565b5060808301518482036080860152611e488282611cd6565b91505060a083015184820360a0860152611e628282611cd6565b91505060c083015184820360c0860152611e7c8282611d81565b9150508091505092915050565b60006020820190508181036000830152611ea38184611ddf565b905092915050565b60008060008060808587031215611ec557611ec461177b565b5b600085013567ffffffffffffffff811115611ee357611ee2611780565b5b611eef87828801611a73565b945050602085013567ffffffffffffffff811115611f1057611f0f611780565b5b611f1c87828801611a73565b9350506040611f2d878288016117a6565b925050606085013567ffffffffffffffff811115611f4e57611f4d611780565b5b611f5a87828801611a73565b91505092959194509250565b7f4e487b7100000000000000000000000000000000000000000000000000000000600052603260045260246000fd5b7f5269646520697320616c72656164792066756c6c210000000000000000000000600082015250565b6000611fcb60158361187e565b9150611fd682611f95565b602082019050919050565b60006020820190508181036000830152611ffa81611fbe565b9050919050565b7f496e73756666696369656e74207061796d656e7420666f72206a6f696e696e6760008201527f2074686520726964650000000000000000000000000000000000000000000000602082015250565b600061205d60298361187e565b915061206882612001565b604082019050919050565b6000602082019050818103600083015261208c81612050565b9050919050565b7f4e487b7100000000000000000000000000000000000000000000000000000000600052601160045260246000fd5b60006120cd82611785565b91507fffffffffffffffffffffffffffffffffffffffffffffffffffffffffffffffff82036120ff576120fe612093565b5b600182019050919050565b7f4e487b7100000000000000000000000000000000000000000000000000000000600052602260045260246000fd5b6000600282049050600182168061215157607f821691505b6020821081036121645761216361210a565b5b50919050565b60008190508160005260206000209050919050565b60006020601f8301049050919050565b600082821b905092915050565b6000600883026121cc7fffffffffffffffffffffffffffffffffffffffffffffffffffffffffffffffff8261218f565b6121d6868361218f565b95508019841693508086168417925050509392505050565b6000819050919050565b600061221361220e61220984611785565b6121ee565b611785565b9050919050565b6000819050919050565b61222d836121f8565b6122416122398261221a565b84845461219c565b825550505050565b600090565b612256612249565b612261818484612224565b505050565b5b818110156122855761227a60008261224e565b600181019050612267565b5050565b601f8211156122ca5761229b8161216a565b6122a48461217f565b810160208510156122b3578190505b6122c76122bf8561217f565b830182612266565b50505b505050565b600082821c905092915050565b60006122ed600019846008026122cf565b1980831691505092915050565b600061230683836122dc565b9150826002028217905092915050565b61231f82611873565b67ffffffffffffffff81111561233857612337611976565b5b6123428254612139565b61234d828285612289565b600060209050601f831160018114612380576000841561236e578287015190505b61237885826122fa565b8655506123e0565b601f19841661238e8661216a565b60005b828110156123b657848901518255600182019150602085019450602081019050612391565b868310156123d357848901516123cf601f8916826122dc565b8355505b6001600288020188555050505b505050505050565b7f526964652068617320616c7265616479206265656e20636f6e6669726d656400600082015250565b600061241e601f8361187e565b9150612429826123e8565b602082019050919050565b6000602082019050818103600083015261244d81612411565b9050919050565b7f596f7520686176656e2774206a6f696e65642074686973207269646500000000600082015250565b600061248a601c8361187e565b915061249582612454565b602082019050919050565b600060208201905081810360008301526124b98161247d565b9050919050565b7f4f6e6c7920647269766572206f662074686520726964652063616e2063616c6c60008201527f20746869732066756e6374696f6e000000000000000000000000000000000000602082015250565b600061251c602e8361187e565b9150612527826124c0565b604082019050919050565b6000602082019050818103600083015261254b8161250f565b905091905056fea2646970667358221220159e59c2e60e72b949efb406359198649b54342183e09db3226e395f31a5b85864736f6c63430008130033",
  "immutableReferences": {},
  "source": "// SPDX-License-Identifier: MIT\npragma solidity ^0.8.0;\n\ncontract RideShare {\n    // state variable\n    struct Passenger {\n        uint id;\n        string name;\n        string phoneNumber;\n        uint256 numberOfPeople;\n        string state;\n    }\n\n    // state variable\n    struct Ride {\n        address driver;\n        uint256 drivingCost;\n        uint256 capacity;\n        uint256 confirmedAt;\n        string originAddress;\n        string desAddress;\n        address payable[] passengerAccts;\n    }\n\n    mapping(address => uint256) passengerAcctsIndex;\n    mapping(address => Passenger) passengers;\n\n    uint256 public passengerAcctsCounter;\n    mapping(address => mapping(uint => Passenger)) public passengersTest;\n    mapping(address => uint) public passengerCounter;\n\n    Ride[] public rides;\n    uint256 public rideCounter;\n\n    constructor() {\n        addPassenger(\"Dat\", \"0348247064\", 1, \"initial\");\n    }\n\n    // Function to create a new ride\n    function createRide(\n        address _driver,\n        uint256 _drivingCost,\n        uint256 _capacity,\n        uint256 _confirmedAt,\n        string memory _originAddress,\n        string memory _destAddress\n    ) public virtual {\n        Ride memory newRide = Ride({\n            driver: _driver,\n            drivingCost: _drivingCost,\n            capacity: _capacity,\n            confirmedAt: _confirmedAt,\n            originAddress: _originAddress,\n            desAddress: _destAddress,\n            passengerAccts: new address payable[](0)\n        });\n        rides.push(newRide);\n        rideCounter++;\n    }\n\n    event PassengerAdded(uint id, string name, string phoneNumber, uint256 numberOfPeople, string state);\n\n    // Function to create a new passenger\n    function addPassenger(string memory _name, string memory _phoneNumber, uint256 _numberOfPeople, string memory _state) public {\n        // Passenger storage existingPassenger = passengers[msg.sender];\n        // if (keccak256(abi.encodePacked(existingPassenger.state)) == keccak256(abi.encodePacked(\"initial\"))) {\n        //     // Passenger exists, update information\n        //     existingPassenger.name = _name;\n        //     existingPassenger.phoneNumber = _phoneNumber;\n        //     existingPassenger.numberOfPeople = _numberOfPeople;\n        //     existingPassenger.state = _state;\n        // } else {\n        //     // Passenger doesn't exist, create a new one\n        //     Passenger memory newPassenger = Passenger({\n        //         name: _name,\n        //         phoneNumber: _phoneNumber,\n        //         numberOfPeople: _numberOfPeople,\n        //         state: _state\n        //     });\n        //     passengers[msg.sender] = newPassenger;\n        // }\n\n        // emit LogPassenger(_name, _phoneNumber, _numberOfPeople, _state);\n\n        uint psgCount = passengerCounter[msg.sender];\n        passengersTest[msg.sender][psgCount] = Passenger(psgCount, _name, _phoneNumber, _numberOfPeople, _state);\n        emit PassengerAdded(psgCount, _name, _phoneNumber, _numberOfPeople, _state);\n        passengerCounter[msg.sender]++;\n    }\n\n\n    function retrievePassenger(address _address) public view returns (string memory, string memory, uint256, string memory ) {\n        Passenger storage passenger = passengers[_address];\n        return (passenger.name, passenger.phoneNumber, passenger.numberOfPeople, passenger.state);\n    }\n\n    function retrieveRide(uint256 _rideIndex) public view returns (Ride memory) {\n        return rides[_rideIndex];\n    }\n\n    // Function to check a legal transaction for joining a ride\n    function joinRide(uint256 _rideIndex) public payable {\n        Ride storage curRide = rides[_rideIndex];\n\n        require(\n            curRide.passengerAccts.length < curRide.capacity,\n            \"Ride is already full!\"\n        );\n        require(\n            msg.value >= curRide.drivingCost,\n            \"Insufficient payment for joining the ride\"\n        );\n\n        // Add new passenger into passenger list\n        // addPassenger(\"Dat\", msg.value, \"0348247064\", 1, \"initial\");\n\n        // Add passenger address to passenger account list\n        curRide.passengerAccts.push(payable(msg.sender));\n\n        // In case number of passenger account in a ride larger than capacity\n        if (passengerAcctsCounter > curRide.capacity) passengerAcctsCounter = 0;\n\n        // Store current address with index of array passenger account to access\n        passengerAcctsIndex[msg.sender] = passengerAcctsCounter;\n        passengerAcctsCounter++;\n    }\n\n    // Function to confirm Driver and Passenger have met\n    function confirmDriverMet(uint256 _rideIndex) public {\n        Ride storage curRide = rides[_rideIndex];\n\n        uint256 curIndexPassengerAccts = passengerAcctsIndex[\n            msg.sender\n        ];\n        address payable addressPassengerAcct = curRide.passengerAccts[\n            curIndexPassengerAccts\n        ];\n        Passenger storage passenger = passengers[addressPassengerAcct];\n\n        require(\n            bytes(passenger.state).length != 0,\n            \"You haven't joined this ride\"\n        );\n        passenger.state = \"driverConfirmed\";\n    }\n\n    // Function to payment from passenger to driver when complete the trip\n    function arrived(uint256 _rideIndex) public {\n        Ride storage curRide = rides[_rideIndex];\n        require(\n            msg.sender == curRide.driver,\n            \"Only driver of the ride can call this function\"\n        );\n        uint256 totalPayment = 0;\n        for (uint256 i = 0; i < curRide.passengerAccts.length; i++) {\n            address payable addressPassengerAcct = curRide.passengerAccts[i];\n            Passenger storage passenger = passengers[addressPassengerAcct];\n            // Check if state is driverConfirmed and not empty\n            if (\n                bytes(passenger.state).length != 0 &&\n                bytes(passenger.state)[0] == \"d\"\n            ) {\n                // totalPayment += passenger.price;\n                passenger.state = \"completion\";\n            }\n        }\n        // The address needs to be address payable to be used for transfer\n        payable(curRide.driver).transfer(totalPayment);\n    }\n\n    //\n    function cancelRide(uint256 _rideIndex) public {\n        Ride storage curRide = rides[_rideIndex];\n        require(\n            block.timestamp <= curRide.confirmedAt,\n            \"Ride has already been confirmed\"\n        );\n        if (msg.sender == curRide.driver) {\n            curRide.passengerAccts[0].transfer(curRide.drivingCost);\n        } else {\n            Passenger storage passenger = passengers[msg.sender];\n            require(\n                bytes(passenger.state).length != 0,\n                \"You haven't joined this ride\"\n            );\n            // payable(msg.sender).transfer(passenger.price);\n        }\n    }\n}",
  "sourcePath": "/home/parallel_user/project-vanet-blockchain/contracts/RideShare.sol",
  "compiler": {
    "name": "solc",
    "version": "0.8.19+commit.7dd6d404.Emscripten.clang"
  },
  "schemaVersion": "3.4.13",
  "updatedAt": "2023-09-29T06:39:49.725Z",
  "networkType": "ethereum",
  "devdoc": {
    "kind": "dev",
    "methods": {},
    "version": 1
  },
  "userdoc": {
    "kind": "user",
    "methods": {},
    "version": 1
  }
}