{
  "contractName": "RideShare",
  "abi": [
    {
      "anonymous": false,
      "inputs": [
        {
          "indexed": false,
          "internalType": "address",
          "name": "_from",
          "type": "address"
        },
        {
          "indexed": false,
          "internalType": "uint256",
          "name": "_amout",
          "type": "uint256"
        }
      ],
      "name": "TransferReceived",
      "type": "event"
    },
    {
      "inputs": [],
      "name": "endTime",
      "outputs": [
        {
          "internalType": "uint256",
          "name": "",
          "type": "uint256"
        }
      ],
      "stateMutability": "view",
      "type": "function"
    },
    {
      "inputs": [],
      "name": "limitTime",
      "outputs": [
        {
          "internalType": "uint256",
          "name": "",
          "type": "uint256"
        }
      ],
      "stateMutability": "view",
      "type": "function"
    },
    {
      "inputs": [
        {
          "internalType": "address",
          "name": "",
          "type": "address"
        }
      ],
      "name": "passengerCounter",
      "outputs": [
        {
          "internalType": "uint256",
          "name": "",
          "type": "uint256"
        }
      ],
      "stateMutability": "view",
      "type": "function"
    },
    {
      "inputs": [
        {
          "internalType": "address",
          "name": "",
          "type": "address"
        },
        {
          "internalType": "uint256",
          "name": "",
          "type": "uint256"
        }
      ],
      "name": "passengers",
      "outputs": [
        {
          "internalType": "uint256",
          "name": "id",
          "type": "uint256"
        },
        {
          "internalType": "string",
          "name": "name",
          "type": "string"
        },
        {
          "internalType": "string",
          "name": "phoneNumber",
          "type": "string"
        },
        {
          "internalType": "uint256",
          "name": "numberOfPeople",
          "type": "uint256"
        },
        {
          "internalType": "string",
          "name": "state",
          "type": "string"
        }
      ],
      "stateMutability": "view",
      "type": "function"
    },
    {
      "inputs": [],
      "name": "rideCounter",
      "outputs": [
        {
          "internalType": "uint256",
          "name": "",
          "type": "uint256"
        }
      ],
      "stateMutability": "view",
      "type": "function"
    },
    {
      "inputs": [
        {
          "internalType": "uint256",
          "name": "",
          "type": "uint256"
        }
      ],
      "name": "rides",
      "outputs": [
        {
          "internalType": "uint256",
          "name": "id",
          "type": "uint256"
        },
        {
          "internalType": "address",
          "name": "driver",
          "type": "address"
        },
        {
          "internalType": "uint256",
          "name": "drivingCost",
          "type": "uint256"
        },
        {
          "internalType": "uint256",
          "name": "capacity",
          "type": "uint256"
        },
        {
          "internalType": "uint256",
          "name": "confirmedAt",
          "type": "uint256"
        },
        {
          "internalType": "string",
          "name": "originAddress",
          "type": "string"
        },
        {
          "internalType": "string",
          "name": "desAddress",
          "type": "string"
        }
      ],
      "stateMutability": "view",
      "type": "function"
    },
    {
      "inputs": [],
      "name": "startTime",
      "outputs": [
        {
          "internalType": "uint256",
          "name": "",
          "type": "uint256"
        }
      ],
      "stateMutability": "view",
      "type": "function"
    },
    {
      "inputs": [
        {
          "internalType": "string",
          "name": "_name",
          "type": "string"
        },
        {
          "internalType": "string",
          "name": "_phoneNumber",
          "type": "string"
        },
        {
          "internalType": "uint256",
          "name": "_numberOfPeople",
          "type": "uint256"
        },
        {
          "internalType": "string",
          "name": "_state",
          "type": "string"
        }
      ],
      "name": "addPassenger",
      "outputs": [],
      "stateMutability": "nonpayable",
      "type": "function"
    },
    {
      "inputs": [
        {
          "internalType": "uint256",
          "name": "_drivingCost",
          "type": "uint256"
        },
        {
          "internalType": "uint256",
          "name": "_capacity",
          "type": "uint256"
        },
        {
          "internalType": "uint256",
          "name": "_confirmedAt",
          "type": "uint256"
        },
        {
          "internalType": "string",
          "name": "_originAddress",
          "type": "string"
        },
        {
          "internalType": "string",
          "name": "_destAddress",
          "type": "string"
        }
      ],
      "name": "createRide",
      "outputs": [],
      "stateMutability": "payable",
      "type": "function"
    },
    {
      "inputs": [
        {
          "internalType": "uint256",
          "name": "_index",
          "type": "uint256"
        }
      ],
      "name": "retrieveRide",
      "outputs": [
        {
          "components": [
            {
              "internalType": "uint256",
              "name": "id",
              "type": "uint256"
            },
            {
              "internalType": "address",
              "name": "driver",
              "type": "address"
            },
            {
              "internalType": "uint256",
              "name": "drivingCost",
              "type": "uint256"
            },
            {
              "internalType": "uint256",
              "name": "capacity",
              "type": "uint256"
            },
            {
              "internalType": "uint256",
              "name": "confirmedAt",
              "type": "uint256"
            },
            {
              "internalType": "string",
              "name": "originAddress",
              "type": "string"
            },
            {
              "internalType": "string",
              "name": "desAddress",
              "type": "string"
            },
            {
              "internalType": "address payable[]",
              "name": "passengerAccounts",
              "type": "address[]"
            }
          ],
          "internalType": "struct RideShare.Ride",
          "name": "",
          "type": "tuple"
        }
      ],
      "stateMutability": "view",
      "type": "function"
    },
    {
      "inputs": [
        {
          "internalType": "uint256",
          "name": "_idxRide",
          "type": "uint256"
        }
      ],
      "name": "retrieveAllPassengers",
      "outputs": [
        {
          "internalType": "address payable[]",
          "name": "",
          "type": "address[]"
        }
      ],
      "stateMutability": "view",
      "type": "function"
    },
    {
      "inputs": [
        {
          "internalType": "uint256",
          "name": "_idxRide",
          "type": "uint256"
        }
      ],
      "name": "retrieveOnePassenger",
      "outputs": [
        {
          "internalType": "address",
          "name": "",
          "type": "address"
        }
      ],
      "stateMutability": "view",
      "type": "function"
    },
    {
      "inputs": [
        {
          "internalType": "uint256",
          "name": "_idxRide",
          "type": "uint256"
        }
      ],
      "name": "joinRide",
      "outputs": [],
      "stateMutability": "payable",
      "type": "function"
    },
    {
      "inputs": [
        {
          "internalType": "uint256",
          "name": "_idxRide",
          "type": "uint256"
        }
      ],
      "name": "confirmDriverMet",
      "outputs": [],
      "stateMutability": "nonpayable",
      "type": "function"
    },
    {
      "inputs": [
        {
          "internalType": "uint256",
          "name": "_idxRide",
          "type": "uint256"
        }
      ],
      "name": "arrived",
      "outputs": [],
      "stateMutability": "nonpayable",
      "type": "function"
    },
    {
      "inputs": [
        {
          "internalType": "uint256",
          "name": "_idxRide",
          "type": "uint256"
        }
      ],
      "name": "cancel",
      "outputs": [],
      "stateMutability": "payable",
      "type": "function"
    }
  ],
  "bytecode": "0x6080604052600360065534801561001557600080fd5b50612f04806100256000396000f3fe6080604052600436106100f35760003560e01c8063ac39177a1161008a578063c8f8b6c211610059578063c8f8b6c214610340578063d5ea50111461035c578063f2c46f7214610399578063fd4e1305146103c2576100f3565b8063ac39177a14610284578063b10fefc0146102c1578063b22d5599146102ec578063b3b95e3014610315576100f3565b80635205f112116100c65780635205f1121461019c5780636e02abb0146101df57806378e979251461021c5780639b83118414610247576100f3565b806301f32206146100f8578063042b11c5146101145780633197cbb61461015557806340e58ee514610180575b600080fd5b610112600480360381019061010d9190611d7b565b6103eb565b005b34801561012057600080fd5b5061013b60048036038101906101369190611e06565b610623565b60405161014c959493929190611ee5565b60405180910390f35b34801561016157600080fd5b5061016a6107fe565b6040516101779190611f4d565b60405180910390f35b61019a60048036038101906101959190611d7b565b610804565b005b3480156101a857600080fd5b506101c360048036038101906101be9190611d7b565b610dfd565b6040516101d69796959493929190611f77565b60405180910390f35b3480156101eb57600080fd5b5061020660048036038101906102019190611ff4565b610f7f565b6040516102139190611f4d565b60405180910390f35b34801561022857600080fd5b50610231610f97565b60405161023e9190611f4d565b60405180910390f35b34801561025357600080fd5b5061026e60048036038101906102699190611d7b565b610f9d565b60405161027b91906120f1565b60405180910390f35b34801561029057600080fd5b506102ab60048036038101906102a69190611d7b565b611050565b6040516102b891906122a8565b60405180910390f35b3480156102cd57600080fd5b506102d66112bd565b6040516102e39190611f4d565b60405180910390f35b3480156102f857600080fd5b50610313600480360381019061030e91906123ff565b6112c3565b005b34801561032157600080fd5b5061032a611438565b6040516103379190611f4d565b60405180910390f35b61035a600480360381019061035591906124ba565b61143e565b005b34801561036857600080fd5b50610383600480360381019061037e9190611d7b565b61162c565b604051610390919061256d565b60405180910390f35b3480156103a557600080fd5b506103c060048036038101906103bb9190611d7b565b6117eb565b005b3480156103ce57600080fd5b506103e960048036038101906103e49190611d7b565b611b89565b005b600281815481106103ff576103fe612588565b5b906000526020600020906008020160010160009054906101000a900473ffffffffffffffffffffffffffffffffffffffff1673ffffffffffffffffffffffffffffffffffffffff163373ffffffffffffffffffffffffffffffffffffffff160361049e576040517f08c379a00000000000000000000000000000000000000000000000000000000081526004016104959061264f565b60405180910390fd5b600281815481106104b2576104b1612588565b5b9060005260206000209060080201600201543414610505576040517f08c379a00000000000000000000000000000000000000000000000000000000081526004016104fc906126bb565b60405180910390fd5b6002818154811061051957610518612588565b5b9060005260206000209060080201600701339080600181540180825580915050600190039060005260206000200160009091909190916101000a81548173ffffffffffffffffffffffffffffffffffffffff021916908373ffffffffffffffffffffffffffffffffffffffff1602179055506040518060400160405280600781526020017f696e697469616c000000000000000000000000000000000000000000000000008152506000803373ffffffffffffffffffffffffffffffffffffffff1673ffffffffffffffffffffffffffffffffffffffff1681526020019081526020016000206000838152602001908152602001600020600401908161061f91906128e7565b5050565b6000602052816000526040600020602052806000526040600020600091509150508060000154908060010180546106599061270a565b80601f01602080910402602001604051908101604052809291908181526020018280546106859061270a565b80156106d25780601f106106a7576101008083540402835291602001916106d2565b820191906000526020600020905b8154815290600101906020018083116106b557829003601f168201915b5050505050908060020180546106e79061270a565b80601f01602080910402602001604051908101604052809291908181526020018280546107139061270a565b80156107605780601f1061073557610100808354040283529160200191610760565b820191906000526020600020905b81548152906001019060200180831161074357829003601f168201915b50505050509080600301549080600401805461077b9061270a565b80601f01602080910402602001604051908101604052809291908181526020018280546107a79061270a565b80156107f45780601f106107c9576101008083540402835291602001916107f4565b820191906000526020600020905b8154815290600101906020018083116107d757829003601f168201915b5050505050905085565b60055481565b600061080f82610f9d565b90506000815190506002838154811061082b5761082a612588565b5b906000526020600020906008020160010160009054906101000a900473ffffffffffffffffffffffffffffffffffffffff1673ffffffffffffffffffffffffffffffffffffffff163373ffffffffffffffffffffffffffffffffffffffff1603610b2257600082513461089e9190612a17565b905060005b82811015610ae25760008482815181106108c0576108bf612588565b5b6020026020010151905060008173ffffffffffffffffffffffffffffffffffffffff16846040516108f090612a79565b60006040518083038185875af1925050503d806000811461092d576040519150601f19603f3d011682016040523d82523d6000602084013e610932565b606091505b5050905080610976576040517f08c379a000000000000000000000000000000000000000000000000000000000815260040161096d90612b00565b60405180910390fd5b6002878154811061098a57610989612588565b5b90600052602060002090600802016007016001866109a89190612b20565b815481106109b9576109b8612588565b5b9060005260206000200160009054906101000a900473ffffffffffffffffffffffffffffffffffffffff16600288815481106109f8576109f7612588565b5b90600052602060002090600802016007018481548110610a1b57610a1a612588565b5b9060005260206000200160006101000a81548173ffffffffffffffffffffffffffffffffffffffff021916908373ffffffffffffffffffffffffffffffffffffffff16021790555060028781548110610a7757610a76612588565b5b9060005260206000209060080201600701805480610a9857610a97612b54565b5b6001900381819060005260206000200160006101000a81549073ffffffffffffffffffffffffffffffffffffffff0219169055905550508080610ada90612b83565b9150506108a3565b507ff1b03f708b9c39f453fe3f0cef84164c7d6f7df836df0796e1e9c2bce6ee397e3334604051610b14929190612bcb565b60405180910390a150610df8565b60005b81811015610df6576000838281518110610b4257610b41612588565b5b602002602001015190508073ffffffffffffffffffffffffffffffffffffffff163373ffffffffffffffffffffffffffffffffffffffff1603610da95760003373ffffffffffffffffffffffffffffffffffffffff1660028781548110610bac57610bab612588565b5b906000526020600020906008020160020154604051610bca90612a79565b60006040518083038185875af1925050503d8060008114610c07576040519150601f19603f3d011682016040523d82523d6000602084013e610c0c565b606091505b5050905080610c50576040517f08c379a0000000000000000000000000000000000000000000000000000000008152600401610c4790612c66565b60405180910390fd5b60028681548110610c6457610c63612588565b5b9060005260206000209060080201600701600185610c829190612b20565b81548110610c9357610c92612588565b5b9060005260206000200160009054906101000a900473ffffffffffffffffffffffffffffffffffffffff1660028781548110610cd257610cd1612588565b5b90600052602060002090600802016007018481548110610cf557610cf4612588565b5b9060005260206000200160006101000a81548173ffffffffffffffffffffffffffffffffffffffff021916908373ffffffffffffffffffffffffffffffffffffffff16021790555060028681548110610d5157610d50612588565b5b9060005260206000209060080201600701805480610d7257610d71612b54565b5b6001900381819060005260206000200160006101000a81549073ffffffffffffffffffffffffffffffffffffffff02191690559055505b7ff1b03f708b9c39f453fe3f0cef84164c7d6f7df836df0796e1e9c2bce6ee397e3334604051610dda929190612bcb565b60405180910390a1508080610dee90612b83565b915050610b25565b505b505050565b60028181548110610e0d57600080fd5b90600052602060002090600802016000915090508060000154908060010160009054906101000a900473ffffffffffffffffffffffffffffffffffffffff1690806002015490806003015490806004015490806005018054610e6e9061270a565b80601f0160208091040260200160405190810160405280929190818152602001828054610e9a9061270a565b8015610ee75780601f10610ebc57610100808354040283529160200191610ee7565b820191906000526020600020905b815481529060010190602001808311610eca57829003601f168201915b505050505090806006018054610efc9061270a565b80601f0160208091040260200160405190810160405280929190818152602001828054610f289061270a565b8015610f755780601f10610f4a57610100808354040283529160200191610f75565b820191906000526020600020905b815481529060010190602001808311610f5857829003601f168201915b5050505050905087565b60016020528060005260406000206000915090505481565b60045481565b606060028281548110610fb357610fb2612588565b5b906000526020600020906008020160070180548060200260200160405190810160405280929190818152602001828054801561104457602002820191906000526020600020905b8160009054906101000a900473ffffffffffffffffffffffffffffffffffffffff1673ffffffffffffffffffffffffffffffffffffffff1681526020019060010190808311610ffa575b50505050509050919050565b611058611c2f565b6002828154811061106c5761106b612588565b5b906000526020600020906008020160405180610100016040529081600082015481526020016001820160009054906101000a900473ffffffffffffffffffffffffffffffffffffffff1673ffffffffffffffffffffffffffffffffffffffff1673ffffffffffffffffffffffffffffffffffffffff1681526020016002820154815260200160038201548152602001600482015481526020016005820180546111149061270a565b80601f01602080910402602001604051908101604052809291908181526020018280546111409061270a565b801561118d5780601f106111625761010080835404028352916020019161118d565b820191906000526020600020905b81548152906001019060200180831161117057829003601f168201915b505050505081526020016006820180546111a69061270a565b80601f01602080910402602001604051908101604052809291908181526020018280546111d29061270a565b801561121f5780601f106111f45761010080835404028352916020019161121f565b820191906000526020600020905b81548152906001019060200180831161120257829003601f168201915b50505050508152602001600782018054806020026020016040519081016040528092919081815260200182805480156112ad57602002820191906000526020600020905b8160009054906101000a900473ffffffffffffffffffffffffffffffffffffffff1673ffffffffffffffffffffffffffffffffffffffff1681526020019060010190808311611263575b5050505050815250509050919050565b60035481565b6000600160003373ffffffffffffffffffffffffffffffffffffffff1673ffffffffffffffffffffffffffffffffffffffff16815260200190815260200160002054905060006040518060a00160405280838152602001878152602001868152602001858152602001848152509050806000803373ffffffffffffffffffffffffffffffffffffffff1673ffffffffffffffffffffffffffffffffffffffff16815260200190815260200160002060008481526020019081526020016000206000820151816000015560208201518160010190816113a191906128e7565b5060408201518160020190816113b791906128e7565b506060820151816003015560808201518160040190816113d791906128e7565b50905050600160003373ffffffffffffffffffffffffffffffffffffffff1673ffffffffffffffffffffffffffffffffffffffff168152602001908152602001600020600081548092919061142b90612b83565b9190505550505050505050565b60065481565b600060405180610100016040528060035481526020013373ffffffffffffffffffffffffffffffffffffffff168152602001878152602001868152602001858152602001848152602001838152602001600067ffffffffffffffff8111156114a9576114a86122d4565b5b6040519080825280602002602001820160405280156114d75781602001602082028036833780820191505090505b50815250905085341461151f576040517f08c379a000000000000000000000000000000000000000000000000000000000815260040161151690612cd2565b60405180910390fd5b4260048190555060028190806001815401808255809150506001900390600052602060002090600802016000909190919091506000820151816000015560208201518160010160006101000a81548173ffffffffffffffffffffffffffffffffffffffff021916908373ffffffffffffffffffffffffffffffffffffffff16021790555060408201518160020155606082015181600301556080820151816004015560a08201518160050190816115d691906128e7565b5060c08201518160060190816115ec91906128e7565b5060e0820151816007019080519060200190611609929190611c8a565b5050506003600081548092919061161f90612b83565b9190505550505050505050565b60008060005b6002848154811061164657611645612588565b5b906000526020600020906008020160070180549050811015611772576002848154811061167657611675612588565b5b9060005260206000209060080201600701818154811061169957611698612588565b5b9060005260206000200160009054906101000a900473ffffffffffffffffffffffffffffffffffffffff1673ffffffffffffffffffffffffffffffffffffffff163373ffffffffffffffffffffffffffffffffffffffff160361175f576002848154811061170a57611709612588565b5b9060005260206000209060080201600701818154811061172d5761172c612588565b5b9060005260206000200160009054906101000a900473ffffffffffffffffffffffffffffffffffffffff169150611772565b808061176a90612b83565b915050611632565b50600073ffffffffffffffffffffffffffffffffffffffff168173ffffffffffffffffffffffffffffffffffffffff16036117e2576040517f08c379a00000000000000000000000000000000000000000000000000000000081526004016117d990612d8a565b60405180910390fd5b80915050919050565b600281815481106117ff576117fe612588565b5b906000526020600020906008020160010160009054906101000a900473ffffffffffffffffffffffffffffffffffffffff1673ffffffffffffffffffffffffffffffffffffffff163373ffffffffffffffffffffffffffffffffffffffff161461189e576040517f08c379a000000000000000000000000000000000000000000000000000000000815260040161189590612e1c565b60405180910390fd5b60003373ffffffffffffffffffffffffffffffffffffffff16476040516118c490612a79565b60006040518083038185875af1925050503d8060008114611901576040519150601f19603f3d011682016040523d82523d6000602084013e611906565b606091505b505090508061194a576040517f08c379a000000000000000000000000000000000000000000000000000000000815260040161194190612eae565b60405180910390fd5b600061195583610f9d565b905060005b8151811015611b8357600082828151811061197857611977612588565b5b602002602001015190506040518060400160405280600a81526020017f636f6d706c6574696f6e000000000000000000000000000000000000000000008152506000808373ffffffffffffffffffffffffffffffffffffffff1673ffffffffffffffffffffffffffffffffffffffff16815260200190815260200160002060008781526020019081526020016000206004019081611a1691906128e7565b5060028581548110611a2b57611a2a612588565b5b906000526020600020906008020160070160018451611a4a9190612b20565b81548110611a5b57611a5a612588565b5b9060005260206000200160009054906101000a900473ffffffffffffffffffffffffffffffffffffffff1660028681548110611a9a57611a99612588565b5b90600052602060002090600802016007018381548110611abd57611abc612588565b5b9060005260206000200160006101000a81548173ffffffffffffffffffffffffffffffffffffffff021916908373ffffffffffffffffffffffffffffffffffffffff16021790555060028581548110611b1957611b18612588565b5b9060005260206000209060080201600701805480611b3a57611b39612b54565b5b6001900381819060005260206000200160006101000a81549073ffffffffffffffffffffffffffffffffffffffff02191690559055508080611b7b90612b83565b91505061195a565b50505050565b6000611b948261162c565b90506040518060400160405280600781526020017f636f6e6669726d000000000000000000000000000000000000000000000000008152506000808373ffffffffffffffffffffffffffffffffffffffff1673ffffffffffffffffffffffffffffffffffffffff16815260200190815260200160002060008481526020019081526020016000206004019081611c2a91906128e7565b505050565b60405180610100016040528060008152602001600073ffffffffffffffffffffffffffffffffffffffff1681526020016000815260200160008152602001600081526020016060815260200160608152602001606081525090565b828054828255906000526020600020908101928215611d03579160200282015b82811115611d025782518260006101000a81548173ffffffffffffffffffffffffffffffffffffffff021916908373ffffffffffffffffffffffffffffffffffffffff16021790555091602001919060010190611caa565b5b509050611d109190611d14565b5090565b5b80821115611d2d576000816000905550600101611d15565b5090565b6000604051905090565b600080fd5b600080fd5b6000819050919050565b611d5881611d45565b8114611d6357600080fd5b50565b600081359050611d7581611d4f565b92915050565b600060208284031215611d9157611d90611d3b565b5b6000611d9f84828501611d66565b91505092915050565b600073ffffffffffffffffffffffffffffffffffffffff82169050919050565b6000611dd382611da8565b9050919050565b611de381611dc8565b8114611dee57600080fd5b50565b600081359050611e0081611dda565b92915050565b60008060408385031215611e1d57611e1c611d3b565b5b6000611e2b85828601611df1565b9250506020611e3c85828601611d66565b9150509250929050565b611e4f81611d45565b82525050565b600081519050919050565b600082825260208201905092915050565b60005b83811015611e8f578082015181840152602081019050611e74565b60008484015250505050565b6000601f19601f8301169050919050565b6000611eb782611e55565b611ec18185611e60565b9350611ed1818560208601611e71565b611eda81611e9b565b840191505092915050565b600060a082019050611efa6000830188611e46565b8181036020830152611f0c8187611eac565b90508181036040830152611f208186611eac565b9050611f2f6060830185611e46565b8181036080830152611f418184611eac565b90509695505050505050565b6000602082019050611f626000830184611e46565b92915050565b611f7181611dc8565b82525050565b600060e082019050611f8c600083018a611e46565b611f996020830189611f68565b611fa66040830188611e46565b611fb36060830187611e46565b611fc06080830186611e46565b81810360a0830152611fd28185611eac565b905081810360c0830152611fe68184611eac565b905098975050505050505050565b60006020828403121561200a57612009611d3b565b5b600061201884828501611df1565b91505092915050565b600081519050919050565b600082825260208201905092915050565b6000819050602082019050919050565b600061205882611da8565b9050919050565b6120688161204d565b82525050565b600061207a838361205f565b60208301905092915050565b6000602082019050919050565b600061209e82612021565b6120a8818561202c565b93506120b38361203d565b8060005b838110156120e45781516120cb888261206e565b97506120d683612086565b9250506001810190506120b7565b5085935050505092915050565b6000602082019050818103600083015261210b8184612093565b905092915050565b61211c81611d45565b82525050565b61212b81611dc8565b82525050565b600082825260208201905092915050565b600061214d82611e55565b6121578185612131565b9350612167818560208601611e71565b61217081611e9b565b840191505092915050565b600082825260208201905092915050565b600061219782612021565b6121a1818561217b565b93506121ac8361203d565b8060005b838110156121dd5781516121c4888261206e565b97506121cf83612086565b9250506001810190506121b0565b5085935050505092915050565b6000610100830160008301516122036000860182612113565b5060208301516122166020860182612122565b5060408301516122296040860182612113565b50606083015161223c6060860182612113565b50608083015161224f6080860182612113565b5060a083015184820360a08601526122678282612142565b91505060c083015184820360c08601526122818282612142565b91505060e083015184820360e086015261229b828261218c565b9150508091505092915050565b600060208201905081810360008301526122c281846121ea565b905092915050565b600080fd5b600080fd5b7f4e487b7100000000000000000000000000000000000000000000000000000000600052604160045260246000fd5b61230c82611e9b565b810181811067ffffffffffffffff8211171561232b5761232a6122d4565b5b80604052505050565b600061233e611d31565b905061234a8282612303565b919050565b600067ffffffffffffffff82111561236a576123696122d4565b5b61237382611e9b565b9050602081019050919050565b82818337600083830152505050565b60006123a261239d8461234f565b612334565b9050828152602081018484840111156123be576123bd6122cf565b5b6123c9848285612380565b509392505050565b600082601f8301126123e6576123e56122ca565b5b81356123f684826020860161238f565b91505092915050565b6000806000806080858703121561241957612418611d3b565b5b600085013567ffffffffffffffff81111561243757612436611d40565b5b612443878288016123d1565b945050602085013567ffffffffffffffff81111561246457612463611d40565b5b612470878288016123d1565b935050604061248187828801611d66565b925050606085013567ffffffffffffffff8111156124a2576124a1611d40565b5b6124ae878288016123d1565b91505092959194509250565b600080600080600060a086880312156124d6576124d5611d3b565b5b60006124e488828901611d66565b95505060206124f588828901611d66565b945050604061250688828901611d66565b935050606086013567ffffffffffffffff81111561252757612526611d40565b5b612533888289016123d1565b925050608086013567ffffffffffffffff81111561255457612553611d40565b5b612560888289016123d1565b9150509295509295909350565b60006020820190506125826000830184611f68565b92915050565b7f4e487b7100000000000000000000000000000000000000000000000000000000600052603260045260246000fd5b7f4a6f696e20526964653a2054686973206973206472697665722061646472657360008201527f732c207468652072696465206e65656420612070617373656e676572206a6f6960208201527f6e00000000000000000000000000000000000000000000000000000000000000604082015250565b6000612639604183611e60565b9150612644826125b7565b606082019050919050565b600060208201905081810360008301526126688161262c565b9050919050565b7f4a6f696e20526964653a204e6f7420656e6f7567682065746865722100000000600082015250565b60006126a5601c83611e60565b91506126b08261266f565b602082019050919050565b600060208201905081810360008301526126d481612698565b9050919050565b7f4e487b7100000000000000000000000000000000000000000000000000000000600052602260045260246000fd5b6000600282049050600182168061272257607f821691505b602082108103612735576127346126db565b5b50919050565b60008190508160005260206000209050919050565b60006020601f8301049050919050565b600082821b905092915050565b60006008830261279d7fffffffffffffffffffffffffffffffffffffffffffffffffffffffffffffffff82612760565b6127a78683612760565b95508019841693508086168417925050509392505050565b6000819050919050565b60006127e46127df6127da84611d45565b6127bf565b611d45565b9050919050565b6000819050919050565b6127fe836127c9565b61281261280a826127eb565b84845461276d565b825550505050565b600090565b61282761281a565b6128328184846127f5565b505050565b5b818110156128565761284b60008261281f565b600181019050612838565b5050565b601f82111561289b5761286c8161273b565b61287584612750565b81016020851015612884578190505b61289861289085612750565b830182612837565b50505b505050565b600082821c905092915050565b60006128be600019846008026128a0565b1980831691505092915050565b60006128d783836128ad565b9150826002028217905092915050565b6128f082611e55565b67ffffffffffffffff811115612909576129086122d4565b5b612913825461270a565b61291e82828561285a565b600060209050601f831160018114612951576000841561293f578287015190505b61294985826128cb565b8655506129b1565b601f19841661295f8661273b565b60005b8281101561298757848901518255600182019150602085019450602081019050612962565b868310156129a457848901516129a0601f8916826128ad565b8355505b6001600288020188555050505b505050505050565b7f4e487b7100000000000000000000000000000000000000000000000000000000600052601260045260246000fd5b7f4e487b7100000000000000000000000000000000000000000000000000000000600052601160045260246000fd5b6000612a2282611d45565b9150612a2d83611d45565b925082612a3d57612a3c6129b9565b5b828204905092915050565b600081905092915050565b50565b6000612a63600083612a48565b9150612a6e82612a53565b600082019050919050565b6000612a8482612a56565b9150819050919050565b7f43616e63656c3a205472616e7366657220636f696e2066726f6d20647269766560008201527f7220746f2070617373656e676572206661696c65640000000000000000000000602082015250565b6000612aea603583611e60565b9150612af582612a8e565b604082019050919050565b60006020820190508181036000830152612b1981612add565b9050919050565b6000612b2b82611d45565b9150612b3683611d45565b9250828203905081811115612b4e57612b4d6129e8565b5b92915050565b7f4e487b7100000000000000000000000000000000000000000000000000000000600052603160045260246000fd5b6000612b8e82611d45565b91507fffffffffffffffffffffffffffffffffffffffffffffffffffffffffffffffff8203612bc057612bbf6129e8565b5b600182019050919050565b6000604082019050612be06000830185611f68565b612bed6020830184611e46565b9392505050565b7f43616e63656c3a205472616e7366657220636f696e2066726f6d20706173736560008201527f6e67657220746f20647269766572206661696c65640000000000000000000000602082015250565b6000612c50603583611e60565b9150612c5b82612bf4565b604082019050919050565b60006020820190508181036000830152612c7f81612c43565b9050919050565b7f4372656174653a204e6f7420656e6f7567682065746865722100000000000000600082015250565b6000612cbc601983611e60565b9150612cc782612c86565b602082019050919050565b60006020820190508181036000830152612ceb81612caf565b9050919050565b7f5265747269657665204f6e652050617373656e6765723a20546869732061636360008201527f6f756e7420646f6573206e6f7420706172746963697061746520696e2074686560208201527f2072696465000000000000000000000000000000000000000000000000000000604082015250565b6000612d74604583611e60565b9150612d7f82612cf2565b606082019050919050565b60006020820190508181036000830152612da381612d67565b9050919050565b7f4f6e6c7920647269766572206f662074686520726964652063616e2063616c6c60008201527f20746869732066756e6374696f6e000000000000000000000000000000000000602082015250565b6000612e06602e83611e60565b9150612e1182612daa565b604082019050919050565b60006020820190508181036000830152612e3581612df9565b9050919050565b7f576974686472617720636f696e20696e2074686520636f6e747261637420666160008201527f696c656400000000000000000000000000000000000000000000000000000000602082015250565b6000612e98602483611e60565b9150612ea382612e3c565b604082019050919050565b60006020820190508181036000830152612ec781612e8b565b905091905056fea264697066735822122070b83554c70094e535c0107e7f713efaf6f3f4fad2daa0654b2bb0db48ccb49c64736f6c63430008130033",
  "immutableReferences": {},
  "source": "// SPDX-License-Identifier: GPL-3.0\n\npragma solidity >=0.7.0 <0.9.0;\n\ncontract RideShare {\n\n    struct Passenger {\n        uint id;\n        string name;\n        string phoneNumber;\n        uint256 numberOfPeople;\n        string state;\n    }\n    \n    mapping(address => mapping(uint => Passenger)) public passengers;\n    mapping(address => uint) public passengerCounter;\n\n    struct Ride {\n        uint id;\n        address driver;\n        uint256 drivingCost;\n        uint256 capacity;\n        uint256 confirmedAt;\n        string originAddress;\n        string desAddress;\n        address payable[] passengerAccounts;\n    }\n\n    Ride[] public rides;\n    uint256 public rideCounter;\n\n    uint256 public startTime; \n    uint256 public endTime; \n    uint256 public limitTime = 3;\n\n    function addPassenger(\n        string memory _name,\n        string memory _phoneNumber,\n        uint256 _numberOfPeople,\n        string memory _state\n    ) public {\n        // emit LogPassenger(_name, _phoneNumber, _numberOfPeople, _state);\n        uint psgCount = passengerCounter[msg.sender];\n\n        Passenger memory newPassenger = Passenger({\n            id: psgCount,\n            name: _name,\n            phoneNumber: _phoneNumber,\n            numberOfPeople: _numberOfPeople,\n            state: _state\n        });\n\n        passengers[msg.sender][psgCount] = newPassenger;\n\n        // emit PassengerAdded(psgCount, _name, _phoneNumber, _numberOfPeople, _state);\n        passengerCounter[msg.sender]++;\n    }\n\n\n    // Function to create a new ride\n    function createRide (\n        uint256 _drivingCost,\n        uint256 _capacity,\n        uint256 _confirmedAt,\n        string memory _originAddress,\n        string memory _destAddress\n    ) public payable{\n        Ride memory newRide = Ride({\n            id: rideCounter,\n            driver: msg.sender,\n            drivingCost: _drivingCost,\n            capacity: _capacity,\n            confirmedAt: _confirmedAt,\n            originAddress: _originAddress,\n            desAddress: _destAddress,\n            passengerAccounts: new address payable[](0)\n        });\n\n        require(uint256(msg.value) == uint256(_drivingCost), \"Create: Not enough ether!\");\n\n        startTime = block.timestamp;\n        rides.push(newRide);\n        rideCounter++;\n    }\n\n    function retrieveRide(uint _index) view  public returns (Ride memory) {\n        return rides[_index];\n    }\n\n    function retrieveAllPassengers(uint256 _idxRide) public view returns  (address payable[]  memory) {\n        return rides[_idxRide].passengerAccounts;\n    }\n   \n    // Ly ra a ch ca khch hng tham gia vo chuyn i th index\n    function retrieveOnePassenger(uint256 _idxRide) public view returns (address) {\n        address pAddress;\n        for (uint256 i = 0; i < rides[_idxRide].passengerAccounts.length; i++) {\n            // Kim tra thng sender (thng gi ng  tham gia transaction) c trong chuyn i hay khng\n            if (msg.sender == rides[_idxRide].passengerAccounts[i]){\n                pAddress = rides[_idxRide].passengerAccounts[i];\n                break;\n            }\n        }\n        \n        require(pAddress != address(0), \"Retrieve One Passenger: This account does not participate in the ride\");\n        return pAddress;\n    }\n\n    // 1. Khch hng xc nhn tham gia vo transaction (t xe) - Khch hng (lm hnh ng g  trn giao din)\n    function joinRide(uint256 _idxRide) public payable{\n        require(msg.sender != rides[_idxRide].driver, \"Join Ride: This is driver address, the ride need a passenger join\");\n\n        // n v c s dng  y l wei \n        require(uint256(msg.value) == uint256(rides[_idxRide].drivingCost), \"Join Ride: Not enough ether!\");\n        rides[_idxRide].passengerAccounts.push(payable(msg.sender));\n\n        // 2. Cp nht trng thi ca khch hng khi mi tham gia vo mng (Sau khi joinRide) - H thng\n        passengers[msg.sender][_idxRide].state = \"initial\";\n    }\n\n    // 3. Cp nht trng thi ca khch hng khi c chp nhn chuyn i ca ti x - Ti x  (lm hnh ng g  trn giao din)\n    function confirmDriverMet(uint256 _idxRide) public {\n        address pAddress = retrieveOnePassenger(_idxRide);\n        passengers[pAddress][_idxRide].state = \"confirm\";\n    }\n\n    // 4. Khi kt thc chuyn i, ti x s thc hin ly tin ca hnh khch\n    function arrived(uint256 _idxRide) public {\n        require(\n            msg.sender == rides[_idxRide].driver,\n            \"Only driver of the ride can call this function\"\n        );\n        \n        (bool callSuccess, ) = payable(msg.sender).call{value: address(this).balance}(\"\");\n        require(callSuccess, \"Withdraw coin in the contract failed\");\n\n        address payable[] memory allPassenger = retrieveAllPassengers(_idxRide);\n        for (uint256 i = 0; i < allPassenger.length; i++) {\n            // Convert address payable to address\n            address pAddress = address(allPassenger[i]);\n            passengers[pAddress][_idxRide].state = \"completion\";\n\n            rides[_idxRide].passengerAccounts[i] = rides[_idxRide].passengerAccounts[allPassenger.length - 1];\n            rides[_idxRide].passengerAccounts.pop();\n        }\n    }\n\n    event TransferReceived(address _from, uint _amout);\n\n    // 5. Khi 1 trong 2 bn hy chuyn i \n    function cancel(uint256 _idxRide) public payable {\n        address payable[] memory allPassenger = retrieveAllPassengers(_idxRide);\n        uint256 length = allPassenger.length;\n\n        // Khi transaction qu thi gian, coin c tr v cho ti x         \n\n        // Khi ti x hy\n        if(msg.sender == rides[_idxRide].driver) {  \n            uint256 share = msg.value / allPassenger.length;\n            for (uint256 i = 0; i < length; i++) {\n                // Convert address payable to address\n                address pAddress = address(allPassenger[i]);\n                (bool callSuccess, ) = payable(pAddress).call{value: share}(\"\");\n                require(callSuccess, \"Cancel: Transfer coin from driver to passenger failed\");\n\n                // Xa phn t ra khi mng cc chuyn i rides \n                rides[_idxRide].passengerAccounts[i] = rides[_idxRide].passengerAccounts[length - 1];\n                rides[_idxRide].passengerAccounts.pop();\n            }\n            emit TransferReceived(msg.sender, msg.value);\n        } \n        else // khi khch hng hy\n        {               \n            for (uint256 i = 0; i < length; i++) {\n                // Convert address payable to address\n                address pAddress = address(allPassenger[i]);\n                if(msg.sender == pAddress) {\n                    (bool callSuccess, ) = payable(msg.sender).call{value: rides[_idxRide].drivingCost}(\"\");\n                    require(callSuccess, \"Cancel: Transfer coin from passenger to driver failed\");\n\n                    // Xa phn t ra khi mng cc chuyn i rides \n                    rides[_idxRide].passengerAccounts[i] = rides[_idxRide].passengerAccounts[length - 1];\n                    rides[_idxRide].passengerAccounts.pop();\n                }\n                emit TransferReceived(msg.sender, msg.value);\n            }\n        } \n\n    }\n\n}",
  "sourcePath": "/home/parallel_user/Documents/project-vanet-blockchain/contracts/RideShare.sol",
  "compiler": {
    "name": "solc",
    "version": "0.8.19+commit.7dd6d404.Emscripten.clang"
  },
  "schemaVersion": "3.4.13",
  "updatedAt": "2023-10-24T04:02:31.333Z",
  "devdoc": {
    "kind": "dev",
    "methods": {},
    "version": 1
  },
  "userdoc": {
    "kind": "user",
    "methods": {},
    "version": 1
  }
}