{
  "contractName": "RideShare",
  "abi": [
    {
      "inputs": [],
      "name": "passengerAcctsCount",
      "outputs": [
        {
          "internalType": "uint256",
          "name": "",
          "type": "uint256"
        }
      ],
      "stateMutability": "view",
      "type": "function",
      "constant": true
    },
    {
      "inputs": [],
      "name": "rideCount",
      "outputs": [
        {
          "internalType": "uint256",
          "name": "",
          "type": "uint256"
        }
      ],
      "stateMutability": "view",
      "type": "function",
      "constant": true
    },
    {
      "inputs": [
        {
          "internalType": "uint256",
          "name": "",
          "type": "uint256"
        }
      ],
      "name": "rides",
      "outputs": [
        {
          "internalType": "address",
          "name": "driver",
          "type": "address"
        },
        {
          "internalType": "uint256",
          "name": "drivingCost",
          "type": "uint256"
        },
        {
          "internalType": "uint256",
          "name": "capacity",
          "type": "uint256"
        },
        {
          "internalType": "uint256",
          "name": "confirmedAt",
          "type": "uint256"
        },
        {
          "internalType": "string",
          "name": "originAddress",
          "type": "string"
        },
        {
          "internalType": "string",
          "name": "desAddress",
          "type": "string"
        }
      ],
      "stateMutability": "view",
      "type": "function",
      "constant": true
    },
    {
      "inputs": [
        {
          "internalType": "address",
          "name": "_driver",
          "type": "address"
        },
        {
          "internalType": "uint256",
          "name": "_drivingCost",
          "type": "uint256"
        },
        {
          "internalType": "uint256",
          "name": "_capacity",
          "type": "uint256"
        },
        {
          "internalType": "uint256",
          "name": "_confirmedAt",
          "type": "uint256"
        },
        {
          "internalType": "string",
          "name": "_originAddress",
          "type": "string"
        },
        {
          "internalType": "string",
          "name": "_destAddress",
          "type": "string"
        }
      ],
      "name": "createRide",
      "outputs": [],
      "stateMutability": "nonpayable",
      "type": "function"
    },
    {
      "inputs": [
        {
          "internalType": "uint256",
          "name": "_price",
          "type": "uint256"
        },
        {
          "internalType": "string",
          "name": "_state",
          "type": "string"
        }
      ],
      "name": "addPassenger",
      "outputs": [],
      "stateMutability": "nonpayable",
      "type": "function"
    },
    {
      "inputs": [],
      "name": "retrievePassenger",
      "outputs": [
        {
          "components": [
            {
              "internalType": "uint256",
              "name": "price",
              "type": "uint256"
            },
            {
              "internalType": "string",
              "name": "state",
              "type": "string"
            }
          ],
          "internalType": "struct RideShare.Passenger",
          "name": "",
          "type": "tuple"
        }
      ],
      "stateMutability": "view",
      "type": "function",
      "constant": true
    },
    {
      "inputs": [
        {
          "internalType": "uint256",
          "name": "_rideIndex",
          "type": "uint256"
        }
      ],
      "name": "retrieveRide",
      "outputs": [
        {
          "components": [
            {
              "internalType": "address",
              "name": "driver",
              "type": "address"
            },
            {
              "internalType": "uint256",
              "name": "drivingCost",
              "type": "uint256"
            },
            {
              "internalType": "uint256",
              "name": "capacity",
              "type": "uint256"
            },
            {
              "internalType": "uint256",
              "name": "confirmedAt",
              "type": "uint256"
            },
            {
              "internalType": "string",
              "name": "originAddress",
              "type": "string"
            },
            {
              "internalType": "string",
              "name": "desAddress",
              "type": "string"
            },
            {
              "internalType": "address payable[]",
              "name": "passengerAccts",
              "type": "address[]"
            }
          ],
          "internalType": "struct RideShare.Ride",
          "name": "",
          "type": "tuple"
        }
      ],
      "stateMutability": "view",
      "type": "function",
      "constant": true
    },
    {
      "inputs": [
        {
          "internalType": "uint256",
          "name": "_rideIndex",
          "type": "uint256"
        }
      ],
      "name": "joinRide",
      "outputs": [],
      "stateMutability": "payable",
      "type": "function",
      "payable": true
    },
    {
      "inputs": [
        {
          "internalType": "uint256",
          "name": "_rideIndex",
          "type": "uint256"
        }
      ],
      "name": "confirmDriverMet",
      "outputs": [],
      "stateMutability": "nonpayable",
      "type": "function"
    },
    {
      "inputs": [
        {
          "internalType": "uint256",
          "name": "_rideIndex",
          "type": "uint256"
        }
      ],
      "name": "arrived",
      "outputs": [],
      "stateMutability": "nonpayable",
      "type": "function"
    },
    {
      "inputs": [
        {
          "internalType": "uint256",
          "name": "_rideIndex",
          "type": "uint256"
        }
      ],
      "name": "cancelRide",
      "outputs": [],
      "stateMutability": "nonpayable",
      "type": "function"
    }
  ],
  "bytecode": "0x608060405234801561001057600080fd5b50612163806100206000396000f3fe60806040526004361061009c5760003560e01c8063b47c188311610064578063b47c18831461018e578063c38e8e1e146101b9578063d0498e8a146101e2578063dc8cb42a1461020d578063f2c46f7214610238578063fd4e1305146102615761009c565b806301f32206146100a157806341bc486e146100bd5780635205f112146100e6578063a6f07b2914610128578063ac39177a14610151575b600080fd5b6100bb60048036038101906100b691906113ff565b61028a565b005b3480156100c957600080fd5b506100e460048036038101906100df91906115d0565b6104e4565b005b3480156100f257600080fd5b5061010d600480360381019061010891906113ff565b610677565b60405161011f96959493929190611732565b60405180910390f35b34801561013457600080fd5b5061014f600480360381019061014a91906113ff565b6107f3565b005b34801561015d57600080fd5b50610178600480360381019061017391906113ff565b610a2f565b6040516101859190611983565b60405180910390f35b34801561019a57600080fd5b506101a3610c91565b6040516101b091906119a5565b60405180910390f35b3480156101c557600080fd5b506101e060048036038101906101db91906119c0565b610c97565b005b3480156101ee57600080fd5b506101f7610d18565b60405161020491906119a5565b60405180910390f35b34801561021957600080fd5b50610222610d1e565b60405161022f9190611a59565b60405180910390f35b34801561024457600080fd5b5061025f600480360381019061025a91906113ff565b610e11565b005b34801561026d57600080fd5b50610288600480360381019061028391906113ff565b61110f565b005b6000600382815481106102a05761029f611a7b565b5b9060005260206000209060070201905080600201548160060180549050106102fd576040517f08c379a00000000000000000000000000000000000000000000000000000000081526004016102f490611af6565b60405180910390fd5b6000600160003373ffffffffffffffffffffffffffffffffffffffff1673ffffffffffffffffffffffffffffffffffffffff1681526020019081526020016000206000015414610382576040517f08c379a000000000000000000000000000000000000000000000000000000000815260040161037990611b88565b60405180910390fd5b806001015434146103c8576040517f08c379a00000000000000000000000000000000000000000000000000000000081526004016103bf90611c1a565b60405180910390fd5b610407346040518060400160405280600781526020017f696e697469616c00000000000000000000000000000000000000000000000000815250610c97565b80600601339080600181540180825580915050600190039060005260206000200160009091909190916101000a81548173ffffffffffffffffffffffffffffffffffffffff021916908373ffffffffffffffffffffffffffffffffffffffff160217905550806002015460025411156104835760006002819055505b6002546000803373ffffffffffffffffffffffffffffffffffffffff1673ffffffffffffffffffffffffffffffffffffffff16815260200190815260200160002081905550600260008154809291906104db90611c69565b91905055505050565b60006040518060e001604052808873ffffffffffffffffffffffffffffffffffffffff168152602001878152602001868152602001858152602001848152602001838152602001600067ffffffffffffffff811115610546576105456114a5565b5b6040519080825280602002602001820160405280156105745781602001602082028036833780820191505090505b508152509050600381908060018154018082558091505060019003906000526020600020906007020160009091909190915060008201518160000160006101000a81548173ffffffffffffffffffffffffffffffffffffffff021916908373ffffffffffffffffffffffffffffffffffffffff16021790555060208201518160010155604082015181600201556060820151816003015560808201518160040190816106209190611ebd565b5060a08201518160050190816106369190611ebd565b5060c08201518160060190805190602001906106539291906112a1565b5050506004600081548092919061066990611c69565b919050555050505050505050565b6003818154811061068757600080fd5b90600052602060002090600702016000915090508060000160009054906101000a900473ffffffffffffffffffffffffffffffffffffffff16908060010154908060020154908060030154908060040180546106e290611ce0565b80601f016020809104026020016040519081016040528092919081815260200182805461070e90611ce0565b801561075b5780601f106107305761010080835404028352916020019161075b565b820191906000526020600020905b81548152906001019060200180831161073e57829003601f168201915b50505050509080600501805461077090611ce0565b80601f016020809104026020016040519081016040528092919081815260200182805461079c90611ce0565b80156107e95780601f106107be576101008083540402835291602001916107e9565b820191906000526020600020905b8154815290600101906020018083116107cc57829003601f168201915b5050505050905086565b60006003828154811061080957610808611a7b565b5b906000526020600020906007020190508060030154421115610860576040517f08c379a000000000000000000000000000000000000000000000000000000000815260040161085790611fdb565b60405180910390fd5b8060000160009054906101000a900473ffffffffffffffffffffffffffffffffffffffff1673ffffffffffffffffffffffffffffffffffffffff163373ffffffffffffffffffffffffffffffffffffffff160361094857806006016000815481106108ce576108cd611a7b565b5b9060005260206000200160009054906101000a900473ffffffffffffffffffffffffffffffffffffffff1673ffffffffffffffffffffffffffffffffffffffff166108fc82600101549081150290604051600060405180830381858888f19350505050158015610942573d6000803e3d6000fd5b50610a2b565b6000600160003373ffffffffffffffffffffffffffffffffffffffff1673ffffffffffffffffffffffffffffffffffffffff1681526020019081526020016000209050600081600101805461099c90611ce0565b9050036109de576040517f08c379a00000000000000000000000000000000000000000000000000000000081526004016109d590612047565b60405180910390fd5b3373ffffffffffffffffffffffffffffffffffffffff166108fc82600001549081150290604051600060405180830381858888f19350505050158015610a28573d6000803e3d6000fd5b50505b5050565b610a3761132b565b60038281548110610a4b57610a4a611a7b565b5b90600052602060002090600702016040518060e00160405290816000820160009054906101000a900473ffffffffffffffffffffffffffffffffffffffff1673ffffffffffffffffffffffffffffffffffffffff1673ffffffffffffffffffffffffffffffffffffffff168152602001600182015481526020016002820154815260200160038201548152602001600482018054610ae890611ce0565b80601f0160208091040260200160405190810160405280929190818152602001828054610b1490611ce0565b8015610b615780601f10610b3657610100808354040283529160200191610b61565b820191906000526020600020905b815481529060010190602001808311610b4457829003601f168201915b50505050508152602001600582018054610b7a90611ce0565b80601f0160208091040260200160405190810160405280929190818152602001828054610ba690611ce0565b8015610bf35780601f10610bc857610100808354040283529160200191610bf3565b820191906000526020600020905b815481529060010190602001808311610bd657829003601f168201915b5050505050815260200160068201805480602002602001604051908101604052809291908181526020018280548015610c8157602002820191906000526020600020905b8160009054906101000a900473ffffffffffffffffffffffffffffffffffffffff1673ffffffffffffffffffffffffffffffffffffffff1681526020019060010190808311610c37575b5050505050815250509050919050565b60045481565b6000604051806040016040528084815260200183815250905080600160003373ffffffffffffffffffffffffffffffffffffffff1673ffffffffffffffffffffffffffffffffffffffff168152602001908152602001600020600082015181600001556020820151816001019081610d0f9190611ebd565b50905050505050565b60025481565b610d2661137e565b600160003373ffffffffffffffffffffffffffffffffffffffff1673ffffffffffffffffffffffffffffffffffffffff16815260200190815260200160002060405180604001604052908160008201548152602001600182018054610d8a90611ce0565b80601f0160208091040260200160405190810160405280929190818152602001828054610db690611ce0565b8015610e035780601f10610dd857610100808354040283529160200191610e03565b820191906000526020600020905b815481529060010190602001808311610de657829003601f168201915b505050505081525050905090565b600060038281548110610e2757610e26611a7b565b5b906000526020600020906007020190508060000160009054906101000a900473ffffffffffffffffffffffffffffffffffffffff1673ffffffffffffffffffffffffffffffffffffffff163373ffffffffffffffffffffffffffffffffffffffff1614610ec9576040517f08c379a0000000000000000000000000000000000000000000000000000000008152600401610ec0906120d9565b60405180910390fd5b6000805b826006018054905081101561109e576000836006018281548110610ef457610ef3611a7b565b5b9060005260206000200160009054906101000a900473ffffffffffffffffffffffffffffffffffffffff1690506000600160008373ffffffffffffffffffffffffffffffffffffffff1673ffffffffffffffffffffffffffffffffffffffff16815260200190815260200160002090506000816001018054610f7590611ce0565b90501415801561102a57507f64000000000000000000000000000000000000000000000000000000000000008160010160008154610fb290611ce0565b8110610fc157610fc0611a7b565b5b815460011615610fe05790600052602060002090602091828204019190065b9054901a7f0100000000000000000000000000000000000000000000000000000000000000027effffffffffffffffffffffffffffffffffffffffffffffffffffffffffffff1916145b156110895780600001548461103f91906120f9565b93506040518060400160405280600a81526020017f636f6d706c6574696f6e000000000000000000000000000000000000000000008152508160010190816110879190611ebd565b505b5050808061109690611c69565b915050610ecd565b508160000160009054906101000a900473ffffffffffffffffffffffffffffffffffffffff1673ffffffffffffffffffffffffffffffffffffffff166108fc829081150290604051600060405180830381858888f19350505050158015611109573d6000803e3d6000fd5b50505050565b60006003828154811061112557611124611a7b565b5b9060005260206000209060070201905060008060003373ffffffffffffffffffffffffffffffffffffffff1673ffffffffffffffffffffffffffffffffffffffff16815260200190815260200160002054905060008260060182815481106111905761118f611a7b565b5b9060005260206000200160009054906101000a900473ffffffffffffffffffffffffffffffffffffffff1690506000600160008373ffffffffffffffffffffffffffffffffffffffff1673ffffffffffffffffffffffffffffffffffffffff1681526020019081526020016000209050600081600101805461121190611ce0565b905003611253576040517f08c379a000000000000000000000000000000000000000000000000000000000815260040161124a90612047565b60405180910390fd5b6040518060400160405280600f81526020017f647269766572436f6e6669726d656400000000000000000000000000000000008152508160010190816112999190611ebd565b505050505050565b82805482825590600052602060002090810192821561131a579160200282015b828111156113195782518260006101000a81548173ffffffffffffffffffffffffffffffffffffffff021916908373ffffffffffffffffffffffffffffffffffffffff160217905550916020019190600101906112c1565b5b5090506113279190611398565b5090565b6040518060e00160405280600073ffffffffffffffffffffffffffffffffffffffff1681526020016000815260200160008152602001600081526020016060815260200160608152602001606081525090565b604051806040016040528060008152602001606081525090565b5b808211156113b1576000816000905550600101611399565b5090565b6000604051905090565b600080fd5b600080fd5b6000819050919050565b6113dc816113c9565b81146113e757600080fd5b50565b6000813590506113f9816113d3565b92915050565b600060208284031215611415576114146113bf565b5b6000611423848285016113ea565b91505092915050565b600073ffffffffffffffffffffffffffffffffffffffff82169050919050565b60006114578261142c565b9050919050565b6114678161144c565b811461147257600080fd5b50565b6000813590506114848161145e565b92915050565b600080fd5b600080fd5b6000601f19601f8301169050919050565b7f4e487b7100000000000000000000000000000000000000000000000000000000600052604160045260246000fd5b6114dd82611494565b810181811067ffffffffffffffff821117156114fc576114fb6114a5565b5b80604052505050565b600061150f6113b5565b905061151b82826114d4565b919050565b600067ffffffffffffffff82111561153b5761153a6114a5565b5b61154482611494565b9050602081019050919050565b82818337600083830152505050565b600061157361156e84611520565b611505565b90508281526020810184848401111561158f5761158e61148f565b5b61159a848285611551565b509392505050565b600082601f8301126115b7576115b661148a565b5b81356115c7848260208601611560565b91505092915050565b60008060008060008060c087890312156115ed576115ec6113bf565b5b60006115fb89828a01611475565b965050602061160c89828a016113ea565b955050604061161d89828a016113ea565b945050606061162e89828a016113ea565b935050608087013567ffffffffffffffff81111561164f5761164e6113c4565b5b61165b89828a016115a2565b92505060a087013567ffffffffffffffff81111561167c5761167b6113c4565b5b61168889828a016115a2565b9150509295509295509295565b61169e8161144c565b82525050565b6116ad816113c9565b82525050565b600081519050919050565b600082825260208201905092915050565b60005b838110156116ed5780820151818401526020810190506116d2565b60008484015250505050565b6000611704826116b3565b61170e81856116be565b935061171e8185602086016116cf565b61172781611494565b840191505092915050565b600060c0820190506117476000830189611695565b61175460208301886116a4565b61176160408301876116a4565b61176e60608301866116a4565b818103608083015261178081856116f9565b905081810360a083015261179481846116f9565b9050979650505050505050565b6117aa8161144c565b82525050565b6117b9816113c9565b82525050565b600082825260208201905092915050565b60006117db826116b3565b6117e581856117bf565b93506117f58185602086016116cf565b6117fe81611494565b840191505092915050565b600081519050919050565b600082825260208201905092915050565b6000819050602082019050919050565b60006118408261142c565b9050919050565b61185081611835565b82525050565b60006118628383611847565b60208301905092915050565b6000602082019050919050565b600061188682611809565b6118908185611814565b935061189b83611825565b8060005b838110156118cc5781516118b38882611856565b97506118be8361186e565b92505060018101905061189f565b5085935050505092915050565b600060e0830160008301516118f160008601826117a1565b50602083015161190460208601826117b0565b50604083015161191760408601826117b0565b50606083015161192a60608601826117b0565b506080830151848203608086015261194282826117d0565b91505060a083015184820360a086015261195c82826117d0565b91505060c083015184820360c0860152611976828261187b565b9150508091505092915050565b6000602082019050818103600083015261199d81846118d9565b905092915050565b60006020820190506119ba60008301846116a4565b92915050565b600080604083850312156119d7576119d66113bf565b5b60006119e5858286016113ea565b925050602083013567ffffffffffffffff811115611a0657611a056113c4565b5b611a12858286016115a2565b9150509250929050565b6000604083016000830151611a3460008601826117b0565b5060208301518482036020860152611a4c82826117d0565b9150508091505092915050565b60006020820190508181036000830152611a738184611a1c565b905092915050565b7f4e487b7100000000000000000000000000000000000000000000000000000000600052603260045260246000fd5b7f5269646520697320616c72656164792066756c6c210000000000000000000000600082015250565b6000611ae06015836116be565b9150611aeb82611aaa565b602082019050919050565b60006020820190508181036000830152611b0f81611ad3565b9050919050565b7f596f75206861766520616c7265616479206a6f696e656420746869732072696460008201527f6500000000000000000000000000000000000000000000000000000000000000602082015250565b6000611b726021836116be565b9150611b7d82611b16565b604082019050919050565b60006020820190508181036000830152611ba181611b65565b9050919050565b7f496e73756666696369656e74207061796d656e7420666f72206a6f696e696e6760008201527f2074686520726964650000000000000000000000000000000000000000000000602082015250565b6000611c046029836116be565b9150611c0f82611ba8565b604082019050919050565b60006020820190508181036000830152611c3381611bf7565b9050919050565b7f4e487b7100000000000000000000000000000000000000000000000000000000600052601160045260246000fd5b6000611c74826113c9565b91507fffffffffffffffffffffffffffffffffffffffffffffffffffffffffffffffff8203611ca657611ca5611c3a565b5b600182019050919050565b7f4e487b7100000000000000000000000000000000000000000000000000000000600052602260045260246000fd5b60006002820490506001821680611cf857607f821691505b602082108103611d0b57611d0a611cb1565b5b50919050565b60008190508160005260206000209050919050565b60006020601f8301049050919050565b600082821b905092915050565b600060088302611d737fffffffffffffffffffffffffffffffffffffffffffffffffffffffffffffffff82611d36565b611d7d8683611d36565b95508019841693508086168417925050509392505050565b6000819050919050565b6000611dba611db5611db0846113c9565b611d95565b6113c9565b9050919050565b6000819050919050565b611dd483611d9f565b611de8611de082611dc1565b848454611d43565b825550505050565b600090565b611dfd611df0565b611e08818484611dcb565b505050565b5b81811015611e2c57611e21600082611df5565b600181019050611e0e565b5050565b601f821115611e7157611e4281611d11565b611e4b84611d26565b81016020851015611e5a578190505b611e6e611e6685611d26565b830182611e0d565b50505b505050565b600082821c905092915050565b6000611e9460001984600802611e76565b1980831691505092915050565b6000611ead8383611e83565b9150826002028217905092915050565b611ec6826116b3565b67ffffffffffffffff811115611edf57611ede6114a5565b5b611ee98254611ce0565b611ef4828285611e30565b600060209050601f831160018114611f275760008415611f15578287015190505b611f1f8582611ea1565b865550611f87565b601f198416611f3586611d11565b60005b82811015611f5d57848901518255600182019150602085019450602081019050611f38565b86831015611f7a5784890151611f76601f891682611e83565b8355505b6001600288020188555050505b505050505050565b7f526964652068617320616c7265616479206265656e20636f6e6669726d656400600082015250565b6000611fc5601f836116be565b9150611fd082611f8f565b602082019050919050565b60006020820190508181036000830152611ff481611fb8565b9050919050565b7f596f7520686176656e2774206a6f696e65642074686973207269646500000000600082015250565b6000612031601c836116be565b915061203c82611ffb565b602082019050919050565b6000602082019050818103600083015261206081612024565b9050919050565b7f4f6e6c7920647269766572206f662074686520726964652063616e2063616c6c60008201527f20746869732066756e6374696f6e000000000000000000000000000000000000602082015250565b60006120c3602e836116be565b91506120ce82612067565b604082019050919050565b600060208201905081810360008301526120f2816120b6565b9050919050565b6000612104826113c9565b915061210f836113c9565b925082820190508082111561212757612126611c3a565b5b9291505056fea2646970667358221220ee6098098a2dfecf9e15588d41594e7aa448438f92b3c8606b3aaac41f2f2bbe64736f6c63430008130033",
  "immutableReferences": {},
  "source": "// SPDX-License-Identifier: MIT\npragma solidity ^0.8.0;\n\ncontract RideShare {\n    // state variable\n    struct Passenger {\n        uint256 price;\n        string state;\n    }\n\n    // state variable\n    struct Ride {\n        address driver;\n        uint256 drivingCost;\n        uint256 capacity;\n        uint256 confirmedAt;\n        string originAddress;\n        string desAddress;\n        address payable[] passengerAccts;\n    }\n\n    mapping(address => uint256) addressToIndexPassengerAccts;\n    mapping(address => Passenger) passengers;\n\n    uint256 public passengerAcctsCount;\n\n    Ride[] public rides;\n    uint256 public rideCount;\n\n    // Function to create a new ride\n    function createRide(\n        address _driver,\n        uint256 _drivingCost,\n        uint256 _capacity,\n        uint256 _confirmedAt,\n        string memory _originAddress,\n        string memory _destAddress\n    ) public virtual {\n        Ride memory newRide = Ride({\n            driver: _driver,\n            drivingCost: _drivingCost,\n            capacity: _capacity,\n            confirmedAt: _confirmedAt,\n            originAddress: _originAddress,\n            desAddress: _destAddress,\n            passengerAccts: new address payable[](0)\n        });\n        rides.push(newRide);\n        rideCount++;\n    }\n\n    // Function to create a new passenger\n    function addPassenger(uint256 _price, string memory _state) public {\n        Passenger memory newPassenger = Passenger({\n            price: _price,\n            state: _state\n        });\n        passengers[msg.sender] = newPassenger;\n    }\n\n    function retrievePassenger() public view returns (Passenger memory) {\n        return passengers[msg.sender];\n    }\n\n    function retrieveRide(uint256 _rideIndex) public view returns (Ride memory) {\n        return rides[_rideIndex];\n    }\n\n    // Function to check a legal transaction for joining a ride\n    function joinRide(uint256 _rideIndex) public payable {\n        Ride storage curRide = rides[_rideIndex];\n\n        require(\n            curRide.passengerAccts.length < curRide.capacity,\n            \"Ride is already full!\"\n        );\n        require(\n            passengers[msg.sender].price == 0,\n            \"You have already joined this ride\"\n        );\n        require(\n            msg.value == curRide.drivingCost,\n            \"Insufficient payment for joining the ride\"\n        );\n\n        // Add new passenger into passenger list\n        addPassenger(msg.value, \"initial\");\n\n        // Add passenger address to passenger account list\n        curRide.passengerAccts.push(payable(msg.sender));\n\n        // In case number of passenger account in a ride larger than capacity\n        if (passengerAcctsCount > curRide.capacity) passengerAcctsCount = 0;\n\n        // Store current address with index of array passenger account to access\n        addressToIndexPassengerAccts[msg.sender] = passengerAcctsCount;\n        passengerAcctsCount++;\n    }\n\n    // Function to confirm Driver and Passenger have met\n    function confirmDriverMet(uint256 _rideIndex) public {\n        Ride storage curRide = rides[_rideIndex];\n\n        uint256 curIndexPassengerAccts = addressToIndexPassengerAccts[\n            msg.sender\n        ];\n        address payable addressPassengerAcct = curRide.passengerAccts[\n            curIndexPassengerAccts\n        ];\n        Passenger storage passenger = passengers[addressPassengerAcct];\n\n        require(\n            bytes(passenger.state).length != 0,\n            \"You haven't joined this ride\"\n        );\n        passenger.state = \"driverConfirmed\";\n    }\n\n    // Function to payment from passenger to driver when complete the trip\n    function arrived(uint256 _rideIndex) public {\n        Ride storage curRide = rides[_rideIndex];\n        require(\n            msg.sender == curRide.driver,\n            \"Only driver of the ride can call this function\"\n        );\n        uint256 totalPayment = 0;\n        for (uint256 i = 0; i < curRide.passengerAccts.length; i++) {\n            address payable addressPassengerAcct = curRide.passengerAccts[i];\n            Passenger storage passenger = passengers[addressPassengerAcct];\n            // Check if state is driverConfirmed and not empty\n            if (\n                bytes(passenger.state).length != 0 &&\n                bytes(passenger.state)[0] == \"d\"\n            ) {\n                totalPayment += passenger.price;\n                passenger.state = \"completion\";\n            }\n        }\n        // The address needs to be address payable to be used for transfer\n        payable(curRide.driver).transfer(totalPayment);\n    }\n\n    //\n    function cancelRide(uint256 _rideIndex) public {\n        Ride storage curRide = rides[_rideIndex];\n        require(\n            block.timestamp <= curRide.confirmedAt,\n            \"Ride has already been confirmed\"\n        );\n        if (msg.sender == curRide.driver) {\n            curRide.passengerAccts[0].transfer(curRide.drivingCost);\n        } else {\n            Passenger storage passenger = passengers[msg.sender];\n            require(\n                bytes(passenger.state).length != 0,\n                \"You haven't joined this ride\"\n            );\n            payable(msg.sender).transfer(passenger.price);\n        }\n    }\n}",
  "sourcePath": "/home/parallel_user/vanet-coin/contracts/RideShare.sol",
  "compiler": {
    "name": "solc",
    "version": "0.8.19+commit.7dd6d404.Emscripten.clang"
  },
  "schemaVersion": "3.4.13",
  "updatedAt": "2023-09-28T05:36:42.938Z",
  "networkType": "ethereum",
  "devdoc": {
    "kind": "dev",
    "methods": {},
    "version": 1
  },
  "userdoc": {
    "kind": "user",
    "methods": {},
    "version": 1
  }
}