{
  "contractName": "RideShare",
  "abi": [
    {
      "inputs": [
        {
          "internalType": "address",
          "name": "",
          "type": "address"
        }
      ],
      "name": "passengerCounter",
      "outputs": [
        {
          "internalType": "uint256",
          "name": "",
          "type": "uint256"
        }
      ],
      "stateMutability": "view",
      "type": "function",
      "constant": true
    },
    {
      "inputs": [
        {
          "internalType": "address",
          "name": "",
          "type": "address"
        },
        {
          "internalType": "uint256",
          "name": "",
          "type": "uint256"
        }
      ],
      "name": "passengers",
      "outputs": [
        {
          "internalType": "uint256",
          "name": "id",
          "type": "uint256"
        },
        {
          "internalType": "string",
          "name": "name",
          "type": "string"
        },
        {
          "internalType": "string",
          "name": "phoneNumber",
          "type": "string"
        },
        {
          "internalType": "uint256",
          "name": "numberOfPeople",
          "type": "uint256"
        },
        {
          "internalType": "string",
          "name": "state",
          "type": "string"
        }
      ],
      "stateMutability": "view",
      "type": "function",
      "constant": true
    },
    {
      "inputs": [],
      "name": "rideCounter",
      "outputs": [
        {
          "internalType": "uint256",
          "name": "",
          "type": "uint256"
        }
      ],
      "stateMutability": "view",
      "type": "function",
      "constant": true
    },
    {
      "inputs": [
        {
          "internalType": "uint256",
          "name": "",
          "type": "uint256"
        }
      ],
      "name": "rides",
      "outputs": [
        {
          "internalType": "uint256",
          "name": "id",
          "type": "uint256"
        },
        {
          "internalType": "address",
          "name": "driver",
          "type": "address"
        },
        {
          "internalType": "uint256",
          "name": "drivingCost",
          "type": "uint256"
        },
        {
          "internalType": "uint256",
          "name": "capacity",
          "type": "uint256"
        },
        {
          "internalType": "uint256",
          "name": "confirmedAt",
          "type": "uint256"
        },
        {
          "internalType": "string",
          "name": "originAddress",
          "type": "string"
        },
        {
          "internalType": "string",
          "name": "desAddress",
          "type": "string"
        }
      ],
      "stateMutability": "view",
      "type": "function",
      "constant": true
    },
    {
      "inputs": [
        {
          "internalType": "uint256",
          "name": "_drivingCost",
          "type": "uint256"
        },
        {
          "internalType": "uint256",
          "name": "_capacity",
          "type": "uint256"
        },
        {
          "internalType": "uint256",
          "name": "_confirmedAt",
          "type": "uint256"
        },
        {
          "internalType": "string",
          "name": "_originAddress",
          "type": "string"
        },
        {
          "internalType": "string",
          "name": "_destAddress",
          "type": "string"
        }
      ],
      "name": "createRide",
      "outputs": [],
      "stateMutability": "payable",
      "type": "function",
      "payable": true
    }
  ],
  "bytecode": "0x608060405234801561001057600080fd5b50610e10806100206000396000f3fe60806040526004361061004a5760003560e01c8063042b11c51461004f5780635205f112146100905780636e02abb0146100d3578063b10fefc014610110578063c8f8b6c21461013b575b600080fd5b34801561005b57600080fd5b50610076600480360381019061007191906108d5565b610157565b604051610087959493929190610b30565b60405180910390f35b34801561009c57600080fd5b506100b760048036038101906100b29190610911565b610332565b6040516100ca9796959493929190610ab3565b60405180910390f35b3480156100df57600080fd5b506100fa60048036038101906100f591906108ac565b6104b4565b6040516101079190610a98565b60405180910390f35b34801561011c57600080fd5b506101256104cc565b6040516101329190610a98565b60405180910390f35b6101556004803603810190610150919061093a565b6104d2565b005b60006020528160005260406000206020528060005260406000206000915091505080600001549080600101805461018d90610c93565b80601f01602080910402602001604051908101604052809291908181526020018280546101b990610c93565b80156102065780601f106101db57610100808354040283529160200191610206565b820191906000526020600020905b8154815290600101906020018083116101e957829003601f168201915b50505050509080600201805461021b90610c93565b80601f016020809104026020016040519081016040528092919081815260200182805461024790610c93565b80156102945780601f1061026957610100808354040283529160200191610294565b820191906000526020600020905b81548152906001019060200180831161027757829003601f168201915b5050505050908060030154908060040180546102af90610c93565b80601f01602080910402602001604051908101604052809291908181526020018280546102db90610c93565b80156103285780601f106102fd57610100808354040283529160200191610328565b820191906000526020600020905b81548152906001019060200180831161030b57829003601f168201915b5050505050905085565b6002818154811061034257600080fd5b90600052602060002090600802016000915090508060000154908060010160009054906101000a900473ffffffffffffffffffffffffffffffffffffffff16908060020154908060030154908060040154908060050180546103a390610c93565b80601f01602080910402602001604051908101604052809291908181526020018280546103cf90610c93565b801561041c5780601f106103f15761010080835404028352916020019161041c565b820191906000526020600020905b8154815290600101906020018083116103ff57829003601f168201915b50505050509080600601805461043190610c93565b80601f016020809104026020016040519081016040528092919081815260200182805461045d90610c93565b80156104aa5780601f1061047f576101008083540402835291602001916104aa565b820191906000526020600020905b81548152906001019060200180831161048d57829003601f168201915b5050505050905087565b60016020528060005260406000206000915090505481565b60035481565b600060405180610100016040528060035481526020013373ffffffffffffffffffffffffffffffffffffffff168152602001878152602001868152602001858152602001848152602001838152602001600067ffffffffffffffff811115610563577f4e487b7100000000000000000000000000000000000000000000000000000000600052604160045260246000fd5b6040519080825280602002602001820160405280156105915781602001602082028036833780820191505090505b5081525090508534146105d9576040517f08c379a00000000000000000000000000000000000000000000000000000000081526004016105d090610a78565b60405180910390fd5b60028190806001815401808255809150506001900390600052602060002090600802016000909190919091506000820151816000015560208201518160010160006101000a81548173ffffffffffffffffffffffffffffffffffffffff021916908373ffffffffffffffffffffffffffffffffffffffff16021790555060408201518160020155606082015181600301556080820151816004015560a08201518160050190805190602001906106909291906106ed565b5060c08201518160060190805190602001906106ad9291906106ed565b5060e08201518160070190805190602001906106ca929190610773565b505050600360008154809291906106e090610cc5565b9190505550505050505050565b8280546106f990610c93565b90600052602060002090601f01602090048101928261071b5760008555610762565b82601f1061073457805160ff1916838001178555610762565b82800160010185558215610762579182015b82811115610761578251825591602001919060010190610746565b5b50905061076f91906107fd565b5090565b8280548282559060005260206000209081019282156107ec579160200282015b828111156107eb5782518260006101000a81548173ffffffffffffffffffffffffffffffffffffffff021916908373ffffffffffffffffffffffffffffffffffffffff16021790555091602001919060010190610793565b5b5090506107f991906107fd565b5090565b5b808211156108165760008160009055506001016107fe565b5090565b600061082d61082884610bc9565b610b98565b90508281526020810184848401111561084557600080fd5b610850848285610c51565b509392505050565b60008135905061086781610dac565b92915050565b600082601f83011261087e57600080fd5b813561088e84826020860161081a565b91505092915050565b6000813590506108a681610dc3565b92915050565b6000602082840312156108be57600080fd5b60006108cc84828501610858565b91505092915050565b600080604083850312156108e857600080fd5b60006108f685828601610858565b925050602061090785828601610897565b9150509250929050565b60006020828403121561092357600080fd5b600061093184828501610897565b91505092915050565b600080600080600060a0868803121561095257600080fd5b600061096088828901610897565b955050602061097188828901610897565b945050604061098288828901610897565b935050606086013567ffffffffffffffff81111561099f57600080fd5b6109ab8882890161086d565b925050608086013567ffffffffffffffff8111156109c857600080fd5b6109d48882890161086d565b9150509295509295909350565b6109ea81610c15565b82525050565b60006109fb82610bf9565b610a058185610c04565b9350610a15818560208601610c60565b610a1e81610d9b565b840191505092915050565b6000610a36601983610c04565b91507f4372656174653a204e6f7420656e6f75676820657468657221000000000000006000830152602082019050919050565b610a7281610c47565b82525050565b60006020820190508181036000830152610a9181610a29565b9050919050565b6000602082019050610aad6000830184610a69565b92915050565b600060e082019050610ac8600083018a610a69565b610ad560208301896109e1565b610ae26040830188610a69565b610aef6060830187610a69565b610afc6080830186610a69565b81810360a0830152610b0e81856109f0565b905081810360c0830152610b2281846109f0565b905098975050505050505050565b600060a082019050610b456000830188610a69565b8181036020830152610b5781876109f0565b90508181036040830152610b6b81866109f0565b9050610b7a6060830185610a69565b8181036080830152610b8c81846109f0565b90509695505050505050565b6000604051905081810181811067ffffffffffffffff82111715610bbf57610bbe610d6c565b5b8060405250919050565b600067ffffffffffffffff821115610be457610be3610d6c565b5b601f19601f8301169050602081019050919050565b600081519050919050565b600082825260208201905092915050565b6000610c2082610c27565b9050919050565b600073ffffffffffffffffffffffffffffffffffffffff82169050919050565b6000819050919050565b82818337600083830152505050565b60005b83811015610c7e578082015181840152602081019050610c63565b83811115610c8d576000848401525b50505050565b60006002820490506001821680610cab57607f821691505b60208210811415610cbf57610cbe610d3d565b5b50919050565b6000610cd082610c47565b91507fffffffffffffffffffffffffffffffffffffffffffffffffffffffffffffffff821415610d0357610d02610d0e565b5b600182019050919050565b7f4e487b7100000000000000000000000000000000000000000000000000000000600052601160045260246000fd5b7f4e487b7100000000000000000000000000000000000000000000000000000000600052602260045260246000fd5b7f4e487b7100000000000000000000000000000000000000000000000000000000600052604160045260246000fd5b6000601f19601f8301169050919050565b610db581610c15565b8114610dc057600080fd5b50565b610dcc81610c47565b8114610dd757600080fd5b5056fea2646970667358221220f9c1ea0b058d1ce41c987dd2a2160ae1b40376f5b0c2441b71e8425dbe4a015764736f6c63430008000033",
  "immutableReferences": {},
  "source": "// SPDX-License-Identifier: GPL-3.0\r\npragma solidity >=0.7.0 <0.9.0;\r\n\r\ncontract RideShare {\r\n\r\n    struct Passenger {\r\n        uint id;\r\n        string name;\r\n        string phoneNumber;\r\n        uint256 numberOfPeople;\r\n        string state;\r\n    }\r\n    \r\n    mapping(address => mapping(uint => Passenger)) public passengers;\r\n    mapping(address => uint) public passengerCounter;\r\n\r\n    struct Ride {\r\n        uint id;\r\n        address driver;\r\n        uint256 drivingCost;\r\n        uint256 capacity;\r\n        uint256 confirmedAt;\r\n        string originAddress;\r\n        string desAddress;\r\n        address payable[] passengerAccounts;\r\n    }\r\n\r\n    Ride[] public rides;\r\n    uint256 public rideCounter;\r\n\r\n    // uint256 public startTime; \r\n    // uint256 public endTime; \r\n    // uint256 public limitTime = 3;\r\n\r\n    // function addPassenger(\r\n    //     string memory _name,\r\n    //     string memory _phoneNumber,\r\n    //     uint256 _numberOfPeople,\r\n    //     string memory _state\r\n    // ) public {\r\n    //     // emit LogPassenger(_name, _phoneNumber, _numberOfPeople, _state);\r\n    //     uint psgCount = passengerCounter[msg.sender];\r\n\r\n    //     Passenger memory newPassenger = Passenger({\r\n    //         id: psgCount,\r\n    //         name: _name,\r\n    //         phoneNumber: _phoneNumber,\r\n    //         numberOfPeople: _numberOfPeople,\r\n    //         state: _state\r\n    //     });\r\n\r\n    //     passengers[msg.sender][psgCount] = newPassenger;\r\n\r\n    //     // emit PassengerAdded(psgCount, _name, _phoneNumber, _numberOfPeople, _state);\r\n    //     passengerCounter[msg.sender]++;\r\n    // }\r\n\r\n\r\n    // Function to create a new ride\r\n    function createRide (\r\n        uint256 _drivingCost,\r\n        uint256 _capacity,\r\n        uint256 _confirmedAt,\r\n        string memory _originAddress,\r\n        string memory _destAddress\r\n    ) public payable{\r\n        Ride memory newRide = Ride({\r\n            id: rideCounter,\r\n            driver: msg.sender,\r\n            drivingCost: _drivingCost,\r\n            capacity: _capacity,\r\n            confirmedAt: _confirmedAt,\r\n            originAddress: _originAddress,\r\n            desAddress: _destAddress,\r\n            passengerAccounts: new address payable[](0)\r\n        });\r\n\r\n        require(uint256(msg.value) == uint256(_drivingCost), \"Create: Not enough ether!\");\r\n\r\n        // startTime = block.timestamp;\r\n        rides.push(newRide);\r\n        rideCounter++;\r\n    }\r\n\r\n    // function retrieveRide(uint _index) view  public returns (Ride memory) {\r\n    //     return rides[_index];\r\n    // }\r\n\r\n    // function retrieveAllPassengers(uint256 _idxRide) public view returns  (address payable[]  memory) {\r\n    //     return rides[_idxRide].passengerAccounts;\r\n    // }\r\n   \r\n    // Ly ra a ch ca khch hng tham gia vo chuyn i th index\r\n    // function retrieveOnePassenger(uint256 _idxRide) public view returns (address) {\r\n    //     address pAddress;\r\n    //     for (uint256 i = 0; i < rides[_idxRide].passengerAccounts.length; i++) {\r\n    //         // Kim tra thng sender (thng gi ng  tham gia transaction) c trong chuyn i hay khng\r\n    //         if (msg.sender == rides[_idxRide].passengerAccounts[i]){\r\n    //             pAddress = rides[_idxRide].passengerAccounts[i];\r\n    //             break;\r\n    //         }\r\n    //     }\r\n        \r\n    //     require(pAddress != address(0), \"Retrieve One Passenger: This account does not participate in the ride\");\r\n    //     return pAddress;\r\n    // }\r\n\r\n    // 1. Khch hng xc nhn tham gia vo transaction (t xe) - Khch hng (lm hnh ng g  trn giao din)\r\n    // function joinRide(uint256 _idxRide) public payable{\r\n    //     require(msg.sender != rides[_idxRide].driver, \"Join Ride: This is driver address, the ride need a passenger join\");\r\n\r\n    //     // n v c s dng  y l wei \r\n    //     require(uint256(msg.value) == uint256(rides[_idxRide].drivingCost), \"Join Ride: Not enough ether!\");\r\n    //     rides[_idxRide].passengerAccounts.push(payable(msg.sender));\r\n\r\n        \r\n    //     // 2. Cp nht trng thi ca khch hng khi mi tham gia vo mng (Sau khi joinRide) - H thng\r\n    //     passengers[msg.sender][_idxRide].state = \"initial\";\r\n    // }\r\n\r\n    // 3. Cp nht trng thi ca khch hng khi c chp nhn chuyn i bi ti x - Ti x  (lm hnh ng g  trn giao din)\r\n    // function confirmDriverMet(uint256 _idxRide) public {\r\n    //     address pAddress = retrieveOnePassenger(_idxRide);\r\n    //     passengers[pAddress][_idxRide].state = \"confirm\";\r\n    // }\r\n\r\n    // 4. Khi kt thc chuyn i, ti x s thc hin ly tin ca hnh khch\r\n    // function arrived(uint256 _idxRide) public {\r\n    //     require(\r\n    //         msg.sender == rides[_idxRide].driver,\r\n    //         \"Only driver of the ride can call this function\"\r\n    //     );\r\n        \r\n    //     (bool callSuccess, ) = payable(msg.sender).call{value: address(this).balance}(\"\");\r\n    //     require(callSuccess, \"Withdraw coin in the contract failed\");\r\n\r\n    //     address payable[] memory allPassenger = retrieveAllPassengers(_idxRide);\r\n    //     for (uint256 i = 0; i < allPassenger.length; i++) {\r\n    //         // Convert address payable to address\r\n    //         address pAddress = address(allPassenger[i]);\r\n    //         passengers[pAddress][_idxRide].state = \"completion\";\r\n\r\n    //         rides[_idxRide].passengerAccounts[i] = rides[_idxRide].passengerAccounts[allPassenger.length - 1];\r\n    //         rides[_idxRide].passengerAccounts.pop();\r\n    //     }\r\n    // }\r\n\r\n    // event TransferReceived(address _from, uint _amount);\r\n\r\n    // 5. Khi 1 trong 2 bn hy chuyn i \r\n    // function cancel(uint256 _idxRide) public payable {\r\n    //     address payable[] memory allPassenger = retrieveAllPassengers(_idxRide);\r\n    //     uint256 length = allPassenger.length;\r\n\r\n    //     // Khi transaction qu thi gian, coin c tr v cho ti x         \r\n\r\n    //     // Khi ti x hy\r\n    //     if(msg.sender == rides[_idxRide].driver) {  \r\n    //         uint256 share = msg.value / allPassenger.length;\r\n    //         for (uint256 i = 0; i < length; i++) {\r\n    //             // Convert address payable to address\r\n    //             address pAddress = address(allPassenger[i]);\r\n    //             (bool callSuccess, ) = payable(pAddress).call{value: share}(\"\");\r\n    //             require(callSuccess, \"Cancel: Transfer coin from driver to passenger failed\");\r\n\r\n    //             // Xa phn t ra khi mng cc chuyn i rides \r\n    //             rides[_idxRide].passengerAccounts[i] = rides[_idxRide].passengerAccounts[length - 1];\r\n    //             rides[_idxRide].passengerAccounts.pop();\r\n    //         }\r\n    //         // emit TransferReceived(msg.sender, msg.value);\r\n    //     } \r\n    //     else // khi khch hng hy\r\n    //     {               \r\n    //         for (uint256 i = 0; i < length; i++) {\r\n    //             // Convert address payable to address\r\n    //             address pAddress = address(allPassenger[i]);\r\n    //             if(msg.sender == pAddress) {\r\n    //                 (bool callSuccess, ) = payable(msg.sender).call{value: rides[_idxRide].drivingCost}(\"\");\r\n    //                 require(callSuccess, \"Cancel: Transfer coin from passenger to driver failed\");\r\n\r\n    //                 // Xa phn t ra khi mng cc chuyn i rides \r\n    //                 rides[_idxRide].passengerAccounts[i] = rides[_idxRide].passengerAccounts[length - 1];\r\n    //                 rides[_idxRide].passengerAccounts.pop();\r\n    //             }\r\n    //             // emit TransferReceived(msg.sender, msg.value);\r\n    //         }\r\n    //     } \r\n    // }\r\n\r\n}",
  "sourcePath": "C:\\Users\\Admin\\Downloads\\Project\\project-vanet-blockchain\\contracts\\RideShare.sol",
  "compiler": {
    "name": "solc",
    "version": "0.8.0+commit.c7dfd78e.Emscripten.clang"
  },
  "schemaVersion": "3.4.16",
  "updatedAt": "2024-04-13T11:13:18.271Z",
  "networkType": "ethereum",
  "devdoc": {
    "kind": "dev",
    "methods": {},
    "version": 1
  },
  "userdoc": {
    "kind": "user",
    "methods": {},
    "version": 1
  }
}